:10000000802A00200D0E000035610000F90D00006F
:10001000F90D0000F90D0000F90D000000000000CE
:10002000000000000000000000000000790F000048
:10003000F90D000000000000150F0000F90D000090
:100040000111000001110000011100000111000068
:100050000111000001110000011100000111000058
:100060000111000001110000011100000111000048
:100070000111000001110000011100000111000038
:100080000111000001110000011100000111000028
:100090000111000001110000011100000111000018
:1000A0000111000001110000011100000111000008
:1000B00001110000011100000111000001110000F8
:1000C00001110000011100000111000001110000E8
:1000D00001110000011100000111000001110000D8
:1000E00001110000011100000111000001110000C8
:1000F00001110000011100000111000001110000B8
:1001000053B94AB9002908BF00281CBF4FF0FF317E
:100110004FF0FF3000F00CB8ADF1080C6DE904CEE3
:1001200000F008F8DDF804E0DDE9022304B07047D0
:10013000704700BF2DE9F04786468C460846089E6A
:10014000154674461946002B40F0C2808542B2FA2B
:1001500082F245D94AB1C2F1200300FA02FC2EFA1C
:1001600003F3954043EA0C0C94404FEA154EA8B2B5
:10017000BCFBFEF8230C0EFB18CC08FB00F943EA8D
:100180000C43994528D9EB1808F1FF3704D299455B
:1001900002D9A8F102072B44A3EB0903A4B2B3FBD5
:1001A000FEFC0EFB1C330CFB00F044EA0344A042AF
:1001B00014D92C190CF1FF3304D2A04202D9ACF1AE
:1001C00002032C44241A43EA07401EB1D440002302
:1001D00034607360BDE8F0874746DDE76346F1E7CA
:1001E00092BB431B01214FEA154EAFB2B3FBFEFC9D
:1001F000200C0EFB1C330CFB07F840EA0343984528
:1002000062D9EB180CF1FF3004D2984502D9ACF159
:1002100002002B44A3EB0803A4B2B3FBFEFC0EFBCD
:100220001C330CFB07F744EA0344A7424ED92C19B0
:100230000CF1FF3304D2A74202D9ACF102032C44E3
:10024000E41B43EA0040C0E7C2F1200320FA03F1B7
:10025000954090402EFA03F303434FEA154EAFB298
:10026000B1FBFEFC0EFB1C10190C0CFB07F841EA5D
:100270000041884504FA02F422D969180CF1FF30D4
:1002800004D2884502D9ACF102002944A1EB08014F
:100290009BB2B1FBFEFC0EFB1C110CFB07F743EA03
:1002A00001439F420ED9EB180CF1FF3104D29F425B
:1002B00002D9ACF102012B44DB1B41EA004192E779
:1002C0006046E3E76146F7E76046A3E76346B7E7C2
:1002D000834206D916B9002108467BE7C6E900E04B
:1002E000F9E7B3FA83F78FB9834201D3724508D88F
:1002F000BEEB020460EB030301209C461EB9002103
:1003000068E73846FAE7C6E9004CF8E7C7F1200C81
:10031000BB4022FA0CF41C432EFA0CF120FA0CF329
:10032000B84001434FEA14490EFA07F5B3FBF9F858
:100330001FFA84FE09FB18300B0C08FB0EFA43EA87
:1003400000439A4502FA07F240D9E31808F1FF305A
:1003500004D29A4502D9A8F102002344A3EB0A0370
:1003600089B2B3FBF9F809FB183308FB0EFE41EA2A
:1003700003418E452CD9611808F1FF3304D28E4514
:1003800002D9A8F10203214443EA0040A0FB0298ED
:10039000A1EB0E014145CE46434602D306D14D4561
:1003A00004D2B9EB020E68EB04030138002EA6D08C
:1003B000B5EB0E0261EB030101FA0CFC22FA07F324
:1003C0004CEA0303F940C6E9003198E74046C5E727
:1003D0004346D9E7000000002DE9F04F054687B0FD
:1003E00088461646836804AA5B680021984700285F
:1003F00030DBDDE9044BA8FB0423039208FB0B3838
:100400000398DFF8649016A3D3E900234146FFF771
:1004100077FE039B4FF0FF3A9A4579EB08030746B6
:1004200018D3A6FB044306FB0B3631460CA3D3E9D5
:1004300000232046FFF764FEA24579EB060603463B
:1004400008D38742AA6805D3002100911468284682
:100450003A46A04707B0BDE8F08F00BFAFF3008079
:1004600000CA9A3B00000000FFC99A3B38B5174804
:10047000174D184C05F06EFD174800F0B3F81548FD
:1004800005F08EFA154805F065FD124805F0ACFA46
:100490001048032105F0BAFA01220E481A2105F08E
:1004A000A6FA0C48072105F0DFFA0A480F2105F0EB
:1004B000CDFA284605F04EFD0021204605F080FAD1
:1004C00000214FF4203006F07EFAF2E7407600007B
:1004D0007676000030080020600800206476000076
:1004E00010B5012300220421054805F0C7FABDE834
:1004F0001040044801230022042105F048BA00BF3F
:1005000060080020300800202DE9F04F8FB0083A35
:1005100005460E460D934FF0000894B2082348F6A6
:100520005C7A0027CDE9063A4FF0320B4FF4D873CE
:1005300042F210724FF4A269CDE90332CDE90133E2
:100540004FF4D8624FF458612846CDE9097B0897EB
:100550000596CDF8009005F011FB06F10802059212
:100560000F4A06944FF4D873CDE90332CDE9013335
:100570004FF4D862CDE9097BCDE907A7CDF800900B
:100580004FF45861284605F0F9FA08F101080D9A70
:100590001FFA88F39342C1D90FB0BDE8F08F00BFB6
:1005A000A0860100064B103003F11C0253F8041B17
:1005B00040F8041B9342F9D11B780370704700BFC9
:1005C0000071000010B50022044646F2CB610448D9
:1005D000FFF702FF2046BDE8104006F0CCB800BF90
:1005E000006F000037B50B4C204606F0C9F828B95B
:1005F000094803B0BDE8304005F0ACBC0023A26858
:100600000093156819464FF47A722046A84703B044
:1006100030BD00BF006F00009176000010B5436848
:100620004FF47A725A43037A07480C460749B1FBE4
:10063000F2F164224B43B3FBF2F2FFF7CDFE20460A
:10064000BDE8104006F097B8006F000000CA9A3B62
:10065000014B1B68184700BFC0040020014B186005
:10066000704700BFC004002030B585B004460D4679
:1006700010220021684606F014FA02238DF8023099
:100680002A46044B01932146684604F01FF905B041
:1006900030BD00BF5106000080B505460E46174626
:1006A000984603F003FC034606F0C0FBDFF8189001
:1006B000044649F80030424630463946A84754F8C7
:1006C000090000F011FC00BF080000002DE9F04710
:1006D000858B04462807904611D4022905F00705AA
:1006E00040F0CC80204605F042FC78B10138A18B67
:1006F000042811D8DFE800F0C2106D8595000129AB
:100700000CBF45F0100545F02005A58388F311883E
:10071000BFF36F8FBDE8F08701F0070AAA4500F02C
:10072000A5800027B9463E46A368002B00F0BC8098
:1007300041F00801A18388F31188BFF36F8FA1688E
:10074000002900F0BA800D68002900F0B680D1F8C9
:100750000480334652462046C047002D76D02B6891
:1007600029461D46F0E701F007035A1F012A1BD84E
:10077000002221F00701062B276889B2C4E9002274
:1007800009D13B4603E0E28B0132E2831B68002B78
:10079000F9D141F00201A183204605F0E8FB0028D1
:1007A0007AD041F0200176E0042B0AD121F0070134
:1007B00089B2A183204605F0DAFB10B141F0200197
:1007C000A183A18B01F0070AAA454FD00027B946A3
:1007D000AAE7236921F0070141F00601062DD3F8AD
:1007E0000090A1832DD1B9F1000F3FD041F0080155
:1007F000A18388F31188BFF36F8F3A492046C84719
:1008000029E021F00701236941F0040189B2042D98
:10081000D3F80490A183E6D000273E464FF0040AA7
:1008200082E721F00701236941F0050189B2052D16
:10083000D3F80890A183D6D000273E464FF0050A92
:1008400072E700273E464FF0060A6DE72B4687E722
:10085000B9F1000FD1D1EFF31188202383F312886F
:10086000BFF36F8FA38B23F00803A383A58BEA0646
:100870002ED525F01003A38305F00705A669A18BEB
:10088000002EBFF670AF00232768C4E9003321F0C3
:10089000070141F00101A183A18B01F0070AAA45DC
:1008A0004FF000097FF440AF002F9CD041F00801C9
:1008B000A18388F31188BFF36F8F002FC8D03D68E4
:1008C000394633465246204605F07DFB2F46F4E775
:1008D000AB067FF51BAF25F02003A38305F00705CA
:1008E00000E700BFF35F0000014B0360002070478A
:1008F000B873000008B5044805F02CFBBDE80840BB
:10090000024805F027BB00BFAE760000E37600008A
:10091000014803F077BD00BFB873000038B5044646
:1009200018B90F4B0F485B6898476168B1F5683F8D
:1009300010D0B1F5680F0DD00B4DA9420AD011F4BB
:100940006861206807D00146084805F07BFF002356
:100950002360656038BD142206F0A3F8F9E700BFF4
:1009600098050020117700002C5F5CA9740D002011
:1009700008B520B34368B3F5683F10D1012203687E
:10098000BFF35B8F53E8001F002903D143E8002029
:100990000028F7D1BFF35B8F0DD1002008BD094AB5
:1009A00093420AD000684FF0FF324FF0FF3302F05D
:1009B000A3FE0028F1D00448F0E70448EEE76FF406
:1009C000E040EBE72C5F5CA9E98FFFFFEA8FFFFFB8
:1009D00008B5D8B14368B3F5683F10D10022036869
:1009E000BFF35B8F53E8001F012903D143E80020C8
:1009F0000028F7D1BFF35B8F0BD1002008BD074A59
:100A0000934208D0006802F0EFFEF6E76FF4E04092
:100A1000F4E70348F2E70348F0E700BF2C5F5CA966
:100A2000E98FFFFFEA8FFFFF10B5044618B91D4B91
:100A30001D485B6898476368B3F5683F2FD0B3F5EE
:100A4000680F2CD0194A934219D1236803BB184868
:100A50004FF0FF324FF0FF33214602F01FFE08B97E
:100A600023681BB90F4B13485B6898472068142212
:100A7000002106F016F84FF46863636008E0B3F5F0
:100A8000683F0DD83A2B03D040F6BA629342DED1CC
:100A9000206805F021FF636843F03A03636010BDEE
:100AA000054AF3E798050020117700002C5F5CA948
:100AB000740D0020377700003A00003A08B5064967
:100AC00006484023142205F0AEFEBDE80840044964
:100AD000044803F009BD00BF74080020740D002015
:100AE000C0730000D473000030BFFFF7FDBF00BF2C
:100AF0002DE9F0410B4EDFF8308006EB0807CC1BE8
:100B0000054632460949204605F0BDFFA019424678
:100B10000021083C05F0C5FF2C6707F10800BDE87F
:100B2000F08100BF0000000008000000007100001C
:100B3000074A936893F90E10002907DB5269934224
:100B40001FBF044A536843F080535360704700BF8F
:100B5000780E002000ED00E070B5264B15469A6A2D
:100B600012F0100F9A6A14BF1124102412F0080F0B
:100B70009A6A18BF1224920706460AD5586B9A6AD9
:100B8000140634D519B19A6A22F080029A621324AD
:100B900001E06FF01500174B9A6A12F0010F9A6A84
:100BA00018BF142412F0200F9A6A18BF1524D20619
:100BB00002D49B6A9B070AD50E4B5B68190506D5C4
:100BC000314600F057FA10B180F309880224094B2E
:100BD0009A6A920642BF5A6A22F400525A629A6A8C
:100BE00042F0FF029A6200232B70204670BD6FF026
:100BF0001500CCE700ED00E0134B9A6A12F0007F7D
:100C00009A6A14BF1E201D2012F0807F9A6A18BFB6
:100C10001F2012F4002F9A6A18BF212012F4802F8F
:100C20009A6A18BF222012F4003F9A6A18BF232044
:100C300012F4803F9A6A6FEA02426FEA12429A62A5
:100C400018BF2420704700BF00ED00E010B5194B1D
:100C50000246986A9C6A10F4805F14BF1720162021
:100C600014F4006F9C6A18BF1820A40509D5986B6E
:100C7000986A000404D51AB19A6A22F400429A6272
:100C800019200C4B9A6A12F4806F9A6A18BF1A20C6
:100C9000D2050CD49B6A13F4005F18BF1C20054AD0
:100CA000936A43F47F43936200230B7010BD1B20B3
:100CB000F5E700BF00ED00E0F0B5484B5B688BB096
:100CC0000446C3F30803002585F31188BFF36F8F33
:100CD00002F07F40B0F17F4F11D102F00C000828E4
:100CE0000DD010074CBF0C4601250022033B8DF8A8
:100CF0000720032B05D8DFE803F0246367602C4648
:100D0000F3E700239DF80720CAB902AE04F12007DB
:100D100020686168324603C20834BC421646F7D1E7
:100D2000099A002D54D0C2F3080121B96FEA52226A
:100D30006FEA4222099202A9184605F0F1F90BB0B8
:100D4000F0BD264BDA6A9107DBD4DA6A002AD8DBD9
:100D5000DA6A5200D5D55A69A16942F480725A61A3
:100D6000BFF34F8FBFF36F8F5A6931F8021C22F423
:100D700080725A61BFF34F8FBFF36F8F4DF60272CF
:100D800091420AD09A6AD2B24AB10DF1070201210A
:100D90002046FFF7E1FE0346B4E72368B2E79A6A0C
:100DA00012F47F4F05D00DF107010120FFF74EFF30
:100DB000F1E79B6AB3F5803FA3D3FFF71DFFEAE796
:100DC0000DF107020021E3E70DF107010020EDE737
:100DD00022F4FF7222F00102ACE700BF00ED00E058
:100DE000044B5A6942F010025A615A6922F0080213
:100DF0005A61704700ED00E0EFF30880EFF30981DE
:100E000001B57246FFF758FF01BD00BF002080F317
:100E10001488BFF36F8F0F4880F3088801F0E6FA5B
:100E200000200D490860BFF34F8F00F02BF8202001
:100E300080F3118809484FF40461401880F3098851
:100E4000EFF314800221084380F31488BFF36F8FFF
:100E500000F0D8F8802A002094ED00E0C0100020B7
:100E60000749D1F890200023C2F307221846934285
:100E700000DB7047C1F89830C1F8A0000133F6E7F5
:100E800000ED00E008B572B6002383F31388FFF786
:100E9000E7FF144B4FF0FF32C3F88020C3F88420E3
:100EA000C3F88820C3F88C20C3F89020C3F894209E
:100EB000C3F89820C3F89C20C3F88021C3F884218C
:100EC000C3F88821C3F88C21C3F89021C3F894217A
:100ED000C3F89821C3F89C2162B6BFF34F8FBFF3CC
:100EE0006F8F08BD00E100E0084B9B6883420BD187
:100EF000EFF3058343B1064B5A6842F080525A60C3
:100F00005A6A22F400425A6202F0D6BF780E0020DC
:100F100000ED00E015498A684FF030001044EFF30F
:100F2000098C80E8F01F202080F31288BFF36F8FB8
:100F30000F4F4FF000664A698A603E604FF07004C0
:100F4000141920680B4C2060506F0023536780F306
:100F5000118804B5104600F0F1F8BDE8044002F134
:100F6000300090E8F01F8CF309887047780E00205D
:100F700004ED00E0940D00201EF0040F0CBFEFF311
:100F80000880EFF30980816911F8021C0229FFD063
:100F900001B5724605F0CAF801BD00BF40B2002895
:100FA00007DB044A4109012300F01F00834042F897
:100FB0002130704700E100E0054B420900F01F00BE
:100FC00053F82220012303FA00F01040704700BFBD
:100FD00000E100E040B20028A8BF00F1604001F14C
:100FE0000101B8BF064B4FEA4111ACBF00F56140AB
:100FF00000F00F00C9B2B4BF195480F80013704755
:1010000014ED00E00B4A08B50B4B22F07F029A600A
:10101000BFF34F8FBFF36F8FD3F8882022F4700295
:10102000C3F8882002F058FA03F056F800F05CF894
:1010300002F096FA0000000000ED00E042F8203CCB
:10104000009B42F81C3C0A49019B42F8183C029B59
:1010500042F8143C21F001014FF0807342F8043C47
:1010600042F8081C0023203A02654367704700BF1E
:1010700099060000094A0346906870B113F1160FF3
:10108000006E05D0A0F140029A4205D8834203D2F7
:10109000814228BF0020704700207047780E002052
:1010A00008B51546094A0A4B9060026F1A600E4651
:1010B00000F044F82C4686F309880020054B984739
:1010C0002046002100220023034C2047780E0020F8
:1010D000940D00205561000099060000014B10227C
:1010E0001A61704700ED00E0044800232021C21877
:1010F0000133302B82F80013F9D1704700E100E092
:1011000008B5EFF30583064A103B02EBC30152F822
:10111000330049688847BDE80840FFF709BD00BFB4
:10112000146F0000024B034A0348012100F076B817
:101130000000042000000020E4730000026E054B54
:10114000403A1A60044A4021C3E9011218460121BD
:1011500000F06EB8980D002000000B15084AC2F888
:1011600098000B6823F01F03034343F01003C2F8F9
:101170009C308B6843F00103C2F8A030704700BF79
:1011800000ED00E02DE9F043DFF8608085B00E4609
:101190001F4604464FF00009B14523DA6068D8B114
:1011A0003FB1411E08421BD11F2819D9236819429B
:1011B00016D12368019304F0F0FFA368034303935F
:1011C000D8F89050C5F30725D0B2013DA84207D802
:1011D00001A9FFF7C3FF421C09F101090C34DBE749
:1011E0006FF01502104605B0BDE8F08300ED00E099
:1011F000044B0522C3F89420BFF34F8FBFF36F8FCA
:10120000704700BF00ED00E0BFF35F8F024B00228C
:10121000C3F89420704700BF00ED00E010B5034C08
:1012200001232278FFF7AEFF207010BDA41000202C
:1012300008B50B4A00231278FFF7A4FF10F1160F30
:1012400007D0084A0021D2F89030C3F30723984210
:1012500000DB08BDC2F89800C2F8A0100130F2E728
:10126000A410002000ED00E02DE9F043534B544C56
:10127000D3F890302568C3F307239D4285B000F270
:101280009A80FFF7C1FF00200C2685421AD14D4CF1
:101290004D4F25706846FFF727FBDFF82081DFF808
:1012A0002C9106460025AE4213D1237843490020F5
:1012B000D1F89020C2F30722934276DBFFF798FF24
:1012C000002042E0616806FB0011FFF747FF013094
:1012D000DBE7009800EB05114FEA051CCB683B40AB
:1012E000B3F5000F48D00AD8B3F5001F30D0B3F5DE
:1012F000800F36D0B3F5801F10D00135D3E7B3F19E
:10130000807F42D0B3F1007FF7D150F80C3088686D
:101310004A6804F042FF40F4802009E050F80C30A5
:1013200088684A6804F039FF40F0885040F4302063
:10133000CDE901230390D8F890302078C3F3072338
:10134000013B98422AD96FF0150005B0BDE8F08343
:1013500050F80C3088684A6804F01FFF40EA090022
:10136000E6E750F80C3088684A6804F016FF40F051
:10137000E06040F40030DBE750F80C3088684A68E1
:1013800004F00BFF40F08270D2E750F80C30886810
:101390004A6804F002FF40F08870C9E701A9FFF72E
:1013A000DDFE237801332370A7E7C1F89830C1F838
:1013B000A00001337CE74FF0FF30C6E700ED00E00E
:1013C000F0730000A41000200000F0FF00000811DE
:1013D00008B5024B1B689847002008BDA40D0020EB
:1013E000034B044A1860937843F0020393707047EC
:1013F000A40D0020E404002008B50649064821F0A9
:101400000701C1F1005202F5802204F064FD0020C2
:1014100008BD00BFC73A0020A80D002003484FF0C8
:10142000FF324FF0FF3302F067B900BFF404002031
:10143000014802F0D9B900BFF404002038B50546D0
:10144000FFF7ECFF08482A46082104F0DCFC0446BC
:1014500028B925B105F0EAFC044B0C221A50FFF71D
:10146000E7FF204638BD00BFA80D00200C0000009B
:101470000E4A0123C2F840354FF080424FF08051B0
:10148000C2F87835D1F83001082808D1D1F83411E4
:10149000052904D80648415C09B1C2F838364FF036
:1014A00080430122C3F880250020704700E00140FE
:1014B0007377000020B1034B800143F0010318470C
:1014C000704700BF2071000070B50D460649411AF3
:1014D000044649110548402204F07DFE2B46014692
:1014E0002046BDE870401847C80D0020B06E0000CF
:1014F00037B50C460A490B4A411A4023009349115B
:1015000005462346084804F092FE011E05DA2846E7
:10151000234603B0BDE83040184703B030BD00BFDC
:10152000C80D002099620000B06E000010B5EFF306
:101530001184202383F31288BFF36F8F074A136847
:1015400023F00201DB07116002D4012005F02BF823
:1015500084F31188BFF36F8F10BD00BF200E0020F1
:10156000002270B5012104461046FFF733FD0F48F5
:1015700001F0C6F80E4B984215D101F0D1F826695A
:101580000C49304604F042FD00280BDB0125B56410
:101590002469084904F1200004F038FD002801DB2B
:1015A0006565002070BD6FF00400FBE7B116000018
:1015B0000000AD0B107400001FB500220123CDE91F
:1015C0000223094ACDF800D06B46CDF804D004F0D0
:1015D0005CFE002805DB4FF480420023684602F0E1
:1015E00087F905B05DF804FBB162000030B4104B20
:1015F0000C2202FB003301460020D3E9105218648C
:10160000EFF31180202484F31288BFF36F8F9C6C5A
:1016100004F0C00444F002049C6480F31188BFF31A
:101620006F8F1DB12B46034830BC184730BC704744
:10163000C80D0020B06E000010B4EFF3118220231B
:1016400083F31288BFF36F8F1748016841F00204DB
:101650000460C80707D482F31188BFF36F8F01209D
:1016600010BC01F06FB84FF08041D1F80C04D1F8F4
:101670000C14C907EFD5EFF3118083F31288BFF381
:101680006F8F0A498B6C03F0C00343F002038B6435
:1016900080F31188BFF36F8F82F31188BFF36F8FD0
:1016A000002010BCFFF7A2BF200E0020C80D0020B4
:1016B00010B1012804D07047034B9B6C5B0701D12C
:1016C000FFF794BF704700BFC80D00202DE9F0411F
:1016D0003849BFF35B8F0746012251E8003F41E8DC
:1016E00000200028F9D1BFF35B8F33B9324933486A
:1016F0004B60CB608A6004F09CFC7B1E012B2BD8D6
:10170000012F07D14FF08043D3F81C3403F00303BB
:10171000012B21D005F0E7F80546F8B9284B1B78D6
:10172000E3B14FF080430222C3F808230646DFF8F6
:1017300094804FF08044D4F81824D4F81834D2039D
:1017400015D503F00303012B01D0012F0FD155B3A1
:1017500086F31188BFF36F8FBDE8F081EFF3118638
:10176000202383F31288BFF36F8F0125DFE7ADB12C
:10177000304604F003FDD4F81835002BDBD1D4F843
:101780000421002AD7D0C4F80431D4F8043101234D
:10179000C4F81835C8F88031A360CCE700212120B7
:1017A00005F011F9E7E74FF080430222C3F8042364
:1017B000D2E700BFC40D0020B40D0020E80D0020CA
:1017C000A710002000E100E008B5074804F0D8FFAA
:1017D00038B10648FFF704FE0448FEF73FFF00203B
:1017E00008BD6FF01200FBE7EC6E0000F11700007F
:1017F0000A2838B5074D044604D1AB680D215B6853
:1018000028469847AB6803485B68E1B29847204692
:1018100038BD00BFEC6E0000F0B54068057B01F0FC
:101820001F0444EA4514056987B0002D64D0B2F561
:10183000001F00F1100506D12146284604F033FFB1
:10184000002007B0F0BD01AE0027B2F5800F019770
:10185000776039D1B3F1007F14BF052304238DF8DD
:1018600004300023CDE904630393836823FA01F174
:1018700011F001011AD1B2F1A07F17D104F01F03BA
:10188000620903F5E0732AD0012A3BD11F4A52F8BE
:101890002330DB070AD40DF10306324621462846E1
:1018A00001F038FA1A4B98421CD0029603AA21463E
:1018B000284601F0F1F8174B984220D10122214629
:1018C000284601F08BFABBE7B3F1C06F05D0B3F146
:1018D000007F14BF01230223C1E70323BFE74FF0BA
:1018E000A042D4E73146284601F072FA094B9842EB
:1018F000DBD06FF00B00A4E76FF08500A1E76FF07D
:1019000015009EE751F82330FFDE00BF00030050B2
:101910000400AD0B0000AD0B38B545682B69B3B1C1
:101920001035284601F044FA044680B9014628469D
:1019300001F00AFA084B98420BD108492246284682
:1019400001F0E2F9224605210620FFF743FB0020C3
:1019500038BD6FF00400FBE70000AD0B611900001B
:10196000420970B5034602D0012A17D070BD0D4E52
:10197000326951680029F9D003F01F0301250C6872
:101980009D400029F2D08A682A4002D04B68304638
:1019900098472CB1236821461C46F2E7024EE7E740
:1019A0002346F8E7D86E0000C46E00002DE9F0432E
:1019B000466840F20635D006337B87B002EA05055B
:1019C00054BFC2F34010032001F01F07B5F5837F19
:1019D000144647EA43178DF8030045D00FD8062D6B
:1019E00018D007D8B5B1022D40D06FF0150007B060
:1019F000BDE8F083B5F5807FF7D101250AE040F21C
:101A00000222954234D0B5F5407F33D0B5F5007F42
:101A1000EBD102250123220303FA01F12CD57368CF
:101A2000C3F80815326982BB07F01F037F0929D06C
:101A3000012F77D13E4A02EB830284F48033D2F83F
:101A40000017C3F30043C4F3404444EA430421F4C1
:101A5000E16144EA800421F0070144EA05230B43D5
:101A6000C2F800370020C2E70725D3E70425D1E7F5
:101A70000525CFE70325CDE7630344BF7368C3F8AB
:101A80000C15CFE74FF0A042D5E710360DF102025A
:101A90003946304601F03EF914F4403F80460CD1FF
:101AA0003946304604F0FDFD224B9845DAD19DF8C9
:101AB0000210304601F086F9D4E701AB4FF000097F
:101AC00003AA39463046CDE90439CDE90199CDF86C
:101AD0000C9000F0E1FF174B984286D114F40033CC
:101AE00015D09DF803308DF80E3084F48034C4F3A3
:101AF00000444B4603AA394630468DF80C508DF809
:101B00000D4001F083F80B4B9842CDD06DE7CDE945
:101B1000043303AA0DF1030339463046039300F062
:101B2000BBFFF0E703F5E07352F82330FFDE00BFA0
:101B3000000300500000AD0B036803F01F025B09B7
:101B4000026004D0012B034818BF002070474FF0FB
:101B5000A0407047000300502DE9F04FDFF894914A
:101B6000DFF894A185B01546834600EB810140F271
:101B7000FF18594503D1002005B0BDE8F08FDBF810
:101B800000305E04C3F3C322C3F3080400F1AC8049
:101B90001B0E19F80270444508BF4FF0FF34222B8A
:101BA00000F2A580DFE803F012191F22252B22A3E3
:101BB000A3A3A33B68A3A3A3A3A3A3A3A3A36B81F2
:101BC0008487A3A3A38A9194979A9D00C5F80C4596
:101BD000601C5ED10BF1040BCBE7C5F81445621C09
:101BE000F8D000265FE0C5F80845F1E7C5F81045D4
:101BF000F5E7631CC5F80845ECD0002604E0661C38
:101C0000C5F80C45E6D0012603A80394FFF794FF1E
:101C1000039B012202FA03F3C0F80C3508E0C5F873
:101C20000845002FDBD1631CD4D00026324606279E
:101C3000DBF80030019303F40040002818BF0022B5
:101C400003A8009218BF01260394FFF775FF039CB9
:101C5000019B009A00EB8400C3F3412CD0F80047AD
:101C60003B0243EA8C03134304EA0A04234343EA96
:101C70004603C0F80037ADE7C5F80C45D1E7C5F815
:101C80006045601CDBF80030A4D0C3F30043002B98
:101C9000B9D003A80394FFF74FFF039B012606FA70
:101CA00003F3C0F808353246C2E7C5F86445E8E7F3
:101CB000C5F86845E5E7C5F86C45E2E7C5F8244591
:101CC000621C87D000220126B2E7C5F828457FE7CD
:101CD000C5F83045F4E7C5F83445F1E7C5F83845AF
:101CE000EEE7C5F83C4573E76FF0150044E76FF089
:101CF000850041E7A4770000F0F8FCFF036803F0DB
:101D00001F025B09026004D0012B034818BF0020AA
:101D100070474FF0A04070470003005073B5044671
:101D2000002201211C20FFF755F960682369244A2D
:101D300000F1080101F02CFA224B98423CD1656871
:101D4000AE6B01AA0021304604F00AFB002805DB37
:101D5000019B326819791868FFF7FEFE00263146AC
:101D60002B6801F5AC7253F82230002B0EDB01A872
:101D70000193FFF7C3FF019AD0F80435D34013F065
:101D800001031CBF01238B403343DEB20131042920
:101D9000E6D1002301206268916A00FA03F2324220
:101DA0000CBF01220022D20321F813200133042B9F
:101DB000F1D1002002B070BD6FF00F00FAE700BF54
:101DC000876300000000AD0B2DE9F0410446476831
:101DD0000D4604F088FD4FF0200888B9264B1B788B
:101DE00073B16426606804F087FBF0B9012004F049
:101DF000CCFB013EF6D10021212004F0E4FDF0E708
:101E0000EFF31186314688F31288BFF36F8F606855
:101E100004F072FBA8B986F31188BFF36F8FEFE768
:101E200086F31188BFF36F8FE5E7EFF31186314634
:101E300088F31288BFF36F8F606804F05DFB0028A1
:101E4000EED0BB691D706368BA691B680020C3F8D7
:101E500044250122C3F84825C3F82001D3F82041C6
:101E6000C3F85801D3F858019A6081F31188BFF381
:101E70006F8FBDE8F08100BFA7100020F7B50546C1
:101E8000002201210220FFF7A5F80220FFF786F8C3
:101E90006A6811681369C1F82435137D507D927DFD
:101EA00003431343C1F86C356E68D6E9004313F061
:101EB000010348D02F6907F1080004F072FB304B92
:101EC00098425AD1387A04F10C0204F5907104F06A
:101ED0005EFB387A012707FA00F000F0A9FB08231F
:101EE000C4F80035B369C4F844350023C4F8483554
:101EF000A760D4F85831002BFBD00021C4F800159E
:101F00006B68DC6801AA204604F02AFA002805DB89
:101F1000019B226819791868FFF71EFE6A6813682A
:101F20000821C3F80015117A51B9D269C3F83425D4
:101F30000122C3F83825C3F81011D3F810111A6024
:101F4000002003B0F0BD0822C4F80025B269C4F82F
:101F50004425C4F848350123A360D4F82031002B70
:101F6000FBD00023C4F82031D4F820310123E360F2
:101F70004FF48073C4F80433BBE76FF00400E0E76C
:101F80000000AD0B70B5012383400E4ABFF35B8F99
:101F9000DC4352E8001F01EA040542E80056002E27
:101FA000F7D1BFF35B8F4FF4803282400648C0F810
:101FB0000823BFF35F8FBFF36F8F0B4214BF012065
:101FC000002070BD540E00200010014070B40E4976
:101FD000D1E90034D01AC31844F1000422F07F463E
:101FE000C1E90034A6F50013B3F5400F09D2074B41
:101FF0001B681A0A1B069C19054B42F10005C3E930
:10200000004570BC02F028B980060020580E002060
:102010008806002011B3BFF35B8F0123104A834071
:1020200052E800CF4CEA030C42E800C10029F7D186
:10203000BFF35B8F0B4A4FF480338340C2F8043305
:10204000094BBFF35B8F1B68BFF35B8FC340DB079C
:1020500042BF064B4FF40032C3F80021704700BF67
:10206000540E002000100140500E002000E100E05E
:102070000D4B1868010A0006BFF35F8F0B4BD3F8B6
:102080000435181841F10001B3F5801F0AD2084B3E
:10209000D3E90023904271EB030303D210F1807067
:1020A00041F10001704700BF580E002000100140B0
:1020B000880600202DE9F04F85B016461F469DF892
:1020C00040A00446FFF75EFF0190FFF7D1FFB0424A
:1020D00071EB070354D23E4B301A67EB0101984273
:1020E00071F100014FD23B4B03EB0413D3E9022300
:1020F0009F4208BF96425ED037494FF4803804F1C2
:10210000500508FA04F8AD00C1F848832046ADB286
:1021100004F023FA26F07F4B05F1804504F5A873FF
:1021200005F58835DC464FF003090293029A2CF03E
:102130007F4341F82230C1F84483D1F80435274A5F
:102140006FF00200C01A604420F07F40904232D904
:10215000286868B1D1F804350393A3EB0B0020F095
:102160007F40B0F5000F26D9204604F0F6F9039B16
:10217000BAF1000F07D109EB030C09F10109D5E70A
:10218000BAF1000F09D06FF0150520460199FFF74D
:1021900041FF284605B0BDE8F08F0123104ABFF388
:1021A0005B8FA34052E8000F184342E8000100296A
:1021B000F8D1BFF35B8F07490E98230101EB04129E
:1021C000C8500F9B5360C2E902670025DDE700BFDE
:1021D000010080007006002000100140FDFF7F001C
:1021E000500E00207FB51C4C1C4BC4F80833C4F8BB
:1021F00048331B4B00254FF0FF304FF0FF31C4F840
:102200000855C3E902014FF48033C4F80433154B79
:1022100002264FF400320121C4F804631120C3F8F0
:1022200080212A46FEF7D6FE1120FEF7B7FE0E4AA1
:102230000123A360236013600C4B0D4A0093CDE98A
:10224000015500232846FFF735FF3046FFF73EFAD9
:10225000284604B070BD00BF0010014003000F000D
:102260007006002000E100E0540E0020CD1F0000A9
:10227000FFFF7F002DE9F7432F4CD4F80433990773
:102280000BD5D4F8043143B12C4A0023C4F80431EF
:10229000D4F80431136801331360D4F80433DA033B
:1022A00029D5BFF35B8F264B53E8002F22F00101A5
:1022B00043E800100028F7D1BFF35B8FD30702D4A7
:1022C000D4F84031BBB10025C4F84051D4F84031B6
:1022D000FFF7CEFEEFF31182202383F31288BFF3C2
:1022E0006F8F184BD3E90267B042B94106D282F32F
:1022F0001188BFF36F8F03B0BDE8F0834FF0FF3854
:102300004FF0FF39C3E90289D3E900101D604FF493
:102310008033C4F84833C4F84051D4F8403182F3D4
:102320001188BFF36F8F0029E5D0009032463B46FD
:1023300028468847DFE700BF00100140580E002004
:10234000500E00207006002030B5431C124C85B0A2
:1023500005D08442A8BF0446012CB8BF0124FFF772
:1023600087FE0E4B0C4DD3E90013401AB0F5000F59
:1023700010D22218AA4228BF2A4652184FF0000055
:1023800007490091CDE9010043F10003FFF792FEF8
:1023900005B030BD2A46F0E7FFFF7F008006002031
:1023A000CD1F000008B5FFF763FE024B1B68C01A83
:1023B00008BD00BF800600204FF08053D3F83021C5
:1023C000082A06D1D3F83431052B02D8024AD05C52
:1023D00070470020704700BFCD770000024AD2F856
:1023E0000034002BFBD0704700E0014010B54FF0E7
:1023F0008053D3F83021082A4ED14FF0804200217B
:10240000C2F80C11C2F81011C2F8381502F540429A
:10241000D3F80414C2F82015D3F80814C2F8241510
:10242000D3F80C14C2F82815D3F81014C2F82C15E0
:10243000D3F81414C2F83015D3F81814C2F83415B0
:10244000D3F81C14C2F84015D3F82014C2F8441570
:10245000D3F82414C2F84815D3F82814C2F84C1540
:10246000D3F82C14C2F85015D3F83014C2F8541510
:10247000D3F83414C2F86015D3F83814C2F86415D0
:10248000D3F83C14C2F86815D3F84014C2F86C15A0
:10249000D3F84434C2F87035FFF78EFF18B13A4BC9
:1024A0003A4AC3F88C26FFF787FF18B1384BFB2256
:1024B000C3F81825FFF780FF70B14FF080414FF04F
:1024C0008053D1F8E42ED3F8583222F00F0203F0F3
:1024D0000F031343C1F8E43EFFF76EFF20B12D4B0D
:1024E0004FF40072C3F840264FF08053D3F83031D8
:1024F000082B1AD14FF08043D3F80024D20744BFF1
:102500006FF00102C3F800244FF08053D3F8343148
:10251000052B02D8204AD35C3BB14FF01023D3F8EF
:1025200008224FF08043C3F858254FF01023D3F80A
:102530000022002A03DBD3F80432002B22DA1749E9
:1025400001234FF01020C1F804351224FFF746FF95
:10255000C0F80042FFF742FFC0F80442FFF73EFF19
:102560000023C1F80435FFF739FFBFF34F8F0C4943
:102570000C4BCA6802F4E0621343CB60BFF34F8F89
:1025800000BFFDE710BD00BF0050004048810300C0
:1025900000F0004000900240C777000000E00140DA
:1025A00000ED00E00400FA0530B50468CCB1BFF3DB
:1025B0005B8FB4FA84F3C3F11F03DBB201229A40AC
:1025C00024EA020250E8005FA54204D140E8002C52
:1025D000BCF1000FF6D1BFF35B8FE6D102480B7060
:1025E00030BD0248FCE700BF0000AD0B0200AD0BA0
:1025F00010B50368CB40DB0714D401238B4002687D
:10260000BFF35B8F43EA020150E8004F944204D1CC
:1026100040E8001CBCF1000FF6D1BFF35B8FEED198
:10262000014810BD0148FCE70000AD0B0400AD0BF4
:10263000014BC3F80405704700F00140F7B50546AB
:10264000F8B101281BD104224FF4807301464FF0EA
:10265000804003440244C0F80813002601211160A1
:102660001E608D421B688DF8071008BF0DF107062C
:1026700042F210744FF0804745B1012D28D003B0CD
:10268000F0BD0C224FF482730221E0E7D7F8183432
:1026900003F480333EB9002BF1D0012003F075FF25
:1026A000013CF3D1EBE7D7F8182402F003023260C3
:1026B000002BE4D09DF80700012803D103F065FF4B
:1026C000013CD9D1012DDAD10C4B00225A71D6E749
:1026D000D7F80C3403F480333EB9002BF4D001203A
:1026E00003F053FF013CF3D1EEE7D7F80C2402F0DE
:1026F00001023270002BDDD1E6E700BF5C0E002046
:10270000044B1A7922B9012218609A800248704756
:10271000024870475C0E00200000AD0B0C00AD0BB2
:1027200008B5074B1B682BB10020FEF745FC08B924
:10273000FEF734FC4FF080430022C3F8182508BD93
:102740005C0E002010B510B1012843D010BD4FF031
:102750008043D3F81814D3F81824C80321D502F005
:102760000303012B04D013B10020FFF767FF002300
:102770004FF080420220C2F8183508224FF48273CD
:1027800003F180430021196002F180421C6801249A
:102790001460154A12680AB34FF08043C3F804036B
:1027A000D4E7D3F81424D107E1D5D3F81C24920739
:1027B000DAD40D4A12681AB10222C3F80423C5E71D
:1027C000D3F80421002AFBD00022C3F80421D3F857
:1027D0000431BBE700224FF48073D1E71A68002A66
:1027E000FCD019601B68B1E75C0E0020F8B54FF013
:1027F00080431C4ED3F804430125002704B9F8BDDB
:10280000B4FA84F0C0F11F00830003F580739BB21B
:1028100003F1804305FA00F2196892B224EA020437
:102820000029EBD01F601B684FF08043012AC3F8DA
:10283000082305D0022A08D03368C0B29847DDE7E4
:102840007379002BDAD17271F6E7D3F81814D3F844
:1028500018148907F0D1C3F81855C3F804239D60F4
:10286000CCE700BF5C0E0020036803F01F025B0989
:10287000026004D0012B034818BF002070474FF0BE
:10288000A040704700030050034A430900F01F00B6
:10289000D35C1844C0B27047D377000070B50546CA
:1028A000FFF7F2FF0C4C08300E4634F81030DA0512
:1028B00008D5C3F3432304EBC302284654F833304E
:1028C00052689847A3682BB1E26831462846BDE8B4
:1028D0007040184770BD00BF0805002008B5FFF71D
:1028E000D3FF034B083033F81000400B08BD00BF86
:1028F0000805002008B5FFF7C7FF034B083033F881
:102900001000C0F3400008BD0805002008B5FFF71F
:10291000BBFF034B083033F81000C0F3401008BD74
:1029200008050020034611F0010010B5CCB20DD10E
:10293000A207C4F3400012D5094AD2F82005586016
:10294000C2F82005003818BF012008E04FF0A04170
:10295000D1F820251A60C1F82025002AE8D010BD42
:102960000003005010B5FFF78FFF124A083032F80D
:102970001030D9051CD5C3F3432123F4F85322F8B2
:10298000103002F10E04002034F8023F13F4807F6F
:1029900003D0C3F3432399420AD001303028F3D146
:1029A000002342F831300448BDE81040FFF720BE54
:1029B00010BD00BF0805002080050020F0B50546C9
:1029C00000200446012607468C420BD1114BD3F858
:1029D0007C2132B10022C3F87C21D3F87C3140F055
:1029E0000040F0BDE3B29B0003F580729B0806FA3D
:1029F00003F31D420BD002F1804202F5C042D2F82F
:102A000000C0BCF1000F02D01760126818430134F7
:102A1000DAE700BF00600040F7B506460846FFF75A
:102A200033FF194F00F108050C4637F81530DB0766
:102A300027D5304603F011FE2046FFF767FF40B16F
:102A40002046FFF74BFF316800F5A270002341F8E4
:102A500020302046FFF786FF002301A827F8153015
:102A60000194FFF701FF019B00EB8300074BD0F8B7
:102A70000027134043F00203C0F80037044803B0B6
:102A8000F0BD0448FBE700BF08050020F0F8FCFF9C
:102A90000000AD0B0400AD0B2DE9FF41164680464A
:102AA0000846FFF7F1FE0D463168044609B3284693
:102AB000FFF720FF18B12846FFF728FF10BB0023BF
:102AC000CDE900338DF80E308DF80F300DF10F0287
:102AD0000B4628460DF10E0103F067FD474A04F14D
:102AE000080132F8113023F0020343F0010322F809
:102AF0001130736863B328461F785968FFF7FAFEF0
:102B000010B1D1B13E4826E03C4A04F1080032F849
:102B1000103023F02003DB04DB0C22F8103061B10D
:102B2000032FEFD87168496891F800C0D8F80010F9
:102B3000A7B90CF5A27C41F82C70304A04F10801C9
:102B400032F8113023F01C0343EA870322F81130D6
:102B5000B3684BBB2B4804B0BDE8F08101EB8C019E
:102B600043EA4C33D1F810E52EF0030EC1F810E51E
:102B7000D8F8001001EB8C0E43F02003DEF810159E
:102B800022F8103021F44F3121F44071CEF81015A5
:102B90002902DEF8108501F47C5141EA074141EA3F
:102BA0000801CEF81015C8E7D3E900672846FFF7FB
:102BB000D9FE002ECED0114DD5E90023964203D187
:102BC0009F4201D1002209E00F480DF10F01FFF7EC
:102BD000EBFC0C4B9842BED19DF80F2045F83260BB
:102BE00005EBC20308345F6035F8143043EA422332
:102BF00043F4807325F81430ACE700BF08050020CB
:102C00000400AD0B0000AD0B800500202DE9F04362
:102C10000C4685B08046204611461E46FFF734FE1E
:102C2000054629B32046FFF765FE18B92046FFF791
:102C30006DFE18BB314F05F1080937F8193013F054
:102C40001C0F02D04B78012B18D001238DF80F30C8
:102C50000023CDE900134A1C8B1C20460DF10F0107
:102C600003F0A3FC37F8193043F0030327F81930B9
:102C7000002E41D02046FFF73DFE18B9204805B090
:102C8000BDE8F08396F800C0D8F800301B4F0CF573
:102C9000A272002143F8221005F1080237F8121041
:102CA00021F02001C904C90C27F8121075781DB352
:102CB000D8F80000B67800EB8C002D04D0F8103561
:102CC00023F4991323F4F853C0F81035230203F4C6
:102CD0007C5305F440353605D0F810E52B4306F457
:102CE000801641EA4C31334341F0200143EA0E03A0
:102CF00027F81210C0F810350248C0E70805002078
:102D00000400AD0B0000AD0B014BC3E9021270478C
:102D10000805002010B508461446FFF7F7FD50B12E
:102D20000846FFF7B1FD054B083033F81030044872
:102D30005B0B237010BD0348FCE700BF08050020B3
:102D40000000AD0B0400AD0B70B5164D95F880403A
:102D500006462CBB2146602205F1100003F0A1FEBF
:102D600030682E6F21468E420ED10023C0F87C3190
:102D7000D0F87C3140F30730FEF710F901230A4800
:102D800085F88030AB6770BDCBB29B0003F58072D5
:102D90007C2B08BF845001F1010108BF8358E2E792
:102DA0000248F0E7080500200000AD0B0C00AD0B59
:102DB000034B93F88000003818BF0120704700BF14
:102DC000080500200148FFF713BC00BF7C05002068
:102DD0000148FFF7E9BB00BF7C05002073B503681D
:102DE0001646D3F80423002AA8BF4FF00042054638
:102DF000A8BFC3F8042308460C46FFF787FD00B3BD
:102E00000846FFF777FD0146D8B92046FFF766FD73
:102E100004B2A40004F58072034628688150296832
:102E200082582144D1F8102542F00102C1F8102542
:102E30002EB12968012202FA03F3C1F8043302B06B
:102E400070BD2046FFF720FD0F4B083033F81030DF
:102E5000C3F38203042B12D0052B12D001A80194D6
:102E6000FFF702FD019AD0F81035D34003F00103BB
:102E7000991C204602B0BDE8704003F0DFBB03217F
:102E8000F7E70221F5E700BF080500202DE9F04F24
:102E9000694BDFF8A881D3F80403D8F87010C0B2EA
:102EA00089B040F00040FFF789FD051E2FDAC246C9
:102EB00000235AF87C1F06A8CDE90633FFF732FD40
:102EC0005F4B01930DF118094FF0000B019A12F8B6
:102ED000013B0192DA0803F007031AF8022022FAF4
:102EE00003F3DA071CD409F10409BBF1000F14D075
:102EF000D8F870104FF00040FFF760FDD8F87C1054
:102F000006A8FFF70FFD0028DAD125F000450124BF
:102F1000002D79D109B0BDE8F08F4FF0010BD5E756
:102F2000484B5B440293D9F800100029DBD0029B88
:102F300091FAA1F11C78B1FA81F141EA44142046DA
:102F4000FFF7A2FC0830059438F81070C808BB08D9
:102F500019F80020039301F00701012303FA01F19E
:102F600022EA010209F8002005A8FFF77DFC059A76
:102F7000039B02F5E072C7F3820650F822205B073C
:102F80003746C2F3014224D520463946D6B2FFF770
:102F900085FC05A80594FFF767FC059B03F5E07326
:102FA00050F82330C3F301439E4207D1002120464D
:102FB00003F044FB3146204603F040FB05A805948E
:102FC000FFF752FC059B012202FA03F3C0F82035FB
:102FD000A9E7022A0CD10321204603F02FFB06F0BB
:102FE0000503012BEAD139462046FFF757FCE5E7F8
:102FF00002212046039203F021FB032EF3D0039A13
:10300000032ADBD1022EEDE795FAA5F3B3FA83F399
:1030100004FA03F29B0003F1804303F5C04325EA61
:103020000205D3F81005D3F81015C0F30520C1F33D
:103030000141FFF733FC6BE700600040080500200A
:10304000E3770000E377000001460148FFF7ACBAE0
:103050008C050020036803F01F025B09026004D0A6
:10306000012B034818BF002070474FF0A040704765
:103070000003005070B505790A4C14236B43E61821
:10308000E35833B90068022103F044FB08B101237F
:103090003372142303FB0544207A023818BF012041
:1030A00070BD00BF640E00202DE9F3470B7F04467E
:1030B0006BBBDFF8D8900D1F01F1100601F10C0871
:1030C000012755F804AFBAF1FF3F1CD03378CDF893
:1030D00004A001A8002B50D0FFF7BCFF019B07FA0A
:1030E00003F3C0F8083501A8CDF804A0FFF7B2FF3C
:1030F000019B00EB8300D0F8003703EA090343F09B
:103100000303C0F80037A84506F10106D9D191F8AC
:103110001DC00D8B4F7D8E7D8A7EC87E2368BCF1DD
:10312000000F0BD1D1E9008ED1E902C1C3F860854F
:10313000C3F864E5C3F868C5C3F86C1542EA002219
:10314000C3F80C75C3F80465C3F80855C3F8102517
:1031500020680023C0F81031D0F81021C0F80831E1
:10316000D0F80821C0F80C31D0F80C3140F307300A
:1031700002B0BDE8F047FDF711BFFFF76BFF019B01
:1031800007FA03F3C0F80C35ADE700BFF0F8FCFF19
:103190002DE9F04190F804800D4C142606FB08F64A
:1031A000A71997F808C0BCF1000F0ED1A2517B609F
:1031B00019B10B7F3B74FFF777FF142303FB08441F
:1031C000044801232372BDE8F0810348FBE700BFF8
:1031D000640E00200000AD0B0C00AD0B70B40C466B
:1031E0000179266815461A461A4B01EB810103EB5B
:1031F00081010368C3F82065A688C3F82465A66822
:10320000C3F82865E668C3F82C6503682668C3F828
:103210004065A688C3F84465A668C3F84865E468B5
:10322000C3F84C45046805F0010303EB5505C4F8E9
:103230001455D4070CD412F0020403D0002B14BF91
:10324000082404240568C5F8004270BC03F02DBAB8
:103250001024F7E7640E002038B5036805790022D2
:10326000C3F800220368012204465A6071B1204667
:10327000FFF700FF0028FAD023680022C3F80025DA
:10328000054B142202FB053301221A722046BDE8C9
:103290003840FFF7EFBE00BF640E002010B5B2212A
:1032A0001A4803F037FAC106044608D5184BDA6805
:1032B000520704D51A6812B1596801209047A00638
:1032C00008D5134BDA68110704D51A6812B159688A
:1032D00002209047220608D50D4BD86810F0100048
:1032E00003D11A680AB159689047A3070DD5074B57
:1032F0000022C3F80025064B01221A721A6822B177
:10330000BDE8104059680320104710BD00C00140BF
:10331000640E002008B5144BA8220021184603F0C3
:10332000C0FB0322026111494261114A8161C261FD
:103330004FF480620262002282624262C2620166CF
:103340000C4941661021816603460267C2664267E6
:10335000BFF35F8F084911F8010D98540132102A0C
:10336000F9D1BFF35F8F08BD10040020E57700009E
:103370001000002000000020FE77000010B4BFF312
:103380005F8F0B4A0B490023C85C12F8014D844241
:1033900009D10133102BF7D10023BFF35F8F23B185
:1033A00010BCFFF7B7BF0123F7E710BC704700BFA1
:1033B000FE7700001004002038B5EFF311852023BC
:1033C00083F31288BFF36F8F064B9C6803F0EBF911
:1033D00085F31188BFF36F8F2046BDE83840FDF7B5
:1033E00083BD00BF780E002038B5094B53F820404C
:1033F000013053F82050A54200D838BD636823B18E
:10340000204603F0D3F90834F5E723689847FAE734
:10341000F874000070B52B4B2B4C2C4D012286B05C
:1034200003201A70FFF7E0FFFDF764FA03F0DAF902
:103430000420FFF7D9FF2646AE4204F1300410D332
:1034400000F03AFC204C224EAC4226D300F048FC5F
:10345000FDF70CF81F4A137B23F00103137306B02A
:1034600070BD54F80C3C059354F8103C049354F888
:10347000143C039354F8183C029354F81C3C0193F9
:1034800054F8203C009354E90A2354E90C0100F05D
:1034900055FA54F8303C5E65CDE7D4E90A23B3F120
:1034A000FF3F08BFB2F1FF3F05D052EA0301206899
:1034B00003D100F0D5FC3034C6E73146183000F0B7
:1034C00055FEF8E7A71000209470000094700000EB
:1034D000BF6900001007002008B50348034A002117
:1034E000121A03F07BF908BD70060020AC10002012
:1034F00070B5002386B00122CDE90423134E144D8C
:1035000001930F22CDE902321249142303FB005527
:1035100006EBC01604464FF4C07000FB04110E4BBE
:1035200000954FF4A072304600F008FA737B0B4A06
:10353000EE6023F0040373734FF4046304FB03335E
:1035400013442C746B6006B070BD00BF9006002061
:10355000780E002000190020B3680000C010002081
:10356000BFB50020FFF740FF2D4B83F308882D4D9A
:103570002D4E6B692D4F43F400736B610024E023E3
:1035800085F82230EC772C766C76AC7685F8204086
:103590006B6A43F4E0236B6285F82340FDF720FC5F
:1035A000FDF79CFD4FF0FF33AB62EB62204DFDF762
:1035B0005BFEFDF7B7FD40F201132846AB81C5E97C
:1035C000184400F0BFFEB56003F0D9F80120FFF702
:1035D0000BFF0220174DFFF707FF00F0B5FB164B5E
:1035E00075610593012315490094CDE903434FF418
:1035F00080523B46CDE90144284600F09FF96A7BA2
:10360000064622F0040228466A7303F0ACF920460D
:10361000FFF76EFF3A4631462846FDF741FD00BFF1
:103620000019002000ED00E0780E002015340000A5
:103630009007002010070020FF770000801A00206C
:1036400038B5054C256804EB850405B938BD54F838
:103650000439013D9847F8E7E870000038B5044C9C
:10366000044DAC4200D338BD54F8043B9847F8E70A
:10367000F47000000071000038B5064C064D0020C3
:10368000AC4200D338BD204603F0B3F80028F9DB84
:103690002034F5E7020600200206002073B50C4630
:1036A000EFF31181202585F31288BFF36F8F056931
:1036B0005DB125602B680361C3690133C3610020DC
:1036C00081F31188BFF36F8F11E052EA030603D133
:1036D00025606FF00B00F3E7CDE9002302460830C8
:1036E00000F04AFA18B9034B9B685B69236002B08B
:1036F00070BD00BF780E00202DE9F3410446174647
:103700001E46EFF31188202383F31288BFF36F8FD7
:10371000C368334A7BB180689168884219D057EA00
:10372000060318D188F31188BFF36F8F6FF00F0075
:1037300002B0BDE8F081916891F90E10216101336A
:10374000E3609368A36088F31188BFF36F8F002054
:10375000EEE72169F2E791F90E1090F90E309942E7
:10376000A8BF19466FF07E029142B8BF11468B4246
:103770002DDD03F0A9F80546CDE90076194822466B
:10378000414600F0F9F90028E1D0EFF3118620233B
:1037900083F31288BFF36F8FA068D0B123682169CB
:1037A0009C420AD04BB193F90E309942A8BF1946FA
:1037B0006FF07E039942B8BF194603F085F840B117
:1037C0000848314600F052FA6FF00A00B0E70025D1
:1037D000D2E7002DF4D186F31188BFF36F8FF3E7A2
:1037E000780E0020A8100020F8B583680546002B4D
:1037F0003FD0234A926893423ED1C368012B03D93C
:10380000013BC3600020F8BDEFF31187202383F351
:103810001288BFF36F8F0169806803F055F82C6838
:10382000A54207D10023C5E9023387F31188BFF30E
:103830006F8FE7E7002CF5D0D4E9003213605A60AF
:10384000637B002623F002036373C4E90066A6606D
:1038500004F1180003F0E9F8AC6094F90E302B6124
:103860002046A66703F07FF80648394600F0FEF9C7
:10387000C8E76FF01500C6E74FF0FF30C3E700BFA1
:10388000780E0020A810002070B5EFF311862023D9
:1038900083F31288BFF36F8F0468A0421AD0CCB1B3
:1038A000D4E9003213605A60637B002523F00203E1
:1038B0006373C4E90055A56004F1180003F0B5F87E
:1038C0002046A56703F04FF831460848BDE8704030
:1038D00000F0CCB9D0E902329A4218BF01338360BC
:1038E00086F31188BFF36F8F70BD00BFA910002051
:1038F00013B5EFF31181202484F31288BFF36F8F87
:10390000846844B1013C846081F31188BFF36F8FF8
:10391000002002B010BD52EA030406D181F31188E1
:10392000BFF36F8F6FF00F00F3E7CDE9002302467E
:10393000014800F021F9ECE7A91000202DE9F0433F
:10394000073285B022F007020E461F461099017318
:1039500000F158037F32C0E916330446002322F0F9
:103960003F020421836041733F2A0F98A073C4E98A
:103970000633E37306F14009A2F1400805D883F34A
:103980001188BFF36F8F084602DFB518294620461D
:10399000FDF7AEF807300E9B20F00700A066C4E9E3
:1039A000189802930D9B01932D1A0C9B00932A46A5
:1039B0003B4631462046FDF741FB00236365044B3F
:1039C0009B6803B1DB6EE366284605B0BDE8F08373
:1039D000780E0020094A93686FF00A019967084938
:1039E00058674B6843F080534B60002383F3118882
:1039F000BFF36F8F9368986F704700BF780E0020F9
:103A000000ED00E070B590F90D20437B002A39DB12
:103A1000D90637D18269002A34D11D4C63F07F0367
:103A20002246437352F8183F93422CD1E169C0E912
:103A300000210860E06111E09942F8D01B68002B7A
:103A4000F5D090F90E5093F90E60B542F4D0AE4225
:103A5000F2DD5968C0E9003108605860A5699542F7
:103A600000D005B9E568A3685A7BD20604D1DA898B
:103A70007F2A01D9AA6942B1AB4202D0284600F0A0
:103A8000D3FA656170BDE169D9E76361FAE700BF08
:103A9000780E002038B590F90D20437B002A0146AE
:103AA00004DA03F07F03437302F023FF0D4D2A462F
:103AB000AB6852F8184F944200D004B9EC688B42BE
:103AC00007D05A7BD20604D1DA897F2A01D9A269AC
:103AD0002AB1A34202D0204600F0A6FA23466B6129
:103AE00038BD00BF780E002070B590F90D20437BE3
:103AF000002A014604DA03F07F03437302F0F9FE63
:103B00004B7B1C4C63F07F0322464B7352F8183FEB
:103B1000E069934207D1C1E900200160E16111E051
:103B20009842F8D01B68002BF5D091F90E5093F90C
:103B30000E60B542F4D0AE42F2DD5868C1E9003003
:103B400001605960A569A368954200D005B9E56890
:103B50008B4207D05A7BD20604D1DA897F2A01D959
:103B6000AA692AB1AB4202D0284600F05DFA2B4682
:103B7000636170BD780E0020F8B5124B0C461146FB
:103B8000114A98681060DDE90676EFF31182202271
:103B900082F31288BFF36F8F9D68284602F0BBFE48
:103BA000B6F1FF3F08BFB7F1FF3F06D007493A46DD
:103BB000334605F1180000F0D9FA2046BDE8F84078
:103BC000FFF708BF780E0020980E0020BF690000A4
:103BD000F8B50446EFF31186202383F31288BFF370
:103BE0006F8F437BDA0649B217D18269AAB903F015
:103BF0007F03437302F07DFE1B4D437B817363F0B3
:103C00007F032A46437352F8183F93422AD1E8694A
:103C1000C4E900200460EC6116E0A173002086F383
:103C20001188BFF36F8FF8BD8342F1D01B68002B62
:103C3000EED093F90E70B942F6D08F42F4DD596898
:103C4000C4E900310C605C60AC69944200D004B9F6
:103C5000EC68AB689C4202D0204600F0E5F96C614C
:103C60000120DCE7E869E2E7780E002049B9EFF3CC
:103C7000058030B9054B5A699B689A4201D0FFF71D
:103C8000A9BE81F31188BFF36F8F7047780E0020B3
:103C9000034648B9EFF3058232B9064A5169926882
:103CA000914201D0FFF796BE83F31188BFF36F8F67
:103CB000704700BF780E0020EFF31181202383F3BB
:103CC0001288BFF36F8F054B9A68D37B013BD37388
:103CD00081F31188BFF36F8F704700BF780E00200B
:103CE00070B5EFF31186202383F31288BFF36F8F33
:103CF000144DAB68DA7B0132DA732A4652F8184F5A
:103D0000944200D004B9EC685A7BD20604D1DA8917
:103D10007F2A01D9A2692AB1A34202D0204600F02D
:103D200083F923466B6186F31188BFF36F8FEFF33E
:103D30001180202383F31288BFF36F8FBDE870409A
:103D4000FFF7A6BF780E0020024B03F11802C3E96B
:103D500006227047780E002070B5EFF311862023FD
:103D600083F31288BFF36F8F1B4CA168E0690B6867
:103D7000814214BF1A46002249680B605960A3684B
:103D8000E1692AB9154AC3E900210B60E3610CE03F
:103D900093F90E0092F90E50A84218D0854216DD14
:103DA0005168C3E900210B605360A5690B4B9D422C
:103DB00000D005B9E568A3689D4202D0284600F00E
:103DC00033F965613046BDE87040FFF703BE8A42B3
:103DD000D8D01268D5E700BF780E0020900E0020E2
:103DE00050EA01032DE9F04105460E4604D1FFF7E4
:103DF000B3FF0020BDE8F081831C71F1FF3324DBA9
:103E000002F034FE4419EFF31188202383F3128863
:103E1000BFF36F8F0F4F104BB8681860FFF73AFE73
:103E2000B8680E492A463346183000F09FF9BA6840
:103E3000537B43F0040353734046FFF7CBFD02F07E
:103E400015FE201A20EAE070D4E76FF00104241A6E
:103E5000D9E700BF780E0020980E0020BF6900004F
:103E600038B50446183002F0E0FDEFF31185202349
:103E700083F31288BFF36F8F637B5A0704D485F3F3
:103E80001188BFF36F8F38BD23F00403637320469E
:103E9000FFF7B8FDEFF30583002BF0D12946024868
:103EA000BDE83840FFF7E2BEAA100020014B986839
:103EB000704700BF780E00202DE9F8430446EFF369
:103EC0001187202383F31288BFF36F8F067B16F0D0
:103ED00001060DD087F31188BFF36F8F002383F3A2
:103EE0001188BFF36F8F0423184602DFBDE8F88303
:103EF000437B1A0704D587F31188BFF36F8FF5E76B
:103F0000D90943F0080252D14273A36813B1204685
:103F100002F0F7FC04F1180002F087FDA56D04F132
:103F20005808A84511D04FF0000975B1284602F095
:103F3000E8FC05F1180002F078FDC5F878902846F5
:103F4000FFF760FDA56DA845EFD11D4DAB689C4204
:103F500004D1EFF30586003E18BF0126D5F818807E
:103F6000184A904502D0B8F1000F01D1D5F80C8065
:103F7000434502D0404600F057F8C5F8148056B1CA
:103F8000114E40F20113B38130460023C6E91833C5
:103F900000F0D8F9AE60AB689C42ACD1EFF305837A
:103FA000002BA8D13846BDE8F843FFF713BD03F056
:103FB0007F0343F00803437302F09BFCA5E700BFB7
:103FC000780E0020900E002090070020044BC01AAD
:103FD000044BC0105843044B01221A54704700BFD1
:103FE00010080020ABAAAAAAAB100020C3897F2B1F
:103FF00012D80A4B1B6863B1094B90F90E201B685D
:104000009A4209DB437BDB0606D1064BC31A18BF75
:10401000012303F0010070470023FAE7A00E0020FF
:104020009C0E00209006002070B50E4B0E4C1E7C9E
:1040300006EB460304EBC3040546204602F0F5FCFC
:104040000A4B002228469A55FFF7D0FF48B1084B8B
:1040500008491A68013A2046D317BDE8704000F0BD
:1040600085B870BD780E002010080020AB1000202D
:10407000A00E0020CD3F000038B5EFF311852023BE
:1040800083F31288BFF36F8F104B114A9C6810683E
:10409000A04206D1FFF7C8FF85F31188BFF36F8FE9
:1040A00038BD00211B7C11600A4AD35C002BF3D081
:1040B0002046FFF79BFF0028EED0637BDB0602D192
:1040C0002046FFF711FD2046E4E700BF780E0020F0
:1040D000980E0020AB1000200748084A084908B590
:1040E000121A02F07DFB0748074A0849BDE808405C
:1040F000121A02F075BB00BFC00400206C0600203D
:104100001C780000B8040020C004002014780000CF
:10411000024B1868984208BF0020704790050020A5
:10412000034B1B680BB9FEF73DB90020704700BF79
:10413000A40E002030B570B10B4B5B6898420AD0DA
:10414000036843B1D3E90421D0E90445121941EBD6
:104150000501C3E90421D0E9003213605A6000234D
:10416000C0E9003330BD00BF90050020B3F1FF3F30
:1041700008BFB2F1FF3FF8B504461D4616465AD0B7
:104180008160EFF31187202383F31288BFF36F8FD1
:10419000013275F1FF3321DA2C49D1E900206FF0AB
:1041A00001039B1A4FF0FF3262EB00009E1B60EB95
:1041B0000500012E70F1000301DA01260020C4E998
:1041C0000460FFF7A5FF224E84467068BCF1000F23
:1041D0000DD1C4E90060046074601CE0FFF7A0FF2B
:1041E000013645F10005361845EBE070E7E7DCE9FC
:1041F0000425D4E90431934271EB050E1CDAD21A7E
:10420000DCF8043065EB0105CCE90425C4E900C302
:104210001C60CCF80440FFF77BFF844207D10D4BB4
:104220001C6824B902F0E8FB2146FEF78DF887F3FD
:104230001188BFF36F8FF8BD9B1A61EB05018445B0
:10424000C4E90431C5D0DCF800C0BFE7280800206D
:1042500090050020A40E00202DE9F047EFF3118512
:10426000202383F31288BFF36F8FDFF8A090DFF86D
:10427000A080C9F80000FFF74BFF00260027D9F8FF
:104280000030D8E900ECD91750B1D0E90442A3427C
:1042900071EB020A1ADAE41A62EB0102C0E9044285
:1042A00013EB0E034CEB01010024C8E90031C9F8FF
:1042B000004002F0A1FB2146FEF746F885F3118885
:1042C000BFF36F8FBDE8F047FFF7D6BE14EB0E02C9
:1042D0004CEBE473C0E90467C8E90023FFF72AFF49
:1042E00085F31188BFF36F8F83689847EFF31185CB
:1042F000202383F31288BFF36F8FD9F800301B1B84
:10430000C9F80030FFF704FFB9E700BFA40E002092
:104310002808002010B5EFF31184202383F31288BE
:10432000BFF36F8FFFF7FCFE054A0346D2E9000199
:10433000181841EBE37184F31188BFF36F8F10BD40
:1043400028080020014BC366704700BF0406002008
:1043500038B5064C064DAC4201D3002038BDD4E937
:104360000112204602F086FB1834F4E70406002010
:104370001C06002010B50A4C23681BB101232360E2
:10438000002010BD00F0EAF80028F7D00138062818
:1043900003D8044B53F8200010BD034810BD00BFE4
:1043A000A80E002010750000FE8FFFFFBFF34F8F97
:1043B0000549064BCA6802F4E0621343CB60BFF3C1
:1043C0004F8F00BFFDE700BF00ED00E00400FA05DD
:1043D00010B4094B09490A4C4FF0FE32C3F80024CF
:1043E0004968C3F80424C3F80824C3F80C24002344
:1043F000C4F8003510BC084700B0025098050020F2
:1044000000A00250D0E90012014BC3E9001270472E
:104410009805002010B5044650B1636813F0685F3A
:1044200005D0064A934202D000232360626010BD8B
:10443000034B04485B689847EFE700BF2C5F5CA91B
:10444000980500202C750000C8B143680D4A9342BE
:1044500013D013F0685F0ED0012350E8002F1946E7
:1044600040E8001C9CF0000FF7D1012AF5D0BFF303
:104470005F8F0020704704487047044870476FF40E
:10448000E04070472C5F5CA9E98FFFFFEA8FFFFFD8
:1044900080B14368094A93420AD013F0685F05D09F
:1044A000BFF35F8F002303601846704704487047CE
:1044B000044870476FF4E040704700BF2C5F5CA970
:1044C000E98FFFFFEA8FFFFF10B5044620B1044BD0
:1044D00063600022226010BD0248FFF779FFF6E713
:1044E0003A00003A5475000070B5D0E90023174C2B
:1044F000174D6360D0E90230C4E902302260486899
:10450000D1F800C0134BC3E900C0D5F81801D1F8A9
:1045100008C0C3F808C010F0685FD1F80CC0096982
:10452000C3F80CC0196110D00B49C5F8BC110023A9
:10453000C5E9453105F58A70C5F8B831904723685B
:1045400005F5DC70BDE87040184770BDB40500206B
:10455000C00E0020A00500202C5F5CA938B500F03B
:104560002FF820B1032400F063F8204638BD00F096
:1045700031F898B900F0ACF898B90F4DD5F8283952
:104580001B0EF02B08D1D5F8242A0C4B9A420AD0E6
:10459000072400F017F8E6E70624FAE7042420468B
:1045A00038BD0024F5E7012000F092F80446002809
:1045B000F7D1C5F80C0AD8E700B002500000E0209F
:1045C0000020704700207047014BC3F8040A704771
:1045D00000B0025010B5114800F048F800B110BD0D
:1045E0000F4800F043F80028F9D10E4C204600F0A7
:1045F0003DF80028F3D10C4B0C481C6000F036F855
:1046000001460028EBD100F02DF8044608B1204601
:1046100010BD00F03FF82046FAE700BFF405002087
:10462000F0050020EC050020E4050020E80500204E
:1046300008B5084800F024F8074800F021F80748BA
:1046400000F01EF8064800F01BF8BDE8084000F036
:104650000BB800BFF4050020F0050020EC05002099
:10466000E805002000207047704700BF08B5034BE5
:1046700002681B6810689847002008BDB405002038
:1046800008B5034B02685B6810689847002008BDB6
:10469000B405002070B5094C094D2069AB689847F6
:1046A00018B1084B08485B689847084AEB682069CE
:1046B00000211160BDE87040184700BFA005002030
:1046C000B40500209805002078750000BC0E00207D
:1046D000F8B51A4D1A4E0446B26828699047E8B9F1
:1046E000184F3B684CB1A3B1012B19D0013B3B6083
:1046F0002869F36898470020F8BD43B9124A0121A0
:10470000C2F800151149D1F81029002AFBD1013354
:104710003B60F368286998470020F8BD0C48F8BD55
:104720000A4AD2F81039002BFBD1074A6FF07E40BD
:10473000C2F80035FFF748FF3B68D7E7A005002027
:10474000B4050020BC0E002000A0025000B00250B2
:10475000E98FFFFF38B5084C4FF41E652846E56029
:10476000FCF76CFEA06010B9E060606038BD00230B
:10477000606005604360F9E780100020024A034949
:10478000034801F0DEBC00BF70080020856A00000D
:10479000901000202DE9F04101260746B24201DCCD
:1047A000BDE8F0813B461F4613F8014B002CF7D0C3
:1047B000252CF8D11C78252C07F10207F2D0002314
:1047C000DFF804819C461D461F2D18D8A4F1200E49
:1047D000BEF1100F09D9A4F1300EBEF1090F1ED899
:1047E0000A2404FB03E3202504E028FA0EFE1EF051
:1047F000010F06D017F8014B002CE5D128E07F2DE2
:104800001CD8A4F1300EBEF1090FE9D9242C10D127
:10481000BCF1000F46D0B34246D00023EAE724F0B3
:10482000040EBEF12A0FF8D06C2C09D145F080059A
:10483000E0E724F0040EBEF12A0FEED06C2C22D05B
:104840006C2C1BD8682C23D06A2C28D04C2C26D05A
:10485000BCF1000FA4D0B445A0D144F02007A7F1CB
:10486000650CBCF1020F0B6801D9612F1ED1073313
:1048700023F0070308330B6001368EE7742CB9D0A0
:104880007A2CB7D0E4E72C0648BF45F40075CDE795
:10489000EC0548BF45F4007545F48075AAE745F47A
:1048A0002075A7E79C46B8E76324D6E7692C02D0B9
:1048B00007D8632C03D02F0601D5AC05D7D4043319
:1048C000D9E7732CF6E700BF892801002DE9F04FE6
:1048D00095B043680393837880469807CDE9081222
:1048E00017D50D920B4600251F78A7B1252F16D09E
:1048F00001330793039B414638469847002805F14A
:10490000010580F2398498F8023043F0040388F8F6
:1049100002304FF0FF35284615B0BDE8F08F5F78C4
:104920009A1C252F0792E5D000242646A246A346CE
:10493000BBF11F0F32D8A7F12003102B0AD8DFE8F4
:1049400003F02409092A0909091B09090922092771
:1049500009091900A7F13003092B2DD92A2F39D1C4
:1049600054B90D9B1BF0400F53F8042B0D9329D025
:10497000164601E04BF0010B079B13F8017B0793F0
:10498000002FD5D15BE04BF0020B4BF0040BF3E7AB
:104990004BF0080BF0E74BF0100BEDE7BBF17F0F8E
:1049A0003FD8A7F13003092BD8D81BF0400F03D014
:1049B0000A2202FB0636DFE70A2202FB0A3A4BF024
:1049C000200BD9E7B2F1000AF9DACAF1000A4BF07C
:1049D000280BD1E72E2F05D11BF0400F9BD14BF0B8
:1049E000400BC9E7242F1CD1002C00F04281099B09
:1049F0000D931BF0400F0AD1524608980DA9FFF7FE
:104A0000C9FE0D9B1A1DD3F800A00D92B4E73246E3
:104A100008980DA9FFF7BEFE0D9B1A1D1E680D928A
:104A2000AAE76C2F00F0128100F20981682F00F0D4
:104A300015816A2F00F01A814C2F00F0178134B1D4
:104A4000099B08980D9322460DA9FFF7A3FE002E9F
:104A500047F02009B8BF2BF0400BA9F16503BCBF9C
:104A60001FFA8BFB0026022B40F20881B9F1610F7F
:104A700040F06782FF4307F0200306930D9B073346
:104A800023F007031BF0400FD3E9000103F10802F4
:104A900008BF4FF0FF36069B0D9200930EAA3346D7
:104AA00002F030F90130C3B2B3424BF4C054049366
:104AB00001DB049B5E1E01230E9F0593A3464FF06E
:104AC000700907F10903122B0DD907F16303C62BF7
:104AD00040F20F8107F2E73340F2CE72934294BF67
:104AE0000323042305939DF83C2002F00C0312F0ED
:104AF000010240F019811BF0020F40F012811BF0FF
:104B0000040400F0F880002B40F0118120231BF4F6
:104B1000405F1FD1049A5032002E6A4408BF01261C
:104B2000133A049921B112F8011D302900F03681A1
:104B30001BF0100F049A18BF3246391DC0F23381A2
:104B4000B74280F23081BA424BF4005B40F32D81D2
:104B50007E1C961B1BF400520A9200F0288127EA63
:104B6000E774013403B10134002E00F02881721C77
:104B70001444A245CCBFAAEB040400241BF0090F87
:104B800004D12C44A54240F01F81002443B11846B3
:104B90004146039B9847002805F10105FFF6B3AE97
:104BA0001BF4006F13D0039B414630209847002828
:104BB000FFF6A9AE069BC3F178004146039B00F0C7
:104BC000F8009847002805F10205FFF69CAE1BF09F
:104BD000080F05D12C44AC4240F002812546002448
:104BE0000A9B002B00F01C8127EAE77AA7EB0A0753
:104BF0007642049BBB4284BF0EABFB180AF1FF3A1E
:104C000088BF5879039B98BF3020564505F10109AC
:104C1000414600F3EF809847002807F10107FFF6AF
:104C200072AEBAF1FF3F08D1039B41462E20984750
:104C30000028FFF668AE05F102094D46D9E7742F4A
:104C40003FF49AAE7A2F3FF497AEF8E61BF0800F50
:104C500018BF4BF4007B4BF0800B8DE61BF4807F7C
:104C600018BF4BF4007B4BF4807B85E64BF4207B34
:104C700082E62646B3465446B2467DE6FF4307F039
:104C8000200306930D9B073323F007031BF0400F0F
:104C900003F1080208BF0626B9F1650FD3E9000148
:104CA0000D9213D1731C0022DBB24BF4805B1446CF
:104CB000112BCDE9002428BF11230EAA00F0FCFA25
:104CC000C3B2049302230E9F0593FAE6B9F1660F6F
:104CD00005D14BF4005B344601221123E8E7F3B21F
:104CE000012B4FF0000238BF012314464FF0650935
:104CF000DEE70223F6E6002B3FF409AFBAF1030F1B
:104D00003BDC9DF83C30A64E13F0080FA54B08BFC6
:104D10001E463746B94617F8010BB0BBAE1BB1446F
:104D20007BE033BB2B23F2E62BBB2D23EFE62022C7
:104D3000BAF1040F13DD1BF0080FAAF104040FD120
:104D40002C44039B0492414620209847002805F1FB
:104D50000105FFF6D8ADA542049AF2D19AB100241C
:104D6000039B414610469847002805F10105C8DA23
:104D7000C9E52B22DCE72D22DAE71BF0080FAAF1A8
:104D80000304BED1DCE71446BBE7069BC01A4146CC
:104D9000039BC0B298470028BCDAB4E504990139F6
:104DA000C9B20491BDE6561ED4E60026D2E61BF435
:104DB000006F059A0CBF032405241444D2E61BF0AF
:104DC000100F18BF0134D4E60B934146039B2020FB
:104DD000984700280B9B05F10105BFF6D3AE92E57D
:104DE000039B414630209847002805F10105BFF696
:104DF000F2AE88E598470028FFF685AD1BF0100F4E
:104E00000BD0BAF1FF3F08D105F1020941462E202F
:104E1000039B98470028FFF676AD4D464C4433E29D
:104E20009DF83D00039B414698470028FFF66BAD77
:104E3000002E69DD039B41462E2098470028FFF68F
:104E400062AD4FF0010A049B9A45BBBF0EAB5344C1
:104E500030205879039B414698470028D346FFF6F7
:104E600052AD0AF1010A5645EDDA02355D44069B62
:104E7000A9EB03004146039BC0B298470028FFF608
:104E800042AD002FB4BF2D202B20039B4146B8BF5D
:104E90007F4298470028FFF636AD059B042B41D191
:104EA0004FF47A79B7FBF9F606F13000039B4146DF
:104EB000C0B29847002805F10305FFF624AD09FBB1
:104EC00016774FF06409B7FBF9F606F13000039B43
:104ED0004146C0B29847002805F10105FFF613AD21
:104EE00009FB16774FF00A09B7FBF9F606F1300017
:104EF000039B4146C0B29847002805F10105FFF623
:104F000002AD09FB167715E01BF0100F01D101353A
:104F1000ADE7039B41462E209847002805F1020586
:104F2000A5DAF0E4059B032B05F10205C9D0059B2A
:104F3000012BD7D107F1300005F101094146C0B27C
:104F400066E7A7F16303122B00F2FF80DFE813F09E
:104F500013005700FD00FD00FD00FD005700FD009F
:104F6000FD00FD00FD00FD001701F800FD00FD0043
:104F70002C00FD00B9000D9B1A1D1B680D928DF8C9
:104F8000383001240EAF1BF0080F2ED03E19B94661
:104F9000B1452CD1EF1BB944AAEB04043DE700BF97
:104FA00008780000047800000D9B1A1D0D921F6800
:104FB000AB4B002F08BF1F461BF0400F14BF3146FC
:104FC0004FF0FF31384601F074FD0446DBE7039BE8
:104FD0004146202098470028FFF695AC013EB44298
:104FE000F5D35544AD1BB246D0E75646F7E719F85E
:104FF000010B039B414698470028C9DA83E41BF064
:10500000800F0D9B35D01BF4007F2DD0073323F08C
:105010000703D3E9000103F108020D922BF01009F8
:1050200000291FFA89F936DA404261EB410149F45F
:1050300080690DF1380B0A235A4601F046FD19F03C
:10504000400FA0EB0B0B65D029F001025E4592B238
:1050500040F3B280002F00F0A98019F0100334460D
:10506000914626D002345CE01A1D18680D92C117D3
:10507000D4E71A1D1BF4807F19680D9201D10846F0
:10508000F5E71BF4007F15BF48B208B241F3C01129
:1050900041F3C031C2E750EA0103CAD11BF0400F0F
:1050A000C7D0002EC5D12BF0110B1FFA8BF9344657
:1050B000B34640F2064319EA03031CBF0134002340
:1050C0002FE02BF0100B1FFA8BFB0A231BF0800440
:1050D0000D9A57D01BF400711DBF073222F0070252
:1050E00002F10801101D19BF0D91D2E900010D90C8
:1050F000106850EA010252D12BF016091BF0400F44
:105100001FFA89F94FD0002E4DD12BF0170B1FFA43
:105110008BF9B34619F0100352D0002F4ED10BF18A
:10512000010419F0080F5ED119F0010F06D0A24555
:105130006EDDAAEB040404EB0B06544622464DE058
:105140004BF0100B10237827C0E7B9F1780F04D18A
:10515000C7F1780343F01003B8E7039B41462520CD
:1051600098470028FFF6CFAB039B41463846984747
:105170000028FFF6C8AB0235079BFFF7B5BB082335
:105180000027A3E7111D0D911BF480711068B0D0AA
:105190001BF400711ABFC0B2214680B2A9E72BF000
:1051A000060B1FFA8BF90DF1380B45E729F01109B1
:1051B0001FFA89F934467CE79146ABE75C4651E734
:1051C0005C4676E7CDE904234146039B20209847BF
:1051D0000028FFF698AB049A059B01329245F1DC5A
:1051E0002C1BA5181446F3B1039B41463020984769
:1051F0000028FFF688AB6FB90135A9462E44A6EB0F
:1052000009035B4521DC5D460EAE5DBBD944C3E6B8
:105210005E4693E7023541463846039B984700288F
:10522000EBDAFFF770BB40F2064319EA030FE4D054
:1052300019F0020F14BF2B20202019F4806F05F104
:105240000105414618BF2D20E7E7039B414630206A
:105250009847002809F10109D1DAFFF754BB00BFD4
:105260000C780000013D039B705D41469847002883
:10527000CBDAFFF748BB039B414620209847002824
:1052800005F10105FFF63FAB631B002BF3DC73E771
:105290001FB502AB0093074A4FF0CC3301F0F8FC86
:1052A000DDE90201C00840EA4170C90805B05DF8B7
:1052B00004FB00BFCDCCCCCC2DE9F04F9BB0044615
:1052C00005920A460A93C2F30A559DF890300B9353
:1052D000D20FC1F313030992090D7DB950EA0302FD
:1052E0001BD1059A30235371099B156043F00203CB
:1052F0001371012738461BB0BDE8F08F40F2FF72F2
:1053000095424AD10343099B059A14BF43F0080311
:1053100043F0040313710027ECE700F00102089248
:105320004FEA83080122AC4D48EA907887009A46FC
:105330001646C5F1000B5846069200F011FAB5F179
:10534000FF3FACBF8146A0F10109ABEB090B09EBB4
:1053500005035846049300F009FA16A9A0F17D054B
:10536000584600F023FA12AB069A0193A9EB050503
:1053700010AB0292009320462B4616AA514601F02C
:10538000CCFBB9F1010F04460D4600F2D280089B18
:10539000002B40F0C58001276BE043F4801A00F039
:1053A00001024FEA8A080343A5F23545089248EA0C
:1053B00090784FEA800749D140F2FE7319420CBF42
:1053C00001260026002D3246B3DB284600F0C2F944
:1053D000032DC8BF0138049000F0C8F9049B7C304D
:1053E0005D1B054416A9184600F054FA12AB019350
:1053F00010AB009320462B46029616AA514601F0A8
:105400008CFB049B152B04460D4600F2868014ABE2
:10541000724A009338464FF0CC33414601F038FCD5
:10542000149B159A9B0843EA827303EB8303BB42E8
:10543000DDE9109A0CD13846414600F09FF9049BF3
:1054400083428CBF00270127002612E00126B9E71E
:10545000089B002B51D1013F48F1FF31B81B61F18E
:10546000000100F08BF9049B089F83428CBF00264B
:1054700001260B9B002B40F09180DDF828B04FF007
:105480000008CDE906884FF00A0ADDE91001FFF7B0
:10549000FFFE129B0E93CDE90C0118461399FFF7FE
:1054A000F7FE0C9B0D9A0F9198420B469341814653
:1054B00080F08E8020462946FFF7EAFE0E9A0AFB0E
:1054C00009F3934214BF002606F001060C9B1093CB
:1054D0000D9BCDE911390F9B1393079BB8F1000F7A
:1054E00014BF002707F0010701330AFB10485FFAD9
:1054F00088F8079304460D46C7E7B81C48F1000139
:1055000000F03CF9049B83428CBF00200120B9EBE2
:1055100000006AF10002CDE9100200273E46A8E72C
:10552000109B119A013B42F1FF32CDE91032012765
:105530008AE7B9F13E0FF0D84FF0FF33A9F1200010
:1055400003FA09F203FA00F0C9F1200123FA01F18C
:1055500002430A4303FA09F327EA030728EA020889
:1055600057EA08070CBF012700276DE700FB02FC84
:10557000A1FB0012013362448C4275EB020CF5D2A0
:10558000049ADDF828B01344259A1344D20F9342AD
:10559000B8BF13469B45A8BF9B4670E70A2100226F
:1055A00001230846E8E70AFB03F0A2FB0A230131C6
:1055B0000344944275EB0300F5D2594510DDBBF16D
:1055C000000F02D154EA05030AD00123069371E7C4
:1055D0000A2200230121ECE7CCFBFFFFCDCCCCCC91
:1055E000002E2FD04FF00A0A129B13990D931846E4
:1055F000FFF74EFE0D9B0C910AFB00F29A4281468A
:1056000020D1DDE91001FFF743FE0E900D912046F9
:105610002946FFF73DFE0D9B0E9A1092CDE91139F8
:105620000C9B1393079BB8F1000F14BF002707F0E2
:10563000010701330AFB10485FFA88F80793044614
:105640000D46D1E7DDF81090079B9944002F5AD002
:10565000B8F1050F57D114F001034AD1069A32B9B7
:10566000DDE912239D4208BF94425FD0069B1819C2
:105670004FF00A0445F10001002201262546A04210
:1056800071EB020755D2EBB1B3451BDA0B9B6BB143
:10569000259ADDF828B006EB09031344012BB8BFA7
:1056A00001239B45A8BF9B465E450BDD05304FF0AF
:1056B0000A024FF0000341F10001FAF721FD09F160
:1056C0000109013E5E45A8BF5E4637B20FFA89F96F
:1056D000059B09FA86F607F10508013E98444FF04C
:1056E0000009B9452CDB059B1A461E60099B137106
:1056F00000E6069B2BB9DDE912239D4208BF9442C8
:1057000009D00123B3E7069B53B9DDE912239D427B
:1057100008BF944204D1089B002BF2D1002EF0D098
:10572000B8F1040F94BF00230123A0E74FF0040851
:10573000F1E705FB02F7A4FB054201363A449EE778
:105740000A220023FAF7DCFC303208F8012D09F1B7
:105750000109C6E7014B5843800C704741340100F2
:10576000014B5843000D7047FB2E0B00024B584372
:10577000C00C0130704700BF4F9312000A4A70B549
:1057800003464FF0CC3600204FF0333506FB03F4D0
:1057900002FB0144A3FB023121449D4275EB01044D
:1057A00001D30130F2E770BDCDCCCCCC2DE9F04F68
:1057B0001A23354EB0FBF3FA03FB1A0389B00446F3
:1057C0000D4606EB0A1653B9D6E90023C1E90023BA
:1057D000D6E90201C5E9020109B0BDE8F08F2B4A04
:1057E00002EBC303D3E9008904AB0093D6E902239B
:1057F0004046494601F04CFA06AB0093D6E9002337
:1058000083460F464046494601F042FADDE906620A
:1058100016EB0B0652EB07084FF0000328BF0123DD
:10582000814633B1049B059A013342F10002CDE970
:10583000043220460391FFF799FF07461A2000FB28
:105840000AF0FFF793FF3F1A324643460399009749
:10585000484601F038FA4FEA141C0D4A640004F07F
:105860001E0352F82C40DC4004F00304241841F1DC
:105870000001C5E90041DDE90423009730464146B7
:1058800001F021FAA6E700BFF871000028710000BE
:10589000987500002DE9F04F1A27DFF8E4A000F119
:1058A0001905B5FBF7F56F433A1A4FEA051B89B0A6
:1058B00004460E460AEB05150AD1D5E90023C1E9D5
:1058C0000023D5E90201C6E9020109B0BDE8F08F65
:1058D0002C4B03EBC203D3E9008904AB0093D5E959
:1058E00002234046494601F0D3F95AF80B206B6871
:1058F000013ACDE9020106A963F100030091404697
:10590000494601F0C5F9DDE906528A4602996D184B
:10591000039952EB01084FF0000328BF0123814691
:1059200033B1049B059A013342F10002CDE9043200
:105930003846FFF71BFF07462046FFF717FF3F1AC1
:105940002A46434600974846514601F0BCF94FEAC3
:10595000141C0D4A640004F01E0352F82C40DC4075
:1059600004F003040134241841F10001C6E90041A8
:10597000DDE9042300972846414601F0A4F9A2E797
:10598000C872000028710000EC750000704710B567
:10599000044600F073F82046FAF704FE204610BDD6
:1059A000FAF720BE0139F42289B200F037B938B5D0
:1059B000044610300D46FFF7F5FF2C44E07338BD68
:1059C00070B504460D461B21FFF7F1FF2B4604F18D
:1059D000100120461B22BDE87040FAF795BD0A462B
:1059E0001D30002100F027B90121FFF7F8BF1E2963
:1059F0000B4628BF1E23102B38BF10230AB180F896
:105A00002C30052201211E3000F021B9042970B587
:105A100004460D4603D8012914D1002505E00629C6
:105A2000FBD100221B21FFF7E2FF637F204603F03A
:105A30000F0300F81D3F03222B460421BDE87040F0
:105A400000F005B990F82C100122ECE70F290B4665
:105A500005D0052928BF0523012B38BF01230422C7
:105A60000021203000F0F3B8052928BF07210331B9
:105A70000422CBB22030114600F0E9B830B5002A3C
:105A800015BF0025012501220022002B83734181CF
:105A900008BF64234FF0FB0118BF32230173057068
:105AA0004270437330BD2DE9F84F1F469DF83C30DE
:105AB000BDF83840DDE90C6A054688469146002B62
:105AC0004ED19B465C4549D0F30751D52846414607
:105AD000FAF7A4FD4846760846EACA76FAF772FD58
