:10000000402B00204D0F00005F6A0000390F0000F8
:10001000390F0000390F0000390F00000000000008
:10002000000000000000000000000000C5100000FB
:10003000390F0000000000005D100000390F0000C3
:100040008D1200008D1200008D1200008D12000034
:100050008D1200008D1200008D1200008D12000024
:100060008D1200008D1200008D1200008D12000014
:100070008D1200008D1200008D1200008D12000004
:100080008D1200008D1200008D1200008D120000F4
:100090008D1200008D1200008D1200008D120000E4
:1000A0008D1200008D1200008D1200008D120000D4
:1000B0008D1200008D1200008D1200008D120000C4
:1000C0008D1200008D1200008D1200008D120000B4
:1000D0008D1200008D1200008D1200008D120000A4
:1000E0008D1200008D1200008D1200008D12000094
:1000F0008D1200008D1200008D1200008D12000084
:1001000053B94AB9002908BF00281CBF4FF0FF317E
:100110004FF0FF3000F00CB8ADF1080C6DE904CEE3
:1001200000F008F8DDF804E0DDE9022304B07047D0
:10013000704700BF2DE9F04786468C460846089E6A
:10014000154674461946002B40F0C2808542B2FA2B
:1001500082F245D94AB1C2F1200300FA02FC2EFA1C
:1001600003F3954043EA0C0C94404FEA154EA8B2B5
:10017000BCFBFEF8230C0EFB18CC08FB00F943EA8D
:100180000C43994528D9EB1808F1FF3704D299455B
:1001900002D9A8F102072B44A3EB0903A4B2B3FBD5
:1001A000FEFC0EFB1C330CFB00F044EA0344A042AF
:1001B00014D92C190CF1FF3304D2A04202D9ACF1AE
:1001C00002032C44241A43EA07401EB1D440002302
:1001D00034607360BDE8F0874746DDE76346F1E7CA
:1001E00092BB431B01214FEA154EAFB2B3FBFEFC9D
:1001F000200C0EFB1C330CFB07F840EA0343984528
:1002000062D9EB180CF1FF3004D2984502D9ACF159
:1002100002002B44A3EB0803A4B2B3FBFEFC0EFBCD
:100220001C330CFB07F744EA0344A7424ED92C19B0
:100230000CF1FF3304D2A74202D9ACF102032C44E3
:10024000E41B43EA0040C0E7C2F1200320FA03F1B7
:10025000954090402EFA03F303434FEA154EAFB298
:10026000B1FBFEFC0EFB1C10190C0CFB07F841EA5D
:100270000041884504FA02F422D969180CF1FF30D4
:1002800004D2884502D9ACF102002944A1EB08014F
:100290009BB2B1FBFEFC0EFB1C110CFB07F743EA03
:1002A00001439F420ED9EB180CF1FF3104D29F425B
:1002B00002D9ACF102012B44DB1B41EA004192E779
:1002C0006046E3E76146F7E76046A3E76346B7E7C2
:1002D000834206D916B9002108467BE7C6E900E04B
:1002E000F9E7B3FA83F78FB9834201D3724508D88F
:1002F000BEEB020460EB030301209C461EB9002103
:1003000068E73846FAE7C6E9004CF8E7C7F1200C81
:10031000BB4022FA0CF41C432EFA0CF120FA0CF329
:10032000B84001434FEA14490EFA07F5B3FBF9F858
:100330001FFA84FE09FB18300B0C08FB0EFA43EA87
:1003400000439A4502FA07F240D9E31808F1FF305A
:1003500004D29A4502D9A8F102002344A3EB0A0370
:1003600089B2B3FBF9F809FB183308FB0EFE41EA2A
:1003700003418E452CD9611808F1FF3304D28E4514
:1003800002D9A8F10203214443EA0040A0FB0298ED
:10039000A1EB0E014145CE46434602D306D14D4561
:1003A00004D2B9EB020E68EB04030138002EA6D08C
:1003B000B5EB0E0261EB030101FA0CFC22FA07F324
:1003C0004CEA0303F940C6E9003198E74046C5E727
:1003D0004346D9E7000000002DE9F04F85B00646FE
:1003E0000F461546984683685B6802AA984700281E
:1003F0002FDB029CDDF80C90A5FB04AB05FB09BBD1
:1004000019A3D3E9002350465946FFF779FE054664
:100410004FF0FF335345164B73EB0B031CD3A4FB78
:1004200008A408FB094410A3D3E900235046214641
:10043000FFF766FE03464FF0FF3252450C4AA241D9
:100440000DD3BDF8382000922A463946304605F0D3
:1004500072FD05B0BDE8F08F6FF08500F9E76FF031
:100460008500F6E7AFF3008000CA9A3B0000000069
:10047000FFC99A3B012800D0704708B54FF6FF73BB
:10048000994200D008BD012300220421044805F050
:1004900061FD012300220421024805F0D9FCF1E7A7
:1004A000F0080020C008002010B5154806F038F903
:1004B000144C204605F0D5FC134806F031F92046CF
:1004C00005F0FEFC0321204605F0FFFC01221A2165
:1004D000204600F091F80721204605F01BFD0F2172
:1004E000204600F0AFF8094806F01AF90021054847
:1004F00005F0D3FC4FF42030002108F029F9F2E791
:1005000028920000C00800204C9200006092000079
:100510002DE9F04F8FB00C93072A46D982468B46BF
:1005200000250D923EE04FF03209CDF828900026CC
:100530000996089648F65C78CDF81C800823069347
:10054000CDF814B042F2107304934FF4D8740394AE
:10055000029401944FF4A267009723464FF4D862A7
:100560004FF45861504605F07AFDCDF82890099671
:100570000896CDF81C800D9B083B9BB206930BF1AF
:10058000080305930A4B0493039402940194009783
:1005900023464FF4D8624FF45861504605F05FFD92
:1005A0000135ADB20C9B9D42BDD90FB0BDE8F08FB7
:1005B000A086010010B484460E4C0FCCCCF810007D
:1005C000CCF81410CCF81820CCF81C3003CCCCF8A4
:1005D0002000CCF824102288A378ACF828208CF8CE
:1005E0002A3019238CF82C3006238CF82B3010BCC1
:1005F000704700BF608F000000B585B08DF8071010
:10060000CBB20F2B16D90DF107031B788DF80F30E5
:100610001E2B11D80DF10F031B788DF80F300AB186
:1006200080F82C30052201211E3005F093FD05B025
:100630005DF804FB014BE8E7014BEDE797960000FE
:100640009696000000B583B08DF807100F290CD0E6
:10065000A9B10DF107031B788DF80730052B10D8D1
:100660000DF107031B788DF807309DF80730042241
:100670000021203005F06EFD03B05DF804FB024B55
:10068000E9E7024BEEE700BF959600009496000064
:1006900010B582B0094807F06AFE50B10748836878
:1006A0001C68002100910B464FF47A72A04702B0FB
:1006B00010BD034806F034F8F9E700BF108D0000C4
:1006C0007C92000082B08DF807204160D3B2642B89
:1006D00005D80DF107031B78037202B07047014B78
:1006E000F9E700BF9896000010B582B00C46436849
:1006F000094AB2FBF3F2037A02FB03F30749A1FBB9
:100700000313002100915B090548FFF765FE2046B1
:1007100007F027FE02B010BD00CA9A3B1F85EB51BF
:10072000108D000010B582B00C4642680021009187
:100730000B460548B0FBF2F20448FFF74DFE204699
:1007400007F00FFE02B010BD00CA9A3B108D0000EA
:1007500008B5024B1B68984708BD00BFC0040020C5
:10076000014B1860704700BFC004002000B585B081
:100770000A460023009301930293039302238DF80A
:100780000230044B01930146684604F0F9FA05B0C3
:100790005DF804FB5107000080B505460E4617467C
:1007A000984603F07FFD034608F048FA0446DFF858
:1007B000189049F80030424639463046A84754F868
:1007C000090000F031FC00BF080000002DE9F043F3
:1007D00083B0044608461546A38B13F0080F05D1D5
:1007E00003F0070600230093019354E0012909D088
:1007F00043F02003A38385F31188BFF36F8F03B009
:10080000BDE8F08343F01003A383F4E7204605F02E
:10081000BFFF42E0D4F818904A466946204605F0EA
:10082000D0FF4FF00008A38B03F00707B74269D051
:10083000A268002A66D0012243F00803A38385F34F
:100840001188BFF36F8F002A64D1009B2BB14B46F8
:100850003A466946204606F02DF8B8F1000F02D05E
:1008600034492046C047EFF31185202383F31288D3
:10087000BFF36F8FA38B23F00803A383A38B13F025
:10088000100F4DD023F01003A3830120A68B06F098
:1008900007060028AFD00228B8D00028ABD0013816
:1008A00004282BD801A353F820F000BF150800003E
:1008B000FD080000C1080000D5080000E90800009C
:1008C0002369D3F800800621204605F037FF4FF05A
:1008D0000009A8E72369D3F804800421204605F025
:1008E0002DFF4FF000099EE72369D3F8088005210A
:1008F000204605F023FF4FF0000994E74FF0000871
:10090000C14690E7009A0AB1002295E7B8F1000FBE
:1009100092D1B3E74A463946204605F017FF94E7DF
:1009200013F0200F04D023F02003A3830220ADE7AF
:100930000020ABE7E3680000014B03600020704734
:100940009C92000008B5034805F0EAFE024805F055
:10095000E7FE08BD9C920000D492000008B5024852
:1009600003F0AAFF08BD00BF04930000B0F5680FB4
:1009700017D00CD840F6BA63984214D0B0F5683F4F
:1009800013D03A2801D00120704700207047094B4E
:1009900098420CD0084B984201D0012070470020AB
:1009A00070470020704700207047002070470020EB
:1009B000704700BF3A00003A2C5F5CA9E8B108B567
:1009C0004268B2F5683F07D00F498A421AD00068E2
:1009D00002F0B8FF002008BD03680022BFF35B8F60
:1009E00053E8001F012903D143E800200028F7D174
:1009F000BFF35B8F04D11046EDE76FF4E040704722
:100A00000248E8E70248E6E72C5F5CA9E98FFFFFB0
:100A1000EA8FFFFF30B308B54268B2F5683F0CD0EB
:100A200012498A421CD000684FF0FF324FF0FF336A
:100A300002F008FF88B10E480FE003680122BFF3FF
:100A40005B8F53E8001F002903D143E800200028F2
:100A5000F7D1BFF35B8F01D1002008BD0448FCE74C
:100A60000448FAE76FF4E040704700BF2C5F5CA9D0
:100A7000E98FFFFFEA8FFFFF10B50446A8B1636856
:100A8000B3F5683F10D0B3F5680F0DD00D4A93420F
:100A90000AD013F4686F0DD021680B4807F0D4FC1E
:100AA00000232360074B636010BD084B5B68084858
:100AB0009847E4E7236800221A605A609A60DA6077
:100AC0001A61EFE72C5F5CA9040E00209805002056
:100AD0000C93000010B5044668B36068B0F5683F39
:100AE00028D0B0F5680F25D0174B984228D0FFF7D3
:100AF0003DFFC0B14FF0FF324FF0FF3321461348A6
:100B000002F06EFE08B923681BB9114B5B681148EF
:100B10009847236800221A605A609A60DA601A6166
:100B20004FF468636360206807F00FFD636843F06B
:100B30003A03636010BD064B5B6807489847CCE7F3
:100B40002368002BD3D1D5E72C5F5CA9040E0020CD
:100B500098050020349300000C93000008B5402352
:100B600014220449044807F060FC0449044803F0D7
:100B700015FF08BD04090020040E00206493000046
:100B80007893000030BFFFF7FDBF00BF38B50446C3
:100B9000054D2A46054907F06EFE054A00216019F9
:100BA00007F077FE38BD00BF00000000548F000042
:100BB0000800000070B50646064D074B1D444C1B4F
:100BC0002046FFF7E3FF083CC6F8A44005F1080003
:100BD00070BD00BF0000000008000000074B9B68CC
:100BE00093F90E20002A08DB044A5269934204D08C
:100BF000034A536843F0805353607047100F00203E
:100C000000ED00E038B51546204B9B6A13F4805F79
:100C100019D116241D4B9B6A13F4006F00D01824C1
:100C20001A4B9B6A13F4007F10D0184B9A6B9B6A87
:100C300013F4004F09D0D9B1144A936A23F4004346
:100C40009362192402E01724E4E719240F4B9B6AEE
:100C500013F4806F00D01A240C4B9B6A13F4807F2E
:100C600008D10A4B9B6A13F4005F04D01C2402E0F5
:100C70001924EBE71B24054A936A43F47F439362EC
:100C8000012105F0F9FE2870204638BD00ED00E096
:100C9000174B9B6A13F0007F25D11D20144B9B6AD4
:100CA00013F0807F00D01F20114B9B6A13F4002F9C
:100CB00000D021200E4B9B6A13F4802F00D02220FD
:100CC0000B4B9B6A13F4003F00D02320084B9B6A18
:100CD00013F4803F09D1064A936A6FEA03436FEA2F
:100CE0001343936270471E20D8E72420F3E700BF28
:100CF00000ED00E081690D4B5A6942F480725A613F
:100D0000BFF34F8FBFF36F8F31F8021C5A6922F483
:100D100080725A61BFF34F8FBFF36F8F4DF602732E
:100D2000994201D0002070470120704700ED00E09B
:100D300070B504461646324B9B6A13F0100F1AD159
:100D400010252F4B9B6A13F0080F00D012252C4B57
:100D50009B6A13F0020F10D0294B586B9B6A13F05B
:100D6000800F3DD000293FD0254A936A23F08003AD
:100D70009362132503E01125E3E76FF01500204B84
:100D80009B6A13F0010F00D014251D4B9B6A13F0D2
:100D9000200F00D015251A4B9B6A13F0100F04D1B9
:100DA000174B9B6A13F0020F04D0154B5B6813F4CA
:100DB000006F1BD1124B9B6A13F0200F04D0104A16
:100DC000536A23F4005353620D4A936A43F0FF03BE
:100DD00093620121204605F04FFE3070284670BD19
:100DE0006FF015001325CAE71325C8E7214600F068
:100DF000E9F90028DED080F309880225DAE700BF90
:100E000000ED00E038B5054600230B701A4BD86A98
:100E100010F002002DD10C46DB6A002B2ADB164BAA
:100E2000D86A10F0804025D02846FFF763FF08B14C
:100E300028681FE0104B9B6A13F0FF0F0DD10E4B7B
:100E4000986A10F47F400ED10B4B9B6AB3F5803F3C
:100E500010D32846FFF71CFF0CE02246012128464C
:100E6000FFF766FF06E0224601212846FFF7CAFE8B
:100E700000E0002038BD00BF00ED00E030B58BB0D1
:100E80000C46264B5968C1F30801002383F31188EF
:100E9000BFF36F8F02F07F43B3F17F4F15D102F0A4
:100EA0000C03082B14D012F0080F0BD000250DF105
:100EB0002702204605F0E5FD86469DF8273053B110
:100EC0000BB030BD04460125F1E700252C46EEE7C6
:100ED00000252C46EBE70DF1040C20686168A26840
:100EE000E368ACE80F0020696169A269E369ACE8D6
:100EF0000F0045B1C3F308025AB96FEA53236FEAF2
:100F00004323089305E0089B23F4FF7323F00103B8
:100F1000089301A9704605F093FDD1E700ED00E0CC
:100F2000044B5A6942F010025A615A6922F00802D1
:100F30005A61704700ED00E0EFF30880EFF309819C
:100F400001B57246FFF79AFF01BD00BF002080F394
:100F50001488BFF36F8F114880F308880020104970
:100F6000087001F093FB00200E490860BFF34F8F1B
:100F700000F030F8202080F311880B484FF4046112
:100F8000401880F30988EFF314800221084380F3AE
:100F90001488BFF36F8F00F0D7F80000402B0020BB
:100FA0004C11002094ED00E080110020084BD3F894
:100FB0009000C0F30720002306E0054AC2F89830ED
:100FC0000021C2F8A01001338342F6DB704700BF56
:100FD00000ED00E010B572B6002484F31388FFF72B
:100FE000E5FF234608E003F120010E4A4FF0FF30F1
:100FF00042F821000133DBB2072BF4D9002308E0CB
:1010000003F16001074A4FF0FF3042F8210001333D
:10101000DBB2072BF4D962B6BFF34F8FBFF36F8FEC
:1010200010BD00BF00E100E008B50A4B9B68834299
:1010300002D003F03DF908BDEFF30583002BF8D093
:10104000054B5A6842F080525A605A6A22F40042B4
:101050005A62EEE7100F002000ED00E016498A68A2
:101060004FF030001044EFF3098C80E8F01F20208F
:1010700080F31288BFF36F8F104F4FF000664A69FC
:101080008A603E604FF0A404141920680C4C206064
:10109000D2F8A8000023C2F8A83080F3118804B564
:1010A000104600F011F9BDE8044002F1300090E86C
:1010B000F01F8CF309887047100F002004ED00E04A
:1010C000240E00201EF0040F0CBFEFF30880EFF396
:1010D0000980816911F8021C0229FFD001B572460E
:1010E00005F0B7FC01BD00BF002807DB00F01F02C0
:1010F000400901239340024A42F82030704700BF64
:1011000000E100E0002808DB4901C9B200F16040BD
:1011100000F5614080F80013704700F00F004901AE
:10112000C9B2014B1954704714ED00E04209054B58
:1011300053F8222000F01F00012303FA00F01040B2
:10114000704700BF00E100E008B50B4B0B4A22F0EE
:101150007F029A60BFF34F8FBFF36F8FD3F8882061
:1011600022F47002C3F8882002F062FA03F000FA59
:1011700000F072F802F0BAFA00ED00E000000000A2
:1011800010B4A2F120040E4942F8081C21F001011C
:1011900042F8081C42F8203C019B42F81C3C029B90
:1011A00042F8183C039B42F8143C4FF0807342F81D
:1011B000043C04650023C0F8A83010BC704700BF91
:1011C00099070000104B9B68BBB110F1160F0BD0B4
:1011D000D3F89420A2F1400C844510D8824210D953
:1011E0008A4207D800207047D3F894208A4201D859
:1011F00000207047D3F8940070470020704700200B
:1012000070470020704700BF100F002008B50E4641
:1012100015460A4A9060D0F8A420094B1A6000F0E5
:1012200053F82C4686F309880020064B9847204641
:10123000002100220023044C204700BF100F002093
:10124000240E0020EB6A000099070000014B1022D9
:101250001A61704700ED00E0002206E003F00F0382
:101260000949194420230B7601322F2A0ADC53B294
:10127000002BF3DB03F1604303F56143202183F886
:101280000013F1E7704700BFFCEC00E008B5EFF396
:101290000583103B044A02EBC301496852F833004E
:1012A0008847FFF79BFC08BD248D000008B5034B61
:1012B000034A0121034805F06BFD08BD000004202E
:1012C000000000208893000008B5D0F89430403B1F
:1012D0000448036040234360034B8360012105F011
:1012E0005BFD08BD280E002000000B15084AC2F85F
:1012F00098000B6823F01F03034343F01003C2F868
:101300009C308B6843F00103C2F8A030704700BFE7
:1013100000ED00E0084BD3F89030C3F30723013B06
:10132000984205D810B50446FFF7E0FF204610BDEF
:101330006FF01500704700BF00ED00E010B5034CE2
:101340000123227805F024FC207010BD48110020F4
:1013500008B500230B4A127805F01AFC10F1160F9D
:101360000FD0024606E0084BC3F898200021C3F8CE
:10137000A0100132044BD3F89030C3F307239342FB
:10138000F1DC08BD4811002000ED00E0044B05220F
:10139000C3F89420BFF34F8FBFF36F8F704700BF28
:1013A00000ED00E0BFF35F8F024B0022C3F89420F2
:1013B000704700BF00ED00E038B51C4B1D681C4BAA
:1013C000D3F89030C3F307239D422BD8FFF7EAFFF1
:1013D000002409E0154B5B6804EB440103EB810139
:1013E0002046FFF783FF0134A542F3D8114805706A
:1013F00005F0F6FB10F1160F13D00E4B1A780C4BBC
:10140000D3F89030C3F307239A4207DA084BC3F8A6
:1014100098200021C3F8A0100132F0E7FFF7B6FFD3
:10142000002038BD4FF0FF30FBE700BF9493000071
:1014300000ED00E04811002008B5024B1B689847FA
:10144000002008BD340E0020034B1860034A937837
:1014500043F0020393707047340E0020E404002030
:1014600008B54FF0FF324FF0FF33024805F09DFC06
:1014700008BD00BFF404002008B5064921F00701AB
:10148000C1F1005202F58022034805F0C9F800209E
:1014900008BD00BF873B0020380E002038B5044649
:1014A000FFF7DEFF22460821084805F02EF8054622
:1014B00020B1074802F046FA284638BD002CF8D083
:1014C00007F0BCFB034B0C221A50F2E7380E002049
:1014D000F40400200C00000008B501230A4AC2F8F9
:1014E00040354FF08042C2F8783505F062FC20B1FB
:1014F0004FF080430122C3F838264FF08043012289
:10150000C3F88025002008BD00E0014030B108B5D7
:10151000034B800143F00103984708BD704700BFAB
:10152000908F000000487047A00E0020014BC01AA9
:1015300040117047580E002038B505460C46FFF79D
:10154000F5FF01464022034805F0CFFC014628463E
:10155000A04738BDC08C000030B583B005460C46AE
:10156000FFF7E4FF0146402300932346054A06485F
:1015700005F0D5FC011E01DB03B030BD2846A047B5
:10158000FAE700BF676F0000C08C000008B510B11B
:1015900001280DD008BD0021084805F036FC8368FD
:1015A00013F0070FF6D10021044805F08CFCF1E799
:1015B0000121024805F087FCECE700BFC08C000069
:1015C00010B582B0EFF31184202383F31288BFF3A8
:1015D0006F8F154A136843F00201116013F0010F79
:1015E00009D1002384F31188BFF36F8FB3B905F0DD
:1015F000C2FC02B010BD0DF1070201214FF0804086
:1016000005F0E7FB9DF80730012B01D00023E9E747
:10161000FFF788FF05F045FC0123E3E700210348BD
:1016200005F051FCE5E700BFB00E0020C08C0000C3
:1016300010B5EFF31184202383F31288BFF36F8F6B
:10164000074A136823F00201116013F0010F04D060
:1016500084F31188BFF36F8F10BD05F096FCF7E798
:10166000B00E002070B582B00546012807D14FF0BA
:101670008043D3F81C3403F00303012B4BD006F056
:1016800091FF044618B9284B1B78002B38D1EFF393
:101690001186202383F31288BFF36F8F012424B9AE
:1016A0004FF080430222C3F8082301AA00214FF023
:1016B000804005F08EFB20B1019B012B26D0012D2F
:1016C00024D0FCB1304605F024FA4FF08043D3F823
:1016D0001835002BE9D14FF08043D3F80431002BAB
:1016E000E3D04FF080430022C3F80421D3F8042153
:1016F0000122C3F818250D49C1F880219A60D4E76A
:101700000026CCE7012005F04AFCDEE72CB186F389
:101710001188BFF36F8F02B070BD4FF0804302227B
:10172000C3F80423F7E700BF4C11002000E100E0FC
:1017300000B585B0CDF800D0CDF804D000230293D9
:10174000012303936B46074A05F005FC002805DBDF
:101750004FF480420023684602F08EF905B05DF830
:1017600004FB00BFCB6F000070B5064600220121CC
:10177000104605F0AEF9114801F0DCF8104B984224
:1017800019D101F0EBF80024012C12D82146304683
:1017900005F03BFB05462146304605F041FB094973
:1017A00005F0ADF8002805DB0123AB601C44E4B272
:1017B000EAE7002070BD6FF00400FBE78D15000024
:1017C0000000AD0BC493000010B50446104B01217E
:1017D000BFF35B8F53E8002F43E800100028F9D1D6
:1017E000BFF35B8F1AB1631E012B0DD910BD0948E1
:1017F00005F016FB084900234B608B60CB6001238A
:101800008B6005F098F8EEE72046FFF72BFFEDE739
:10181000540E0020C08C0000440E002010B5044679
:101820000A2806D0E1B2064883685B6898472046DC
:1018300010BD034883685B680D219847F2E700BF3D
:10184000FC8C000010B5044C2046FFF7FDFD20463F
:10185000FEF786FF10BD00BF1D18000008B5054843
:1018600006F085FD18B1FFF7EDFF002008BD6FF011
:101870001200FBE7FC8C0000F0B51C46059F069E9D
:1018800000F01F0C400936D0012837D1284D0CF547
:10189000E07355F8233099B301209AB34FF0020E4C
:1018A00040EA0E008CB34FF00C0E40EA0E007FB3FE
:1018B0004FF4E06E40EA0E006EB34FF4403E40EA53
:1018C0000E0023EA000049B30B784AB312785200A5
:1018D00013433CB32278920013432FB33A78120299
:1018E00013431EB332781204134303430CF5E07C18
:1018F00045F82C30F0BD4FF0A045C8E70025C6E7FD
:101900000020CAE74FF0000ECAE74FF0000ECCE708
:101910004FF0000ECEE74FF0000ED0E70023D4E7E3
:101920000022D5E70022D7E70022D9E70022DBE733
:101930000003005000F01F03400909D001280AD11C
:10194000064A03F5E07352F8230000F001007047E7
:101950004FF0A042F5E70022F3E700BF000300507C
:1019600028B1012801D10348704700207047024880
:10197000704700BFD48C0000E88C00002DE9F047D0
:1019800086B0884615469946446801F01F07237BB8
:1019900047EA4317204605F07FFB002853D0B5F5F2
:1019A000001F2AD00DF10C0A002603960496494622
:1019B000284605F0E6FB8DF80C000096019602968D
:1019C000CDF804A0A36823FA08F313F0010F02D1A5
:1019D000B5F1A07F18D010346A463946204606F08B
:1019E000F6FA1C4B984231D101223946204606F0C6
:1019F00012FB002006B0BDE8F087394604F1100064
:101A000006F00DFB0020F5E73846FFF793FF0028AE
:101A1000E1D104F110050DF117023946284606F010
:101A2000E2FA0D4B984203D00DF117030493D2E76D
:101A30000DF11701284606F0EAFA064B9842F3D05A
:101A40006FF00B00D6E76FF08500D3E76FF015005D
:101A5000D0E700BF0000AD0B0400AD0B2DE9F04353
:101A600089B0074689461446456801F01F082B7B5C
:101A700048EA4318104605F014FB8DF81E0040F2AA
:101A800006332340B3F5837F5ED016D8062B57D09C
:101A900006D9B3F5807F0DD101238DF81D3024E0E8
:101AA00003B3022B03D104238DF81D301DE06FF02A
:101AB00015076FE06FF015076CE040F202229342C9
:101AC00046D0B3F5407F03D103238DF81D300CE0E1
:101AD000B3F5007F03D102238DF81D3005E06FF0D0
:101AE000150757E000238DF81D30012606FA09F688
:101AF0003146384605F0E3FA071E4BDB14F4002F9D
:101B00002AD06B68C3F80865284605F0C5FA50B3BB
:101B100010350DF11F024146284606F064FA0646CC
:101B200014F4403F3AD14146284606F068FA3A4B51
:101B30009E422FD19DF81F10284606F064FA29E036
:101B400006238DF81D30D0E707238DF81D30CCE734
:101B500005238DF81D30C8E714F4802FD4D06B68AE
:101B6000C3F80C65D0E7C4F340438DF8083014F493
:101B7000803F0CBF012300238DF810300023019318
:101B80000DF11D0300930DF11E0304AA02A94046A6
:101B9000FFF772FE384609B0BDE8F08302AA0023C1
:101BA00002930393049305930693059204AA414676
:101BB000284606F00CFA184B984202D06FF0150731
:101BC000E8E714F4003F1AD09DF81D308DF810306E
:101BD00014F4803F0CBF012300238DF811309DF8D1
:101BE0001E308DF81230002304AA4146284606F024
:101BF000F2F9094B98429AD06FF01507CAE7002313
:101C00000493059306930DF11E03049304AA414621
:101C1000284606F0DCF9ECE70000AD0B10B544688F
:101C2000204605F039FA08B9002010BD10342046CE
:101C300006F0E1F908B10020F7E70021204606F0A0
:101C4000D6F9094B98420BD100220849204606F0EC
:101C5000C6F900220521062004F03BFF0020E4E73E
:101C60006FF00400E1E700BF0000AD0BBB710000A6
:101C700070B400F01F0C400919D001281AD10E4D84
:101C80000CF5E07055F820600C4C344041EA4201FC
:101C900041EA83039DF80C2043EA02239DF81020BB
:101CA00043EA0243234345F8203070BC70474FF0AD
:101CB000A045E5E70025E3E700030050F0F8FCFF4E
:101CC00000F01F01400907D0012808D1054A01236F
:101CD0008B40C2F8083570474FF0A042F7E700226A
:101CE000F5E700BF0003005000F01F01400907D0D6
:101CF000012808D1054A01238B40C2F80C357047F2
:101D00004FF0A042F7E70022F5E700BF00030050C4
:101D10002DE9F04F85B080468B460392002423E0E6
:101D20004FF0FF3638E0039BC3F80C65012702979C
:101D30003946B6F1FF3F15D0B1F1FF3F40F02481A5
:101D400058F80A3013F4004F40F02281029D00221F
:101D50000192CDF80090C3F341233A46294630461C
:101D6000FFF786FF0134E4B25C4580F013814FEA4F
:101D7000840A58F82430C3F3C725C3F3C322C3F33E
:101D8000080615F0080540F00781874911F8029010
:101D900040F2FF129642C3D01B0E222B00F2FF80AE
:101DA00001A252F823F000BF271D0000351E0000DD
:101DB000451E0000531E0000631E0000731E00003D
:101DC000811E00009F1F00009F1F00009F1F00003A
:101DD0009F1F0000911E0000A71E00009F1F000013
:101DE0009F1F00009F1F00009F1F00009F1F0000FB
:101DF0009F1F00009F1F00009F1F00009F1F0000EB
:101E0000BD1E0000D11E0000E51E0000F91E0000EE
:101E10009F1F00009F1F00009F1F00000D1F00005C
:101E20001D1F00002B1F00003B1F00004B1F000068
:101E30005B1F0000039BC3F814652F4602954FF00B
:101E4000FF3176E7039BC3F80865012702973946FF
:101E50006FE7039BC3F810652F4602954FF0FF31E3
:101E600067E7039BC3F808652F460123029300210F
:101E70005FE7039BC3F80C6501270297002158E731
:101E8000039BC3F810652F4602954FF0FF3150E7D2
:101E9000039BC3F80865B9F1000F65D02F46029582
:101EA0004FF0FF3145E7039BC3F80C65B9F1000F14
:101EB00062D02F4602954FF0FF313AE7039BC3F8FB
:101EC000606558F80A10C1F300410127029730E716
:101ED000039BC3F8646558F80A10C1F30041012759
:101EE000029726E7039BC3F8686558F80A10C1F308
:101EF0000041012702971CE7039BC3F86C6558F863
:101F00000A10C1F300410127029712E7039BC3F8AF
:101F10002465029501274FF0FF310AE7039BC3F8C0
:101F2000286501270297394603E7039BC3F830650C
:101F3000029501274FF0FF31FBE6039BC3F83465A0
:101F4000029501274FF0FF31F3E6039BC3F8386594
:101F5000029501274FF0FF31EBE6039BC3F83C6588
:101F6000012702973946E4E64F46CDF808904FF036
:101F7000FF314FF00609DCE64F46CDF808904FF0F0
:101F8000FF314FF00609D4E6304605F03EF9D7E6BA
:101F90000127DCE6002004E06FF0150001E06FF09F
:101FA000850005B0BDE8F08F4094000000F01F01EF
:101FB000400907D0012808D1054A01238B40C2F807
:101FC000083570474FF0A042F7E70022F5E700BF61
:101FD0000003005000F01F01400907D0012808D17C
:101FE000054A01238B40C2F80C3570474FF0A042E0
:101FF000F7E70022F5E700BF0003005000F01F02E2
:10200000400908D0012809D1054BD3F80405D04078
:1020100000F0010070474FF0A043F6E70023F4E71B
:102020000003005010B5044640682369074A00F1D8
:10203000080101F02BF9064B984204D105492046CE
:1020400005F0EBF810BD6FF00F00FBE759720000D0
:102050000000AD0B9F740000F8B505460E464768BA
:1020600006F0A0FA20B9154B1B7843B1002300E01D
:10207000012353B9284605F0BFFA044611E00123B5
:10208000F7E784F31188BFF36F8FEFF311842023F8
:1020900083F31288BFF36F8F284605F04BFA0028B0
:1020A000EFD0BB691E700122B969284605F069FAB4
:1020B00084F31188BFF36F8FF8BD00BF4C1100206F
:1020C00038B505460C4601F1080005F057FC0A4BEF
:1020D00098420DD105F10C0205F59071207A00F0BF
:1020E000DDFB237A0120984000F0D2FB002038BDB0
:1020F0006FF00400FBE700BF0000AD0B10B5044615
:10210000436819681A69C1F824255A7D93F816C0E6
:102110001B7D42EA0C021343C1F86C3505F0B6FA98
:1021200000B110BD0249204605F0C2F9F9E700BF31
:102130007976000021F07F4100F5A870014B43F84B
:1021400020107047001001404FF480338340024A52
:10215000C2F84433704700BF001001404FF4803391
:102160008340024AC2F84833704700BF0010014064
:10217000014BD3F804057047001001402DE9F843E6
:10218000054689469046FFF7E9FF284605F024FBFF
:102190004E46032710E0FFF7EBFF0446494605F0E3
:1021A0000AFBB0F5000F26D9284605F015FBB8F15B
:1021B000000F22D13E19013731462846FFF7BAFFFA
:1021C0002846FFF7C1FFFFF7D3FF0446C11C304686
:1021D00005F0F1FA0A4B98420AD9284605F0EFFAC1
:1021E0000028D8D1B8F1000FE4D06FF0150000E05E
:1021F0000020BDE8F8830020FBE76FF01500F8E74A
:10220000FDFF7F00034B044AC3F80823C3F84823AB
:10221000704700BF0010014003000F0010B50123FC
:1022200083406FEA030C0E4ABFF35B8F52E8001F36
:1022300001EA0C0E42E800E4002CF7D1BFF35B8FFB
:102240004FF4803282400748C0F80823BFF35F8F05
:10225000BFF36F8F0B4214BF0120002010BD00BFE1
:10226000EC0E0020001001404FF480338340144AEC
:10227000D2F80423134201D10020704710B5044660
:1022800001238340DB430F49BFF35B8F51E8002FED
:1022900002EA030041E8000CBCF1000FF6D1BFF3E5
:1022A0005B8F22FA04F313F0010F03D1204605F0EF
:1022B00086FA18B1204605F08FFA012010BD00BF44
:1022C00000100140E80E002001B97047012383404F
:1022D000114ABFF35B8F52E800CF4CEA030C42E88F
:1022E00000C10029F7D1BFF35B8F4FF480338340E7
:1022F0000A4AC2F80433BFF35B8F094B1B68BFF374
:102300005B8FC34013F0010FDFD0064B4FF4003258
:10231000C3F80021D9E700BFEC0E002000100140F7
:10232000E80E002000E100E038B5144610461946DA
:1023300005F05EFA02460D490B68E01A1B184C685E
:1023400044F100040B604C60A2F50013B3F5400F9C
:1023500009D2074B1B68190A1B06D41841F1000566
:10236000044BC3E9004502F0C5F938BD80060020E2
:10237000F00E00208806002038B50D4B1C68250A99
:102380002406BFF35F8FFFF7F3FE0346001945F104
:102390000001B3F5801F0AD2064BD3E90023904217
:1023A00071EB030303D210F1807041F1000138BDDD
:1023B000F00E0020880600202DE9F0410646144664
:1023C0001D469DF820801046194605F011FA074673
:1023D000FFF7D2FFA04271EB050319D2201A65EB7B
:1023E00001011D4B984271F100012FD21B4B03EBF1
:1023F0000613D3E90223AB4208BFA24201D1002059
:1024000018E0424639463046FFF7B8FE90B11BE06F
:10241000B8F1000F1DD10123B340114ABFF35B8F08
:1024200052E8000F184342E800010029F8D1BFF339
:102430005B8F0020094B320103EB0616C6E902450B
:1024400006999950079B7360BDE8F0816FF0150005
:10245000FAE76FF01500F7E7010080007006002032
:10246000E80E002030B585B0FFF7CCFE00231E4AF1
:10247000C2F80835002B25DD1B4C0225C4F8045397
:102480001A4B4FF40032C3F88021002201211120A1
:1024900004F01FFB112004F017FB0123A36023604D
:1024A000134A1360002402940194124B0093124AC1
:1024B0000023204605F0ACF92846FFF785F92046B1
:1024C00005B030BD0D4A02EB03124FF0FF304FF064
:1024D000FF31C2E902014FF480329A400249C1F84B
:1024E00004230133C6E700BF0010014000E100E013
:1024F000EC0E002029230000FFFF7F007006002063
:102500002DE9F04782B00446FFF7AEFE10B902B0E5
:10251000BDE8F087FFF730FF82460D4605F06BF906
:102520000646154B03EB0413D3E90289C24575EB4C
:1025300009050BD20025304605F065F9002DE6D0DF
:10254000009742464B462046A847E0E70A4A230147
:1025500002EB0411D5584F680020D0504FF0FF32E5
:102560004FF0FF33C1E902232046FFF7F7FD204675
:1025700005F032F9DFE700BF7006002010B50D4B03
:10258000D3F8043313F0020F03D10024002C0BDD29
:1025900010BD0221074805F0D8F80028F5D0064AFA
:1025A000136801331360F0E72046FFF7A9FF0134F9
:1025B000ECE700BF00100140F00E002010B584B021
:1025C000B0F1FF3F18D001281BDD154B9842A8BF82
:1025D00018460446134B01221A70FFF7CDFE124B2A
:1025E0001A685B68801AB0F5000F0CD20444B4F589
:1025F000000F09D30A4C07E00A4B00221A70084C5E
:10260000EBE70124E6E7064C002012190290019046
:102610000649009143F1000305F0FAF804B010BD3B
:10262000FFFF7F004B1100208006002029230000BF
:1026300008B5FFF7A1FE024B1B68C01A08BD00BF1A
:1026400080060020BFF34F8F0549CA6802F4E0629C
:10265000044B1343CB60BFF34F8F00BFFDE700BFB8
:1026600000ED00E00400FA05024BD3F80034002B23
:10267000FAD0704700E0014008B5034BC3F80405E9
:10268000FFF7F2FF08BD00BF00E0014038B505F0DC
:10269000E7F840B14FF080430022C3F80C21C3F8A3
:1026A0001021C3F8382505F0E5F8002846D04FF092
:1026B0008052D2F804144E4BC3F82015D2F80814F7
:1026C000C3F82415D2F80C14C3F82815D2F8101446
:1026D000C3F82C15D2F81414C3F83015D2F8181416
:1026E000C3F83415D2F81C14C3F84015D2F82014DE
:1026F000C3F84415D2F82414C3F84815D2F82814A6
:10270000C3F84C15D2F82C14C3F85015D2F8301475
:10271000C3F85415D2F83414C3F86015D2F838143D
:10272000C3F86415D2F83C14C3F86815D2F8401405
:10273000C3F86C15D2F84424C3F8702505F0A4F84A
:1027400018B12C4B2C4AC3F88C2605F0B0F818B100
:102750002A4BFB22C3F8182505F0BCF870B14FF0E6
:102760008041D1F8E43E23F00F034FF08052D2F8BD
:10277000582202F00F021343C1F8E43E05F0BDF801
:1027800020B11F4B4FF40072C3F8402605F0C8F883
:1027900060B14FF08043D3F8003413F0010F05D03F
:1027A0004FF080436FF00102C3F8002405F0D2F827
:1027B0004FF01023D3F80032002B06DB4FF010232C
:1027C000D3F80432002B00DB38BD0120FFF754FFA3
:1027D0004FF010241225C4F80052FFF745FFC4F84B
:1027E0000452FFF741FF0020FFF746FFFFF72AFFE3
:1027F00000C00040005000404881030000F000404D
:102800000090024010B50468CCB1B4FA84F3C3F16F
:102810001F03DBB201229A4024EA0202BFF35B8F5E
:1028200050E800CFA44504D140E8002EBEF1000FCF
:10283000F6D1BFF35B8FE6D10B70024810BD0248A2
:10284000FCE700BF0000AD0B0200AD0B0368CB40FE
:1028500013F0010F15D100B5026801238B4013431B
:10286000BFF35B8F50E800CF944504D140E8003EB1
:10287000BEF1000FF6D1BFF35B8FEDD102485DF8DA
:1028800004FB0248704700BF0000AD0B0400AD0B15
:10289000014BC3F80405704700F00140034BA23020
:1028A00043F8301003EBC0035A60704700F001405A
:1028B00070B582B00646C0B1012832D104224FF46F
:1028C000807301214FF08040C0F8081302440121B9
:1028D0001160034400221A601B688DF807108E42B5
:1028E00008D0002542F210740CE00C224FF48273E1
:1028F0000221E7E70DF10705F4E7012005F03AF8BA
:10290000013C0CD02A4631464FF0804005F03AF8A1
:1029100028B1002DF1D09DF80730012BEDD0012E0C
:1029200001D002B070BD024B00225A71F9E700BF1E
:10293000F40E0020064B1B793BB9054B18600122B1
:102940001A7100225A71034870470348704700BF4C
:10295000F40E00200000AD0B0C00AD0B08B5064BCB
:102960001B680BB105F02CF805F028F84FF08043F8
:10297000C3F8180508BD00BFF40E002000B583B0F1
:1029800020B1012849D003B05DF804FB4FF080432B
:10299000D3F81824D3F8183403F00303019312F486
:1029A000803F13D14FF08043D3F8143413F0010F5C
:1029B00010D105F003F80190019A4FF08043C3F85D
:1029C000182508224FF4827302202AE001A805F09E
:1029D00000F8F1E74FF08043D3F81C3403F0030311
:1029E000019301A804F0F5FF0028E5D0194B1B68FE
:1029F0002BB14FF080430222C3F80423C3E74FF00A
:102A00008043D3F80431002BF9D04FF080430022EB
:102A1000C3F80421D3F80431B5E700224FF48073E2
:102A2000012003F1804300211960196802F18042FE
:102A300001211160074A126822B14FF08043C3F8A8
:102A40000403A0E71A68002AFCD000221A601B6861
:102A500099E700BFF40E002010B54FF08043D3F883
:102A6000044308E01D4B5B792BB91C4B01225A71C2
:102A70001A4B1B68984784B3B4FA84F0C0F11F0066
:102A80000122824083009BB203F580739BB2C0B2E7
:102A900092B224EA020403F1804319680029EAD0C3
:102AA000002119601B684FF08043C3F80823012AF6
:102AB000D8D0022ADCD14FF08043D3F81814D3F8D1
:102AC000183413F0030FD3D14FF080430121C3F822
:102AD0001815C3F804239960CDE710BDF40E00204B
:102AE00070B400F01F0C400919D001281AD10E4D06
:102AF0000CF5E07055F820600C4C344041EA42017E
:102B000041EA83039DF80C2043EA02239DF810203C
:102B100043EA0243234345F8203070BC70474FF02E
:102B2000A045E5E70025E3E700030050F0F8FCFFCF
:102B3000F0B51C46059F069E00F01F0C400936D0DC
:102B4000012837D1284D0CF5E07355F8233099B39F
:102B500001209AB34FF0020E40EA0E008CB34FF002
:102B60000C0E40EA0E007FB34FF4E06E40EA0E0018
:102B70006EB34FF4403E40EA0E0023EA000049B332
:102B80000B784AB31278520013433CB32278920078
:102B900013432FB33A78120213431EB33278120450
:102BA000134303430CF5E07C45F82C30F0BD4FF0A7
:102BB000A045C8E70025C6E70020CAE74FF0000E91
:102BC000CAE74FF0000ECCE74FF0000ECEE74FF013
:102BD000000ED0E70023D4E70022D5E70022D7E794
:102BE0000022D9E70022DBE70003005000F01F02BB
:102BF000400908D0012809D1054BD3F81005D04071
:102C000000F0010070474FF0A043F6E70023F4E71F
:102C10000003005000F01F03400909D001280AD129
:102C2000064A03F5E07352F82300C0F301407047F1
:102C30004FF0A042F5E70022F3E700BF0003005089
:102C400000B583B084468E460D4B93E8030002AB7B
:102C500003E9030063460BE002A901EB830151F88D
:102C6000081CD1F8200542F8040BC1F820050133F7
:102C70000CEB0E009842EFD803B05DF804FB00BFE8
:102C80007C8F000000F01F01400907D0012808D107
:102C9000054A01238B40C2F8203570474FF0A0420F
:102CA000F7E70022F5E700BF000300504309034A9D
:102CB000D35C00F01F001844C0B2704704950000B8
:102CC00000487047080500202DE9F04184B0054612
:102CD0000C4616461F460846FFF7E8FF804656B3E7
:102CE0002146284604F06DFF28B12146284604F00D
:102CF00028FF002841D12146284604F031FF10B1B9
:102D00007378012B39D001238DF80F300023019304
:102D10000096B31C721C0DF10F012046FFF708FF4F
:102D20002879FFF7CDFF08F1080230F8123043F0A0
:102D3000030320F81230002F39D02146284604F032
:102D400040FF002835D13E782B6806F5A27200219D
:102D500043F822102879FFF7B3FF08F1080230F892
:102D6000123023F02003DB04DB0C20F812307B78D8
:102D70002BB9114804B0BDE8F0811048FAE7BA78E1
:102D8000009222463146286804F056FE2879FFF763
:102D900097FF024608F1080032F810307603B6B209
:102DA000334343F0200322F810300348E2E702489F
:102DB000E0E70248DEE700BF0000AD0B0400AD0B0A
:102DC00070B506460D46144604F0BBFE68B1307976
:102DD000FFF776FF06462846FFF768FF083036F80B
:102DE00010305B0B2370024870BD0248FCE700BF47
:102DF0000000AD0B0400AD0B30B583B0054601916A
:102E0000002400E00134012C18D80E4B1B5D03F0A8
:102E1000070202A901EBD30313F8043CD34013F0DB
:102E2000010FEFD005EB840201212046FFF708FFD8
:102E300055F82430002BE5D0012000E0002003B03D
:102E400030BD00BF149500002DE9F04182B0054669
:102E5000884616461F4605F000F8AEB33A4631469E
:102E6000284604F00AFF041E20DB2879FFF728FF1C
:102E700040F834602879FFF723FF00EBC400476077
:102E80002879FFF71DFF05464046FFF70FFF083082
:102E900035F81030E4B26402A4B2234343F48073E3
:102EA00025F81030094802B0BDE8F0812879FFF715
:102EB00007FF0DF107017830FFF7A4FC034B9842A0
:102EC000F1D19DF80740D0E70048ECE70000AD0BDA
:102ED0002DE9F04385B004460D4617460846FFF736
:102EE000E5FE0646D7F80080B8F1000F28D0294645
:102EF000204604F055FE00284FD100238DF80E30F7
:102F00008DF80F300193009343460DF10F020DF140
:102F10000E012846FFF70CFE2079FFF7D1FE06F1DF
:102F2000080830F8183023F0020320F81830207910
:102F3000FFF7C6FE30F8183043F0010320F81830D0
:102F40007B68F3B193F80080D3F8049029462046BB
:102F500004F017FE18B3B9F1000F65D12079FFF71F
:102F6000AFFE083630F8163023F01C0320F8163078
:102F70002079FFF7A5FE30F8163043EA880320F8E1
:102F80001630BA68002A53D0536812682946204682
:102F9000FFF75AFF05B0BDE8F0832648FAE720792D
:102FA000FFF78EFE06F1080230F8123023F02003FE
:102FB000DB04DB0C20F81230B9F1000FCED0B8F1F1
:102FC000030F33D87B685B6893F80090B8F1000F6B
:102FD00006D1236809F5A279002243F82920BDE72C
:102FE000404604F0F6FD0346216809F5A27C51F83D
:102FF0002C2022F0030241F82C202A464946206862
:1030000004F001FD2079FFF75BFE06F1080230F8BD
:1030100012304FEA49391FFA89F943EA090343F0AC
:10302000200320F8123099E70248B3E70148B1E7DE
:103030000148AFE70400AD0B0000AD0B38B5054605
:103040000C4604F06FFD08B9074838BD21462846F4
:1030500004F0F0FD2146284604F02AFF204604F043
:1030600045FD0248F1E700BF0400AD0B0000AD0BC9
:1030700070B582B005460E460079FFF721FE90F844
:10308000803013B10B4802B070BD044660220021AD
:10309000103005F0FEFB236F0093002332464FF003
:1030A0000041286804F02EFF012384F88030A367D4
:1030B0000148E8E70C00AD0B0000AD0B2DE9F04333
:1030C00083B080460F46002300930193C96F684682
:1030D000FFF792FE4BE094FAA4F4B4FA84F404F0FF
:1030E0001F05254B9B5D45EA43152846FFF7DEFD8E
:1030F000083037F81090C9F382090DEB8603E00819
:1031000004F007041A5C0121A14022EA01021A54CA
:103110002846FFF77FFD03464A462946384604F015
:103120005CFE2846FFF7AEFD02AB03EB860353F8C7
:10313000084C002CCFD10136012E0DD80F4B9B5DD2
:1031400007F17C02D90803F00703525C22FA03F36B
:1031500013F0010FEFD0E7E73A6F4FF00041404620
:1031600004F0A6FCF96F6846FFF746FE08B100269A
:10317000E2E703B0BDE8F083189500001495000065
:1031800008B50249024804F008FF08BD0805002000
:103190000060004008B501460148FFF733FB08BD59
:1031A0008C05002070B400F01F0C400919D00128D4
:1031B0001AD10E4D0CF5E07055F820600C4C3440DF
:1031C00041EA420141EA83039DF80C2043EA0223CD
:1031D0009DF8102043EA0243234345F8203070BC99
:1031E00070474FF0A045E5E70025E3E700030050F6
:1031F000F0F8FCFF00F01F01400907D0012808D1BA
:10320000054A01238B40C2F8083570474FF0A042B1
:10321000F7E70022F5E700BF0003005000F01F01B0
:10322000400907D0012808D1054A01238B40C2F884
:103230000C3570474FF0A042F7E70022F5E700BFDA
:103240000003005010B5047904EB84020E4B53F8D0
:10325000223053B104EB84040B4B03EB8403187A44
:10326000C0B2023818BF012010BD0221006804F06E
:10327000F9FE0028EED004EB8402034B03EB82033B
:1032800001221A72E6E700BFFC0E002038B504796F
:1032900004EB840C0F4D05EB8C0C9CF80850BDB969
:1032A0000C4D04EB840C05EB8C0E45F82C20CEF86D
:1032B000043021B10D7F8EF8105005F014F804EBA6
:1032C0008404044B03EB840301221A72024838BDC4
:1032D0000248FCE7FC0E00200000AD0B0C00AD0B1B
:1032E00070B58C4696461A46017901EB8101224B56
:1032F00003EB81010368DCF80040C3F82045BCF80B
:103300000440C3F82445DCF80840C3F82845DCF83D
:103310000C40C3F82C450368DCF80040C3F8404576
:10332000BCF80440C3F84445DCF80840C3F84845FD
:10333000DCF80C40C3F84C451EF001052B4606682E
:103340004FEA5E0E0CD001247444C6F8144512F006
:10335000010F07D112F0020405D055B1082402E094
:103360002C46F1E710240568C5F8004204F00BFF75
:1033700070BD0424F7E700BFFC0E002038B50446FA
:10338000057903680022C3F80022036801225A600D
:1033900079B12046FFF756FF0028FAD023680022B3
:1033A000C3F8002505EB8505044B03EB85030122DB
:1033B0001A722046FFF746FF38BD00BFFC0E002002
:1033C00008B50249024804F011FF08BDFC0E0020B8
:1033D00000C0014010B5154CA8220021204605F080
:1033E00058FA032323616361114AA261114BE3611F
:1033F0004FF4806323620023A3626362E362226668
:103400000D4A62661022A2662367E3666367BFF314
:103410005F8F06E0C3F10F020849895C034AD1546B
:1034200001330F2BF6D9BFF35F8F10BD10040020BE
:103430001C950000100000200000002028950000CE
:1034400008B5BFF35F8F00230F2B0AD80A4AD25C5E
:10345000D2B2C3F10F010948415C8A4206D101335F
:10346000F2E70023BFF35F8F13B908BD0123F9E72B
:10347000FFF7B0FFF9E700BF100400202895000017
:10348000034B00E01433034A9342FBD3704700BF61
:10349000C08C0000248D000038B5EFF31185202387
:1034A00083F31288BFF36F8F054B9C6804F077FF9E
:1034B00085F31188BFF36F8F2046FDF7B5FD38BD4A
:1034C000100F002038B505460A4B53F8204002E0A3
:1034D0002368984708346B1C064A52F82330A342ED
:1034E00006D96368002BF3D0204604F05BFFF1E7B8
:1034F00038BD00BF4C95000010B586B0B023114C0C
:1035000003FB004400EB400C00EB80000E4B03EB90
:1035100080030E4A0592012204920F220392002298
:103520000292019200930A4B4FF4A072094901EBF9
:10353000CC11204600F0C8FA637B23F004036373C8
:1035400006B010BD90060020100F00203C95000032
:1035500005850000C019002008B553EA020102D118
:1035600000F076FE08BD0249183001F03DF8F9E799
:103570002787000010B586B0184C14E0636A0593E5
:10358000236A0493E3690393A36902936369019334
:1035900023690093E368A2686168206800F094FAE8
:1035A00023685C6530340E4B9C42E7D300F060FD2D
:1035B0000A4C00E030340A4B9C420BD2A26AE36A08
:1035C000B3F1FF3F08BFB2F1FF3FF3D02068FFF730
:1035D000C3FFEFE700F064FD06B010BDA48E00004D
:1035E000A48E000008B50B4B01221A700320FFF7D0
:1035F00069FFFDF7A7F904F0F5FE0420FFF762FF6D
:10360000FFF7B8FFFCF750FF034A137B23F00103D9
:10361000137308BD4C1100204007002008B5014677
:10362000014A0248FDF7F2FDE535000040070020A1
:1036300008B50348034A121A002104F0CBFE08BD66
:10364000700600205011002010B50446FFF754FF0B
:10365000B0230B4903FB04110A4A04EB840302EB79
:103660008303D9601C7404EB4411074B03EB8113F3
:1036700003F5046304EB840402EB8402536010BD81
:1036800090060020100F00208011002070B586B039
:1036900000F03EFD104D114B5D61114B0593012370
:1036A0000493002403940294019400940D4B4FF46E
:1036B00080520D49284600F007FA06466B7B23F03E
:1036C00004036B73284604F0E6FF2046FFF7BCFFB7
:1036D000304606B070BD00BF40070020100F00202C
:1036E00044950000E5350000401B002008B500208F
:1036F000FFF7E8FE1E4B83F308881E4C636943F412
:1037000000736361E02384F822300025E577257695
:103710006576A57684F82050636A43F4E0236362FB
:1037200084F82350FDF7FCFBFDF790FD4FF0FF33CD
:10373000A362E362FDF740FEFDF7B8FD0E4C0126E3
:1037400066732673C4F89450C4F89850204601F06C
:1037500053F80A4B9C60FFF793FE3046FFF7B2FE2A
:103760000220FFF7AFFEFFF791FFFFF757FF00BF03
:10377000C019002000ED00E0F0070020100F00202D
:10378000064B1B684BB110B55C1E044A52F823303F
:1037900098472346002CF7D110BD7047F88E0000E3
:1037A00010B5044C02E054F8043B9847024B9C428D
:1037B000F9D310BD048F0000108F000010B5064C27
:1037C000002000E02034054B9C4204D2204604F047
:1037D0000FFE0028F6DA10BD0206002002060020C7
:1037E00030B583B00D46EFF31181202484F31288A5
:1037F000BFF36F8F046964B12C6023680361C369F0
:103800000133C361002081F31188BFF36F8F03B0D0
:1038100030BD00F1080C53EA020404D100232B60F0
:103820006FF00B00EFE7009201930246604600F054
:1038300069FB0028EBD1024B9B685B692B60E6E7D4
:10384000100F00202DE9F04182B00446EFF31187FC
:10385000202181F31288BFF36F8FC16899B90029C5
:1038600050D1364B9B6893F90E3023610131E160F2
:10387000324B9B68A36087F31188BFF36F8F0020E2
:1038800002B0BDE8F08116461D4682682B4B9B684E
:103890009A42E4D055EA060136D092F90E804146AC
:1038A00093F90E0004F03BFE804534DC4FF0000835
:1038B0000096019522463946214800F023FB002856
:1038C000DED0EFF31185202383F31288BFF36F8FCF
:1038D000A36843B323689C4223D013B3216993F9AF
:1038E0000E0004F01CFE0146204604F023FEE8B959
:1038F000B8F1000F1AD185F31188BFF36F8F6FF005
:103900000A00BDE72369B0E787F31188BFF36F8F23
:103910006FF00F00B4E70146204604F00BFE80462E
:10392000C6E72169E0E7B8F1000FE4D02946044872
:1039300000F072FB6FF00A00A2E700BF100F00203A
:10394000340F0020F8B58368002B47D00446264A80
:103950009268934245D1C368012B04D9013BC360EF
:1039600000252846F8BDEFF31186202383F3128843
:10397000BFF36F8F016904F0DDFD2768BC420CD0F6
:103980003D1E18BF012557B9A760CDB90023E360DC
:1039900086F31188BFF36F8FE3E70027F0E77A68BB
:1039A0003B6813605A6000233B607B607A7B22F0A7
:1039B00002027A73BB6007F1180004F027FFE3E707
:1039C00097F90E3023610025C7F8AC50384604F053
:1039D00062FE3146054800F01FFBC2E76FF0150597
:1039E000BFE74FF0FF35BCE7100F0020340F002079
:1039F000F8B50446EFF31187202383F31288BFF351
:103A00006F8F0568A84212D02E1E18BF012685B9F7
:103A100006BBA368E268934224D001221344A3604A
:103A200000230BBB87F31188BFF36F8FF8BD002510
:103A3000EAE76A682B6813605A6000232B606B60AA
:103A40006A7B22F002026A73AB6005F1180004F091
:103A5000DDFEDDE70023C5F8AC30284604F01BFE90
:103A60000123DEE70022D9E73946024800F0D4FA04
:103A7000DCE700BF380F002010B582B0EFF31181F2
:103A8000202484F31288BFF36F8F846844B1013C13
:103A9000846081F31188BFF36F8F002002B010BDE6
:103AA00053EA020406D0009201930246054800F052
:103AB00029FAF3E781F31188BFF36F8F6FF00F00DE
:103AC000ECE700BF380F00202DE9F04F85B0044629
:103AD0000F4615461E46DDF838A0DDF83C90DDF8AF
:103AE0004080DDF84CB000F158038365C365129B3C
:103AF0000422119904F05CFD2A463946204604F060
:103B00002BFD0546CDF80880CDF80490CDF800A037
:103B10003346024639462046FDF732FB00236365F3
:103B20002666C4F864A0C4F86890C4F86C80EFF30B
:103B30001182202383F31288BFF36F8F124B196A0F
:103B400021671C6282F31188BFF36F8FBBF1000FF6
:103B500013D01F22594604F1740004F0A2FE002382
:103B600084F89330084B9B685BB1D3F8A030C4F85D
:103B7000A030284605B0BDE8F08F002384F87430EB
:103B8000F0E7C4F8A030F4E7100F00200A4A936869
:103B9000C3F8A8006FF00A01C3F8AC1007494B68DE
:103BA00043F080534B60002383F31188BFF36F8F82
:103BB0009368D3F8AC007047100F002000ED00E0D0
:103BC000427B90F90D30002B04DB12F01F0F01D166
:103BD000816901B1704710B562F07F024273264AD5
:103BE00052F8183F93420ED10B460CE05A684260DF
:103BF0000360106058601FE01A461F4CE469A2423F
:103C000010D01B6883B17BB190F90EC093F90E20E0
:103C10009445F1D0A2EB0C02002AE7DC1A46002BF7
:103C2000EBD1EFE70B46EDE7134BDA6903F118012F
:103C3000016042601060D8610F4B53F8184F9C42EE
:103C40000ED06CB10C4B9B685A7B12F01F0F0AD13F
:103C5000DA897F2A07D9A2692AB9074A536109E09C
:103C6000054BDC68EEE7A34202D0204600F002FCE0
:103C7000014B5C6110BD00BF100F002010B5437BED
:103C800090F90D20002A14DB154B9A6853F8184F51
:103C90009C4219D0C4B1824219D0537B13F01F0F3C
:103CA00015D1D3897F2B12D9A36983B90C4B5A61E3
:103CB00014E003F07F0343734268036813605A60A3
:103CC000002303604360DFE7054BDC68E3E7A242C3
:103CD00002D0204600F0CEFB014B5C6110BD00BF5E
:103CE000100F002010B50446012343730373002313
:103CF000C0F89430C0F8983000F07EFD014B9C6015
:103D000010BD00BF100F00202DE9F84305460C46FA
:103D1000404B9E68737B13F0600F28D013F0200F88
:103D20002AD008271F4222D13B43737313F0800F20
:103D300024D1082F2DD04FF00009364B53F8188F9F
:103D400098454BD0B8F1000F48D0324B9B684345A3
:103D500002D0404600F08EFB2E4BC3F81480102F8B
:103D600005D0304600F0E6FBB9F1000F3AD184F3FC
:103D70001188BFF36F8F46E01027D3E703F07F036E
:103D800073737268336813605A6000233360736022
:103D9000CFE7B3685BB17268336813605A60002381
:103DA00033607360727B22F002027273B36030463C
:103DB00004F03DFC06F1580004F03EFC154B9B68F6
:103DC0009E4202D04FF00009B7E7EFF3058313B925
:103DD0004FF00009B1E74FF00109AEE70D4BD3F802
:103DE0000C80B2E70C48FFF77DFFC0E7EFF31184CA
:103DF000202383F31288BFF36F8F04F08EFB84F3CC
:103E00001188BFF36F8F6B7B13F0600FEED1BDE8AD
:103E1000F88300BF100F0020F0070020B3F1FF3F30
:103E200008BFB2F1FF3F00D1704708B50249183012
:103E300000F0DAFB08BD00BF2787000010B5437B08
:103E400090F90D20002A0ADB437B63F07F03437364
:103E50002B4A52F8183F934219D1002317E003F080
:103E60007F0343734268036813605A600023036052
:103E70004360E9E75A6842600360106058601EE0E2
:103E80001A461F49C9698A420FD01B687BB173B1BA
:103E900090F90E1093F90E209142F1D0521A002A97
:103EA000E8DC1A46002BECD1F0E70023EEE7144BD8
:103EB000DA6903F11801016042601060D861104BAB
:103EC0009A6853F8184F9C420ED06CB182420ED0C3
:103ED000537B13F01F0F0AD1D3897F2B07D9A36916
:103EE0002BB9074B5A6109E0054BDC68EEE7A242AB
:103EF00002D0204600F0BEFA014B5C6110BD00BF4D
:103F0000100F002010B50C4611460A4882680A4B73
:103F10001A60EFF31183202383F31288BFF36F8FAE
:103F2000DDE90223806804F0AAFB2046FFF72EFE9D
:103F300010BD00BF100F0020400F0020F8B5044650
:103F40000E460023EFF31185202282F31288BFF37F
:103F50006F8F18463DE05A686260236014605C60B1
:103F60001CE01A462B4FFF69BA420DD01B686BB19B
:103F700063B193F90E209042F3D0121A002AEADCC2
:103F80001A46002BEED1F2E70B46F0E7214BDA6937
:103F900003F11801216062601460DC611D4B53F86D
:103FA000187F9F420BD057B11A4B9B689F4202D09B
:103FB000384600F05FFA174B5F61012004E0154BB3
:103FC000DF68F1E7A673002085F31188BFF36F8FD8
:103FD0000123EBB9637B13F01F0FF3D1A169002913
:103FE000F0D103F07F0363736268236813605A6043
:103FF00000232360636070B2A073637B63F07F0370
:104000006373044A52F8183F9342B1D10B46AFE7AD
:10401000F8BD00BF100F002008B50B4659B9EFF3EB
:10402000058242B9064A50699268904203D0084618
:10403000FFF7ACFD03E083F31188BFF36F8F08BD7A
:10404000100F002008B5034650B9EFF305823AB9C6
:10405000064A51699268914202D0FFF797FD03E04A
:1040600083F31188BFF36F8F08BD00BF100F0020CE
:104070000023EFF31181202282F31288BFF36F8FA8
:1040800009E0064B9A68D37B013BD37381F3118817
:10409000BFF36F8F0123002BF3D07047100F002068
:1040A00038B50023EFF31185202282F31288BFF385
:1040B0006F8F0EE0154BDC6817E0A24202D020465D
:1040C00000F0D8F9114B5C6185F31188BFF36F8F55
:1040D0000123BBB90D4B9A68D17B0131D17353F8E1
:1040E000184F9C42E6D0002CE4D0537B13F01F0FF6
:1040F000E3D1D3897F2BE0D9A369002BDDD1034B1A
:104100005A61E1E704F015FB38BD00BF100F002035
:1041100008B5024804F018FB08BD00BF240F0020BA
:1041200038B5EFF31184202383F31288BFF36F8F28
:10413000224B9A68DB699A4205D01368516812686D
:104140000A60516006E00023F8E71C4AD2699342F6
:1041500012D01B6893B1194A906890F90E1093F928
:104160000E209142F1D0521A002AEEDD5A684260C8
:104170000360106058600AE00023EBE70F4B9A6879
:10418000D96903F11800106051600A60DA610B4BC5
:1041900053F8185F9D420DD065B1084B9B689D4256
:1041A00002D0284600F066F9044B5D612046FFF717
:1041B000EDFC38BD014BDD68EFE700BF100F0020BC
:1041C0002DE9F04150EA010333D004460D466FF06B
:1041D00001031B1A4FF0FF3262EB0102012B72F157
:1041E00000022ADB6FF00106361AEFF31188202354
:1041F00083F31288BFF36F8F124FB868124B1860A9
:10420000FFF73CFDB86822462B461049183000F0F5
:10421000EBF9BA68537B43F0040353734046FFF74E
:10422000B5FC04F01BFB301A002800DC0020BDE8C0
:10423000F081FFF775FF0020F9E704F00FFB061986
:10424000D3E700BF100F0020400F00202787000099
:1042500038B50446183004F0D9FAEFF3118520235D
:1042600083F31288BFF36F8F637B13F0040F04D1C5
:1042700085F31188BFF36F8F38BD23F00403637398
:104280002046FFF79DFCEFF3058323B185F31188EA
:10429000BFF36F8FF0E729460148FFF7BDFEEBE75C
:1042A0003C0F0020014B9868704700BF100F0020A2
:1042B0002DE9F041EFF31186202383F31288BFF339
:1042C0006F8F037B13F0010F15D10446457B15F06A
:1042D000080F1ED1B04600F1580704F074F930B34E
:1042E00045F020056573EFF30583BBB131462046E9
:1042F000FFF70AFD0BE086F31188BFF36F8F0023F1
:1043000083F31188BFF36F8F0423184602DFBDE8E3
:10431000F08186F31188BFF36F8FF8E73946384B89
:10432000986804F052F93046FFF730FCEFE745F0AB
:104330000803637313F0800F33D1A3685BB1626825
:10434000236813605A60002323606360627B22F05D
:1043500002026273A36004F1180004F057FA3846B1
:1043600004F06AF9264B9A68944227D00027244B20
:1043700053F8185F9D4228D03DB3AA4202D0284688
:1043800000F078F81E4B5D61204600F0D3F8FFB9CD
:104390001B4B9B689C422AD088F31188BFF36F8F18
:1043A000B5E705F07F0545F0080565736268236889
:1043B00013605A60002323606360BEE7EFF3058358
:1043C0000BB90027D3E70127D1E70D4BDD68D4E710
:1043D0000C4D01236B732B730023C5F89430C5F883
:1043E0009830284600F008FA054B9D60D0E7EFF3BF
:1043F0000583002BD0D13046FFF7C8FB87E700BF0D
:10440000100F0020F0070020044BC01AC010044B0E
:1044100003FB00F0034B01221A547047A008002050
:10442000ABAAAAAA440F0020C3897F2B11D80E4B38
:104430001B687BB190F90E200C4B1B689A420CDB79
:10444000437B13F01F0F0AD1094B984209D0012377
:1044500000E0002303F0010070470023FAE7002387
:10446000F8E70023F6E700BF4C0F0020480F0020BC
:104470009006002070B505460D4B1E7C06EB4603EA
:104480000C4C04EBC304204604F0C0F90A4B002294
:104490009A552846FFF7C8FF00B970BD074B1A6848
:1044A000013AD3170649204600F09EF8F5E700BF11
:1044B000100F0020A0080020440F00204C0F002007
:1044C0000944000038B5EFF31185202383F31288E7
:1044D000BFF36F8F144B9C68144B1B68A34217D01B
:1044E000124B00221A60104B1B7C114AD35C53B153
:1044F0002046FFF799FF30B1637B13F01F0F0FD0F9
:104500002046FFF7B7FF85F31188BFF36F8F38BDE3
:104510002046FFF7AFFF85F31188BFF36F8FF6E7F3
:104520002046FFF78BFCEBE7100F0020400F002028
:10453000440F0020EFF31181202383F31288BFF38F
:104540006F8F0A4B1B6A834204D11A6F074B1A62A2
:1045500007E0134613B11A6F8242FAD10BB1026F12
:104560001A6781F31188BFF36F8F7047100F002017
:1045700008B50648064A121A064903F02FFF0648F6
:10458000064A121A064903F029FF08BDC00400209C
:104590006C060020B0960000B8040020C004002083
:1045A000A8960000034B1868984200D0704700207E
:1045B000FCE700BF9005002030B1044A52689042E9
:1045C00001D0006870470020704700BF90050020B0
:1045D00008B5044B1B680BB1002008BDFEF728F896
:1045E000FBE700BF500F0020B3F1FF3F08BFB2F15F
:1045F000FF3F77D02DE9F047044692461D46816083
:104600000023EFF31187202282F31288BFF36F8F0C
:1046100026E01AF1010845F10009FFF7D9FF18EB70
:10462000000349EBE070236160613BE0521A66EBE6
:104630000303026143614368636020601C6044605F
:1046400005E0294B5A682360626014605C60FFF7E4
:10465000A9FF84423AD087F31188BFF36F8F0123FB
:10466000002B3DD153466FF00101B1EB0A014FF031
:10467000FF3060EB0502002ACBDB1C4A1168526850
:104680005B1842EB05026FF00101C91A60EB0203EF
:1046900008461A46012973F1000301DA01200022BD
:1046A00020616261FFF77EFF0028CAD00269466977
:1046B00021696369914273EB060EB7DB891A63EBDC
:1046C000060321616361FFF777FFEDE7084B1B6885
:1046D000002BC0D104F07DF80021FDF76FFFBAE791
:1046E000BDE8F087704700BF90050020B8080020A3
:1046F000500F002070B5EFF31186202383F312884A
:10470000BFF36F8F2A4B1860FFF74CFF044623E07E
:10471000284A136851685B1941EBE57113605160D9
:1047200000220023C4E90423204604F03BF886F36A
:104730001188BFF36F8FA36820469847EFF3118667
:10474000202383F31288BFF36F8F194A13685B1B12
:104750001360FFF727FF04463CB125696169144BDC
:104760001A68D317AA428B41D2DA44B1236962692D
:104770000F4909685B1A62EBE172236162610D4ABD
:104780000B4D2868136851681B1841EBE0711360EA
:10479000516000242C6004F01CF82146FDF70EFF48
:1047A00086F31188BFF36F8FFFF78CFE70BD00BFDB
:1047B000500F0020B808002010B50022EFF311843C
:1047C000202383F31288BFF36F8F134611460CE04A
:1047D000FFF7FEFE074A13685168C31841EBE0710A
:1047E00084F31188BFF36F8F0122002AF0D018469E
:1047F00010BD00BFB8080020014BC0F8A0307047C2
:104800000406002010B5064C05E0A2686168204649
:1048100004F028F81834034B9C42F6D3002010BD56
:10482000040600201C06002010B50A4C23681BB1AA
:1048300001232360002010BD00F0EAF80028F7D023
:104840000138062803D8044B53F8200010BD034854
:1048500010BD00BF540F002064950000FE8FFFFFC5
:10486000BFF34F8F0549064BCA6802F4E062134359
:10487000CB60BFF34F8F00BFFDE700BF00ED00E04E
:104880000400FA0510B4094B09490A4C4FF0FE32F6
:10489000C3F800244968C3F80424C3F80824C3F803
:1048A0000C240023C4F8003510BC084700B00250A7
:1048B0009805002000A00250D0E90012014BC3E986
:1048C000001270479805002010B5044650B1636887
:1048D00013F0685F05D0064A934202D0002323609C
:1048E000626010BD034B04485B689847EFE700BF68
:1048F0002C5F5CA99805002080950000C8B1436832
:104900000D4A934213D013F0685F0ED0012350E894
:10491000002F194640E8001C9CF0000FF7D1012A37
:10492000F5D0BFF35F8F00207047044870470448FC
:1049300070476FF4E04070472C5F5CA9E98FFFFF80
:10494000EA8FFFFF80B14368094A93420AD013F00F
:10495000685F05D0BFF35F8F002303601846704780
:1049600004487047044870476FF4E040704700BF48
:104970002C5F5CA9E98FFFFFEA8FFFFF10B50446AB
:1049800020B1044B63600022226010BD0248FFF793
:1049900079FFF6E73A00003AA895000070B5D0E933
:1049A0000023174C174D6360D0E90230C4E9023090
:1049B00022604868D1F800C0134BC3E900C0D5F8A5
:1049C0001801D1F808C0C3F808C010F0685FD1F82A
:1049D0000CC00969C3F80CC0196110D00B49C5F8A7
:1049E000BC110023C5E9453105F58A70C5F8B83119
:1049F0009047236805F5DC70BDE87040184770BD2E
:104A0000B40500206C0F0020A00500202C5F5CA9DD
:104A100038B500F02FF820B1032400F063F82046E9
:104A200038BD00F031F898B900F0ACF898B90F4DE6
:104A3000D5F828391B0EF02B08D1D5F8242A0C4BB9
:104A40009A420AD0072400F017F8E6E70624FAE7AE
:104A50000424204638BD0024F5E7012000F092F838
:104A600004460028F7D1C5F80C0AD8E700B0025078
:104A70000000E0200020704700207047014BC3F881
:104A8000040A704700B0025010B5114800F048F811
:104A900000B110BD0F4800F043F80028F9D10E4CCA
:104AA000204600F03DF80028F3D10C4B0C481C6068
:104AB00000F036F801460028EBD100F02DF804464E
:104AC00008B1204610BD00F03FF82046FAE700BFCD
:104AD000F4050020F0050020EC050020E40500208E
:104AE000E805002008B5084800F024F8074800F061
:104AF00021F8074800F01EF8064800F01BF8BDE852
:104B0000084000F00BB800BFF4050020F0050020BD
:104B1000EC050020E805002000207047704700BF2A
:104B200008B5034B02681B6810689847002008BD51
:104B3000B405002008B5034B02685B68106898470D
:104B4000002008BDB405002070B5094C094D20694E
:104B5000AB68984718B1084B08485B689847084A03
:104B6000EB68206900211160BDE87040184700BF64
:104B7000A0050020B405002098050020CC95000079
:104B8000680F0020F8B51A4D1A4E0446B26828691D
:104B90009047E8B9184F3B684CB1A3B1012B19D02D
:104BA000013B3B602869F36898470020F8BD43B992
:104BB000124A0121C2F800151149D1F81029002A22
:104BC000FBD101333B60F368286998470020F8BDAA
:104BD0000C48F8BD0A4AD2F81039002BFBD1074A1D
:104BE0006FF07E40C2F80035FFF748FF3B68D7E71B
:104BF000A0050020B4050020680F002000A002508E
:104C000000B00250E98FFFFF38B5084C4FF41E6525
:104C10002846E560FCF742FCA06010B9E0606060E7
:104C200038BD0023606005604360F9E72C11002067
:104C3000024A0349034801F018BF00BF00090020E1
:104C4000758800003C1100202DE9F041012607463F
:104C5000B24201DCBDE8F0813B461F4613F8014B30
:104C6000002CF7D0252CF8D11C78252C07F1020751
:104C7000F2D00023DFF804819C461D461F2D18D872
:104C8000A4F1200EBEF1100F09D9A4F1300EBEF12F
:104C9000090F1ED80A2404FB03E3202504E028FAA8
:104CA0000EFE1EF0010F06D017F8014B002CE5D1C7
:104CB00028E07F2D1CD8A4F1300EBEF1090FE9D9F0
:104CC000242C10D1BCF1000F46D0B34246D00023B3
:104CD000EAE724F0040EBEF12A0FF8D06C2C09D1BB
:104CE00045F08005E0E724F0040EBEF12A0FEED077
:104CF0006C2C22D06C2C1BD8682C23D06A2C28D08A
:104D00004C2C26D0BCF1000FA4D0B445A0D144F067
:104D10002007A7F1650CBCF1020F0B6801D9612FC8
:104D20001ED1073323F0070308330B6001368EE7EB
:104D3000742CB9D07A2CB7D0E4E72C0648BF45F4E0
:104D40000075CDE7EC0548BF45F4007545F4807566
:104D5000AAE745F42075A7E79C46B8E76324D6E7A1
:104D6000692C02D007D8632C03D02F0601D5AC05DF
:104D7000D7D40433D9E7732CF6E700BF89280100A4
:104D80002DE9F04F95B043680393837880469807E8
:104D9000CDE9081217D50D920B4600251F78A7B153
:104DA000252F16D001330793039B41463846984779
:104DB000002805F1010580F2398498F8023043F0AB
:104DC000040388F802304FF0FF35284615B0BDE8DF
:104DD000F08F5F789A1C252F0792E5D00024264695
:104DE000A246A346BBF11F0F32D8A7F12003102B18
:104DF0000AD8DFE803F02409092A0909091B09096F
:104E00000922092709091900A7F13003092B2DD917
:104E10002A2F39D154B90D9B1BF0400F53F8042BA6
:104E20000D9329D0164601E04BF0010B079B13F8B8
:104E3000017B0793002FD5D15BE04BF0020B4BF0C9
:104E4000040BF3E74BF0080BF0E74BF0100BEDE72A
:104E5000BBF17F0F3FD8A7F13003092BD8D81BF047
:104E6000400F03D00A2202FB0636DFE70A2202FBCC
:104E70000A3A4BF0200BD9E7B2F1000AF9DACAF18D
:104E8000000A4BF0280BD1E72E2F05D11BF0400F65
:104E90009BD14BF0400BC9E7242F1CD1002C00F014
:104EA0004281099B0D931BF0400F0AD1524608988E
:104EB0000DA9FFF7C9FE0D9B1A1DD3F800A00D9296
:104EC000B4E7324608980DA9FFF7BEFE0D9B1A1DE8
:104ED0001E680D92AAE76C2F00F0128100F2098182
:104EE000682F00F015816A2F00F01A814C2F00F016
:104EF000178134B1099B08980D9322460DA9FFF73D
:104F0000A3FE002E47F02009B8BF2BF0400BA9F1FB
:104F10006503BCBF1FFA8BFB0026022B40F2088101
:104F2000B9F1610F40F06782FF4307F02003069359
:104F30000D9B073323F007031BF0400FD3E900015B
:104F400003F1080208BF4FF0FF36069B0D92009355
:104F50000EAA334603F0DEFD0130C3B2B3424BF478
:104F6000C054049301DB049B5E1E01230E9F059336
:104F7000A3464FF0700907F10903122B0DD907F171
:104F80006303C62B40F20F8107F2E73340F2CE7283
:104F9000934294BF0323042305939DF83C2002F021
:104FA0000C0312F0010240F019811BF0020F40F0D7
:104FB00012811BF0040400F0F880002B40F01181F6
:104FC00020231BF4405F1FD1049A5032002E6A4404
:104FD00008BF0126133A049921B112F8011D3029A6
:104FE00000F036811BF0100F049A18BF3246391DAD
:104FF000C0F23381B74280F23081BA424BF4005B99
:1050000040F32D817E1C961B1BF400520A9200F087
:10501000288127EAE774013403B10134002E00F03F
:105020002881721C1444A245CCBFAAEB04040024BE
:105030001BF0090F04D12C44A54240F01F8100242D
:1050400043B118464146039B9847002805F10105E6
:10505000FFF6B3AE1BF4006F13D0039B4146302024
:1050600098470028FFF6A9AE069BC3F17800414699
:10507000039B00F0F8009847002805F10205FFF6B1
:105080009CAE1BF0080F05D12C44AC4240F00281CD
:10509000254600240A9B002B00F01C8127EAE77AB2
:1050A000A7EB0A077642049BBB4284BF0EABFB18FA
:1050B0000AF1FF3A88BF5879039B98BF30205645C4
:1050C00005F10109414600F3EF809847002807F1F8
:1050D0000107FFF672AEBAF1FF3F08D1039B4146CC
:1050E0002E2098470028FFF668AE05F102094D46CC
:1050F000D9E7742F3FF49AAE7A2F3FF497AEF8E6D3
:105100001BF0800F18BF4BF4007B4BF0800B8DE63B
:105110001BF4807F18BF4BF4007B4BF4807B85E64B
:105120004BF4207B82E62646B3465446B2467DE6E3
:10513000FF4307F0200306930D9B073323F007037B
:105140001BF0400F03F1080208BF0626B9F1650FF6
:10515000D3E900010D9213D1731C0022DBB24BF492
:10516000805B1446112BCDE9002428BF11230EAA21
:1051700000F0FCFAC3B2049302230E9F0593FAE6F3
:10518000B9F1660F05D14BF4005B344601221123BF
:10519000E8E7F3B2012B4FF0000238BF01231446B9
:1051A0004FF06509DEE70223F6E6002B3FF409AF76
:1051B000BAF1030F3BDC9DF83C30A64E13F0080F0C
:1051C000A54B08BF1E463746B94617F8010BB0BBC2
:1051D000AE1BB1447BE033BB2B23F2E62BBB2D236C
:1051E000EFE62022BAF1040F13DD1BF0080FAAF13D
:1051F00004040FD12C44039B04924146202098477D
:10520000002805F10105FFF6D8ADA542049AF2D1B8
:105210009AB10024039B414610469847002805F1A7
:105220000105C8DAC9E52B22DCE72D22DAE71BF0FD
:10523000080FAAF10304BED1DCE71446BBE7069BC6
:10524000C01A4146039BC0B298470028BCDAB4E5B7
:1052500004990139C9B20491BDE6561ED4E6002670
:10526000D2E61BF4006F059A0CBF032405241444F6
:10527000D2E61BF0100F18BF0134D4E60B93414661
:10528000039B2020984700280B9B05F10105BFF6E2
:10529000D3AE92E5039B414630209847002805F1A4
:1052A0000105BFF6F2AE88E598470028FFF685AD08
:1052B0001BF0100F0BD0BAF1FF3F08D105F1020926
:1052C00041462E20039B98470028FFF676AD4D46B9
:1052D0004C4433E29DF83D00039B4146984700282B
:1052E000FFF66BAD002E69DD039B41462E209847EB
:1052F0000028FFF662AD4FF0010A049B9A45BBBF40
:105300000EAB534430205879039B41469847002800
:10531000D346FFF652AD0AF1010A5645EDDA0235E1
:105320005D44069BA9EB03004146039BC0B298472E
:105330000028FFF642AD002FB4BF2D202B20039B89
:105340004146B8BF7F4298470028FFF636AD059B1F
:10535000042B41D14FF47A79B7FBF9F606F130000E
:10536000039B4146C0B29847002805F10305FFF6AC
:1053700024AD09FB16774FF06409B7FBF9F606F187
:105380003000039B4146C0B29847002805F1010553
:10539000FFF613AD09FB16774FF00A09B7FBF9F6D4
:1053A00006F13000039B4146C0B29847002805F142
:1053B0000105FFF602AD09FB167715E01BF0100F93
:1053C00001D10135ADE7039B41462E2098470028C7
:1053D00005F10205A5DAF0E4059B032B05F10205B2
:1053E000C9D0059B012BD7D107F1300005F1010988
:1053F0004146C0B266E7A7F16303122B00F2FF80BB
:10540000DFE813F013005700FD00FD00FD00FD0074
:105410005700FD00FD00FD00FD00FD001701F80034
:10542000FD00FD002C00FD00B9000D9B1A1D1B683E
:105430000D928DF8383001240EAF1BF0080F2ED0DE
:105440003E19B946B1452CD1EF1BB944AAEB04046F
:105450003DE700BF9D960000999600000D9B1A1D28
:105460000D921F68AB4B002F08BF1F461BF0400F6B
:1054700014BF31464FF0FF31384603F022FA04469C
:10548000DBE7039B4146202098470028FFF695ACB8
:10549000013EB442F5D35544AD1BB246D0E7564663
:1054A000F7E719F8010B039B414698470028C9DA32
:1054B00083E41BF0800F0D9B35D01BF4007F2DD0B3
:1054C000073323F00703D3E9000103F108020D922B
:1054D0002BF0100900291FFA89F936DA404261EBF6
:1054E000410149F480690DF1380B0A235A4603F053
:1054F000F4F919F0400FA0EB0B0B65D029F0010275
:105500005E4592B240F3B280002F00F0A98019F0FE
:1055100010033446914626D002345CE01A1D186808
:105520000D92C117D4E71A1D1BF4807F19680D92E4
:1055300001D10846F5E71BF4007F15BF48B208B259
:1055400041F3C01141F3C031C2E750EA0103CAD1AF
:105550001BF0400FC7D0002EC5D12BF0110B1FFA46
:105560008BF93446B34640F2064319EA03031CBFE5
:10557000013400232FE02BF0100B1FFA8BFB0A23C2
:105580001BF080040D9A57D01BF400711DBF073229
:1055900022F0070202F10801101D19BF0D91D2E996
:1055A00000010D90106850EA010252D12BF016094B
:1055B0001BF0400F1FFA89F94FD0002E4DD12BF070
:1055C000170B1FFA8BF9B34619F0100352D0002FB6
:1055D0004ED10BF1010419F0080F5ED119F0010F43
:1055E00006D0A2456EDDAAEB040404EB0B0654467C
:1055F00022464DE04BF0100B10237827C0E7B9F19D
:10560000780F04D1C7F1780343F01003B8E7039B88
:105610004146252098470028FFF6CFAB039B414623
:10562000384698470028FFF6C8AB0235079BFFF7BE
:10563000B5BB08230027A3E7111D0D911BF4807152
:105640001068B0D01BF400711ABFC0B2214680B2FE
:10565000A9E72BF0060B1FFA8BF90DF1380B45E784
:1056600029F011091FFA89F934467CE79146ABE726
:105670005C4651E75C4676E7CDE904234146039B4F
:10568000202098470028FFF698AB049A059B01322A
:105690009245F1DC2C1BA5181446F3B1039B41463F
:1056A000302098470028FFF688AB6FB90135A9462E
:1056B0002E44A6EB09035B4521DC5D460EAE5DBBC7
:1056C000D944C3E65E4693E7023541463846039B1C
:1056D00098470028EBDAFFF770BB40F2064319EA5F
:1056E000030FE4D019F0020F14BF2B20202019F46F
:1056F000806F05F10105414618BF2D20E7E7039BA8
:10570000414630209847002809F10109D1DAFFF716
:1057100054BB00BFA1960000013D039B705D414654
:1057200098470028CBDAFFF748BB039B414620206F
:105730009847002805F10105FFF63FAB631B002BDE
:10574000F3DC73E71FB502AB0093074A4FF0CC338D
:1057500003F0A6F9DDE90201C00840EA4170C9087A
:1057600005B05DF804FB00BFCDCCCCCC2DE9F04FEB
:105770009BB0044605920A460A93C2F30A559DF867
:1057800090300B93D20FC1F313030992090D7DB929
:1057900050EA03021BD1059A30235371099B15600F
:1057A00043F002031371012738461BB0BDE8F08FA8
:1057B00040F2FF7295424AD10343099B059A14BFF8
:1057C00043F0080343F0040313710027ECE700F0F3
:1057D000010208924FEA83080122AC4D48EA907812
:1057E00087009A461646C5F1000B5846069200F00F
:1057F00011FAB5F1FF3FACBF8146A0F10109ABEB57
:10580000090B09EB05035846049300F009FA16A9A1
:10581000A0F17D05584600F023FA12AB069A0193D9
:10582000A9EB050510AB0292009320462B4616AA61
:10583000514603F07AF8B9F1010F04460D4600F223
:10584000D280089B002B40F0C58001276BE043F419
:10585000801A00F001024FEA8A080343A5F2354599
:10586000089248EA90784FEA800749D140F2FE73E7
:1058700019420CBF01260026002D3246B3DB284614
:1058800000F0C2F9032DC8BF0138049000F0C8F938
:10589000049B7C305D1B054416A9184600F054FAA1
:1058A00012AB019310AB009320462B46029616AA2A
:1058B000514603F03AF8049B152B04460D4600F2BE
:1058C000868014AB724A009338464FF0CC33414681
:1058D00003F0E6F8149B159A9B0843EA827303EBE6
:1058E0008303BB42DDE9109A0CD13846414600F0F3
:1058F0009FF9049B83428CBF00270127002612E0FA
:105900000126B9E7089B002B51D1013F48F1FF3137
:10591000B81B61F1000100F08BF9049B089F8342E2
:105920008CBF002601260B9B002B40F09180DDF8F8
:1059300028B04FF00008CDE906884FF00A0ADDE9EB
:105940001001FFF7FFFE129B0E93CDE90C011846E4
:105950001399FFF7F7FE0C9B0D9A0F9198420B4697
:105960009341814680F08E8020462946FFF7EAFE6B
:105970000E9A0AFB09F3934214BF002606F00106B3
:105980000C9B10930D9BCDE911390F9B1393079B33
:10599000B8F1000F14BF002707F0010701330AFB1D
:1059A00010485FFA88F8079304460D46C7E7B81C0D
:1059B00048F1000100F03CF9049B83428CBF0020B9
:1059C0000120B9EB00006AF10002CDE910020027C6
:1059D0003E46A8E7109B119A013B42F1FF32CDE908
:1059E000103201278AE7B9F13E0FF0D84FF0FF33AC
:1059F000A9F1200003FA09F203FA00F0C9F120012D
:105A000023FA01F102430A4303FA09F327EA0307E1
:105A100028EA020857EA08070CBF012700276DE7AC
:105A200000FB02FCA1FB0012013362448C4275EBC7
:105A3000020CF5D2049ADDF828B01344259A1344D9
:105A4000D20F9342B8BF13469B45A8BF9B4670E751
:105A50000A21002201230846E8E70AFB03F0A2FB23
:105A60000A2301310344944275EB0300F5D25945F2
:105A700010DDBBF1000F02D154EA05030AD0012367
:105A8000069371E70A2200230121ECE7CCFBFFFF1C
:105A9000CDCCCCCC002E2FD04FF00A0A129B1399FC
:105AA0000D931846FFF74EFE0D9B0C910AFB00F27A
:105AB0009A42814620D1DDE91001FFF743FE0E90A6
:105AC0000D9120462946FFF73DFE0D9B0E9A109240
:105AD000CDE911390C9B1393079BB8F1000F14BF4C
