:1000000040340020152B0000DB980000012B00007D
:10001000012B0000012B0000012B0000000000005C
:100020000000000000000000000000008D2C000017
:10003000012B000000000000252C0000012B000017
:10004000552E0000552E0000552E0000552E0000A4
:10005000552E0000552E0000552E0000552E000094
:10006000552E0000552E0000552E0000552E000084
:10007000552E0000552E0000552E0000552E000074
:10008000552E0000552E0000552E0000552E000064
:10009000552E0000552E0000552E0000552E000054
:1000A000552E0000552E0000552E0000552E000044
:1000B000552E0000552E0000552E0000552E000034
:1000C000552E0000552E0000552E0000552E000024
:1000D000552E0000552E0000552E0000552E000014
:1000E000552E0000552E0000552E0000552E000004
:1000F000552E0000552E0000552E0000552E0000F4
:1001000053B94AB9002908BF00281CBF4FF0FF317E
:100110004FF0FF3000F00CB8ADF1080C6DE904CEE3
:1001200000F010F8DDF804E0DDE9022304B07047C8
:10013000704700BF034613F8012B002AFBD1181AA1
:10014000013870472DE9F04786468C460846089EE0
:10015000154674461946002B40F0C2808542B2FA1B
:1001600082F245D94AB1C2F1200300FA02FC2EFA0C
:1001700003F3954043EA0C0C94404FEA154EA8B2A5
:10018000BCFBFEF8230C0EFB18CC08FB00F943EA7D
:100190000C43994528D9EB1808F1FF3704D299454B
:1001A00002D9A8F102072B44A3EB0903A4B2B3FBC5
:1001B000FEFC0EFB1C330CFB00F044EA0344A0429F
:1001C00014D92C190CF1FF3304D2A04202D9ACF19E
:1001D00002032C44241A43EA07401EB1D4400023F2
:1001E00034607360BDE8F0874746DDE76346F1E7BA
:1001F00092BB431B01214FEA154EAFB2B3FBFEFC8D
:10020000200C0EFB1C330CFB07F840EA0343984517
:1002100062D9EB180CF1FF3004D2984502D9ACF149
:1002200002002B44A3EB0803A4B2B3FBFEFC0EFBBD
:100230001C330CFB07F744EA0344A7424ED92C19A0
:100240000CF1FF3304D2A74202D9ACF102032C44D3
:10025000E41B43EA0040C0E7C2F1200320FA03F1A7
:10026000954090402EFA03F303434FEA154EAFB288
:10027000B1FBFEFC0EFB1C10190C0CFB07F841EA4D
:100280000041884504FA02F422D969180CF1FF30C4
:1002900004D2884502D9ACF102002944A1EB08013F
:1002A0009BB2B1FBFEFC0EFB1C110CFB07F743EAF3
:1002B00001439F420ED9EB180CF1FF3104D29F424B
:1002C00002D9ACF102012B44DB1B41EA004192E769
:1002D0006046E3E76146F7E76046A3E76346B7E7B2
:1002E000834206D916B9002108467BE7C6E900E03B
:1002F000F9E7B3FA83F78FB9834201D3724508D87F
:10030000BEEB020460EB030301209C461EB90021F2
:1003100068E73846FAE7C6E9004CF8E7C7F1200C71
:10032000BB4022FA0CF41C432EFA0CF120FA0CF319
:10033000B84001434FEA14490EFA07F5B3FBF9F848
:100340001FFA84FE09FB18300B0C08FB0EFA43EA77
:1003500000439A4502FA07F240D9E31808F1FF304A
:1003600004D29A4502D9A8F102002344A3EB0A0360
:1003700089B2B3FBF9F809FB183308FB0EFE41EA1A
:1003800003418E452CD9611808F1FF3304D28E4504
:1003900002D9A8F10203214443EA0040A0FB0298DD
:1003A000A1EB0E014145CE46434602D306D14D4551
:1003B00004D2B9EB020E68EB04030138002EA6D07C
:1003C000B5EB0E0261EB030101FA0CFC22FA07F314
:1003D0004CEA0303F940C6E9003198E74046C5E717
:1003E0004346D9E7012800D0704708B54FF6FF73A0
:1003F000994200D008BD012300220421044807F0DF
:100400008AFF012300220421024807F006FFF1E7DA
:10041000340E0020180E002010B5114808F0E1FB42
:10042000104C204607F0CEFE0F4808F0DAFB012101
:10043000204607F03DFF1A21204607F04AFF012120
:10044000204607F016FF094808F0CBFB00210548BD
:1004500007F0F3FE4FF4203000210BF07AF8F2E7BA
:10046000C8C00000180E0020ECC0000000C1000051
:10047000082A3DD92DE9F0418CB00546884616463C
:100480001F4600242FE0322249F27041284607F02F
:100490005BFF40F6B831284607F057FF40F6B83109
:1004A000284607F057FF32230A93002309930123BC
:1004B0000893262307930696CDF814800D4B0493DA
:1004C0004FF40273039340F28A220292019340F2A6
:1004D0007260009041F2CC0240F6B831284607F035
:1004E000AEFF0134A4B2BC42CDD90CB0BDE8F0815E
:1004F000704700BFF049020070B400F01F0C4009C3
:1005000019D001281AD10E4D0CF5E07055F8206075
:100510000C4C344041EA420141EA83039DF80C202F
:1005200043EA02239DF8102043EA0243234345F89F
:10053000203070BC70474FF0A045E5E70025E3E7A9
:1005400000030050F0F8FCFF10B588B02022002115
:1005500068460BF0CDF82B2300934FF0FF33019347
:100560000293039307238DF8143004238DF815307C
:100570004FF47A73ADF8183040F2A513ADF8183087
:1005800000228DF815200E480346694604F0E4FC6D
:100590000C4B984205D001460B4808F022FB08B0EE
:1005A00010BD0A4BD2221A80094C0A4B0FCB84E8AB
:1005B0000F00022301222146014804F0F7FCEEE778
:1005C000C80400200000AD0B1CC10000341700203F
:1005D000540E002010BE000008B54FF0A042D2F823
:1005E0000435D94301F40051C2F8081503F400534F
:1005F000C2F80C35B0F5A07F00D008BD03480AF062
:10060000F6FC034805F072FAF7E700BFC0040020CB
:10061000440E002010B5074C204604F0A7FB064B03
:100620001968064B1A68043201F5A071207804F0AD
:10063000A5FB10BD36170020C0040020C804002010
:1006400000B585B000220621092009F07FF9124B80
:10065000019300238DF808308DF8093007228DF8BA
:100660000A20039303238DF809300C4803900C4AA9
:1006700001A904F053FD0B4B984206D001460A48ED
:1006800008F0AFFA05B05DF804FB044804F070FD13
:1006900007F045FFF6E700BF0024F400C004002087
:1006A000D90500000000AD0B34C1000008B50122DF
:1006B000002105480AF0D9FDFFF746FFFFF7C0FF0C
:1006C000FFF7A8FF08BD00BF440E002070B5054627
:1006D000144E304605F076FA134C20460AF087FC9B
:1006E000294620460AF087FC0246012300212046C5
:1006F0000AF093FC0D4D287804F06EFB02230122D2
:100700000B490C4804F052FC20460AF06CFC4FF0F8
:10071000FF324FF0FF33304605F02CFA287804F012
:1007200081FB70BD440E0020C0040020361700205D
:10073000540E0020C804002070B50546104E304607
:1007400005F040FA00210F4804F07EFC0E4C2046D4
:100750000AF04DFC294620460AF04DFC02460123D2
:10076000002120460AF059FC20460AF03CFC4FF0DC
:10077000FF324FF0FF33304605F0FCF970BD00BF8B
:10078000440E0020C8040020C00400202DE9F04FD2
:1007900091B005920293134602F004020092C3F353
:1007A000C20210F00303019340F02B8280468A4678
:1007B0000132041D00284FD0B8F1000F05D0A4EB82
:1007C00008030433534500F21F82029B5D1E019B08
:1007D00004930693039300264FF0FF3B0427B9468A
:1007E000B8F1000F01D0029B2360531E0793002A2B
:1007F00040F35D81059B13F0020228D00120A4EB99
:1008000008018B081AB1B1F5007F80F003820399CB
:100810000F2900F20282B8F1000F00F06081DBB214
:1008200001F140026A4402F8103C02F820BC0028A2
:1008300000F0518163F07F0301F140026A4402F845
:10084000103C049B01330493039B01330393043452
:100850000022CC4640463DE001F0070A5444CAF16C
:10086000080AA9E7002634E0002632E0002630E03E
:100870000827BC462DE025292BD10BF1010B0126C1
:100880000427BC4625E04729EED82A2914D32A3963
:10089000C9B24FF0010E0EFA01F14FF6DA7E11EAFD
:1008A0000E0F16D111F0625F40F0C08011F0010F01
:1008B00040F08C8000260CE0252903D10BF1FF3B92
:1008C000002606E001D9002603E0202901D02329D3
:1008D000CCD11D466B1C6978002900F01981002ECF
:1008E000C9D07A29BED84C29CDD34C392E2961D80C
:1008F0000FF2040E5EF821F0D3080000B5090000E5
:10090000B5090000B5090000B5090000B5090000EF
:10091000B5090000B5090000B5090000B5090000DF
:10092000B5090000B5090000C5090000B5090000BF
:10093000B5090000B5090000B5090000B5090000BF
:10094000B5090000B5090000B50900002D0A000036
:10095000B5090000C5090000C50900002D0A000006
:100960002D0A00002D0A0000D3080000C509000070
:1009700071080000B5090000D3080000B5090000A7
:10098000890A0000C5090000890A0000B5090000B5
:10099000B5090000910A0000BF090000C509000068
:1009A000B5090000B5090000C5090000B50900003F
:1009B000B909000000268CE70427BC4689E7042714
:1009C000BC4686E729786C2924D000263C44013CAB
:1009D000B4FBF7F407FB04F420B1211A614451453C
:1009E00000F21581002A58D1BCF1040F00F0888074
:1009F000BCF1080F40F014811A99073121F007016A
:100A000001F108051A95D1E9008908B1C4E9008906
:100A100008345EE713F8021C6C2903D00026042773
:100A2000BC46D3E700260827BC46CFE729784C29E7
:100A30001AD01A99073121F0070101F108061A9618
:100A4000D1E90067073424F0070440B1211A0831C6
:100A5000514513D829784C2913D0C4E900670834CC
:100A600000260827BC4634E71A99073121F0070110
:100A700001F108061A96D1E90067E3E76FF01B0061
:100A8000BCE0C4E90067EAE700260427BC469DE70E
:100A9000324600260427BC4698E7E14680461A9A6B
:100AA000111D1A9112680292079A1D4698E6624B30
:100AB000029A9A4204D3614B9A420AD3002300E07F
:100AC0000023002B7FF496AE059B03F0020200206A
:100AD00095E60123F5E7069B01330693B4E610B1D2
:100AE0000AF1010AB0E6009B13B10AF1020AABE673
:100AF0000298FFF71FFB0AEB000303F1020AA3E6CB
:100B00001A990D1D1A95096800B121600434E0E6B8
:100B10008046231AB3F5806F80F0858090B1002263
:100B200002609B080370009B83B1069BC370049B0B
:100B300088F802301BBB019DDDF80C90DDF810B089
:100B4000029F3DE05344A3F1080057E0069B437029
:100B5000EDE701339842EED903F140026A4412F8FE
:100B6000101C12F9102C002AF3DA01F07F01A4EB1B
:100B700008020132524559D804F8011BE9E7019BEC
:100B80000398E7E7009B43B305F140036B4413F878
:100B9000203C04F8013B019EA4EB080333440133DD
:100BA000534546D805F140036B4413F8103C04F854
:100BB000013B3246394620460AF08CFD344401356B
:100BC000A94519D9BBF1000FDCD005F140036B44F6
:100BD00013F9103C002BD5DAF1E705F140036B4423
:100BE00013F8103C58F82370002248F823203846A8
:100BF000FFF7A0FA461CCFE7A4EB080011B0BDE850
:100C0000F08F6FF00D00F9E76FF01B00F6E76FF063
:100C10001B00F3E76FF01500F0E76FF01500EDE74C
:100C20006FF01500EAE76FF01500E7E76FF01B00C3
:100C3000E4E76FF01B00E1E7C0BA000068CE0000F7
:100C40002DE9F04F97B000AF8346BA613B61D7F80A
:100C50008030C3F3C0033B62F96011B907F039FF7C
:100C6000F8609BF80260B14636B1D7F8803013F0D7
:100C7000010F0DD1002300E000239BF803207A62CE
:100C800042B1D7F8802012F0020F22D1002202E0F8
:100C90000123F2E7002202B9EBB19BF80050AA0051
:100CA000BA60DBF804207A610BEB8505BA69F2B112
:100CB000002B40F00481B9F1000F00F00F81D7F84C
:100CC000803013F0040F40F00D810020F8610646DB
:100CD000F9E00122DFE7BB691BB13A69F9685846C0
:100CE0009847FC6820465C37BD46BDE8F08FFC683D
:100CF000E3B94D4400233B6123E004440135013650
:100D00004E451AD22A7800235BF822201946B8698A
:100D100007F0F4FEBAF1000FEFD0D7F8883098450D
:100D2000EBD22AF8180008F10108E6E70026C7F818
:100D30001C80B046D7F884A0E2E7C7F81080D7F847
:100D40001C80D7F8803003F00503FB604FF0000AE9
:100D5000A146C7F81CB09CE000253B6A7BB9002D7A
:100D600079D0D7F8803013F0010F79D1FB68002BD0
:100D70006FD10223A9EB030988E00125EDE759466D
:100D8000786907F001FF0028E9D06C46002387F856
:100D90002C30022387F82D308AB0694611F11002F9
:100DA00037D012251AB1042D01DDB34B4B6100235E
:100DB00087F82830022387F829306ABB112D45DDDA
:100DC000122362B1042087F82C00002087F82D0040
:100DD00087F82E00012087F82F00F86A08616FF36A
:100DE00000086FF341086FF382086FF3C508022112
:100DF00061F38818C3F30A0363F353286FF31F5892
:100E0000002341469D4800F07BFDA546A9F102095B
:100E10003CE06FF00045C5E72B46082D01DD786901
:100E200088610C2B01DDC1F81CB001F1200300200A
:100E300009E000F1300C07F1280EF4441CF830CC26
:100E400003F801CB01300128F3D9B7E76FF01B039A
:100E5000B7E701238EE7D7F8803013F0020F15D0E3
:100E6000002322461946B86907F048FED7F88430B7
:100E700053B13B69D7F88820934205D2D7F8842034
:100E800022F8130001333B61013881440AF1010A61
:100E900035467B6A9A4510D22E4616F802BB6B780F
:100EA000FA6952F82340764B9C42FFF455AF754BDC
:100EB0009C42FFF462AF00254FE74C4612E707F172
:100EC00044000023FB6118B14A4629460AF002FC9F
:100ED0004D444FF00008C7F804901EE00020F86170
:100EE0000646F0E7FE6107F134000026EBE7002537
:100EF0003B6A33BB002D3BD0D7F8803013F0010F95
:100F000026D0731C06F1300207F12801561806F8A6
:100F1000149CDEB208F1010825467B6A98454AD246
:100F20002C4614F802AB95F801905BF82930544A2E
:100F30009342DCD3534A934201D30025D8E70125DD
:100F4000D6E75146786907F01FFE0028D2D0E1E7C6
:100F5000D7F8803013F0040FDCD0FA69531C30321C
:100F600007F128010A4402F8249CDBB2FB61D1E7B7
:100F7000D7F8803013F0020F09D0731C06F130024D
:100F800007F12801561806F8149CDEB2C2E7F8698A
:100F9000431C00F1300107F128028A1802F824AC42
:100FA00002460232D2B2FA6107F1580252FA83F3D2
:100FB00003F8249CAEE7D7F804909BF8003087F83C
:100FC00054309BF80130334487F85530D7F88030DF
:100FD00013F0020F0ED1FB69C3F3470387F85730B4
:100FE000D7F8803013F0010F06D113F0040F3ED173
:100FF000002302E00023F1E7002387F85630DBF8F6
:1010000000003863786DCBF80000D7F810804246B6
:10101000B9685846D7F818A0D047041EFFF662AE4C
:10102000386BCBF80000C7F810804246F96907F129
:101030003400D04700285EDB04EB0008B96849445F
:101040007B6A01EB4301D7F810904A46FB68591AB6
:101050002846D047041EFFF645AE08EB04054FF0C6
:101060000008C7F824B0B3465446CA4621E0FB69DD
:10107000C3E74FF0000909E04CC1000064BD000067
:10108000C0BA000068CE00004FF0000952460121AE
:1010900007F12C00A04700282FDB05444B463246C1
:1010A0005146204607F02AFD002828DB054408F1B8
:1010B0000108D84518D208F1300307F1280213447B
:1010C00013F8143C87F82C307A6A52F82360D7F86A
:1010D0008430002BCDD0D7F888309845D4D2D7F8BB
:1010E000843033F81890D1E73A6900210846BB698B
:1010F00098472C46F6E50446F4E50446F2E5044636
:10110000F0E500BF014B1860704700BFD00400201D
:1011100080B505460E461746984605F095F90346F4
:101120000AF0C4FC0446DFF8189049F80030424643
:1011300039463046A84754F8090001F059FD00BF70
:10114000080000002DE9F04383B004460846154628
:10115000A38B13F0080F05D103F0070600230093BB
:10116000019354E0012909D043F02003A38385F3C0
:101170001188BFF36F8F03B0BDE8F08343F0100315
:10118000A383F4E7204608F060F842E0D4F8189012
:101190004A466946204608F071F84FF00008A38BD4
:1011A00003F00707B74269D0A268002A66D001227F
:1011B00043F00803A38385F31188BFF36F8F002AE0
:1011C00064D1009B2BB14B463A466946204608F055
:1011D000CEF8B8F1000F02D034492046C047EFF3F3
:1011E0001185202383F31288BFF36F8FA38B23F025
:1011F0000803A383A38B13F0100F4DD023F010032B
:10120000A3830120A68B06F007060028AFD0022892
:10121000B8D00028ABD0013804282BD801A353F84C
:1012200020F000BF8D11000075120000391200007F
:101230004D120000611200002369D3F800800621DE
:10124000204607F0D8FF4FF00009A8E72369D3F83C
:1012500004800421204607F0CEFF4FF000099EE7EE
:101260002369D3F808800521204607F0C4FF4FF01A
:10127000000994E74FF00008C14690E7009A0AB1D0
:10128000002295E7B8F1000F92D1B3E74A463946FC
:10129000204607F0B8FF94E713F0200F04D023F0A6
:1012A0002003A3830220ADE70020ABE79D9300005D
:1012B00038B505460B4C00E010340B4B9C420FD266
:1012C00063685B79002BF7D02946204608F026F9A1
:1012D0000028F1D023681B68294620469847EBE791
:1012E00038BD00BFACBD0000CCBD000070B50646E7
:1012F0000D46084C04E02A463146204698471034F3
:10130000054B9C4204D223689B69002BF3D1F6E77E
:1013100070BD00BFACBD0000CCBD00002DE9F041A8
:10132000074605460AE007EA0807144B03EB0613D5
:101330005B6804221968204600F0B4FAD5B195FA2A
:10134000A5F6B6FA86F60D4C04EB06140123B3405D
:101350006FEA030825EA0305237B002BEED0330157
:10136000064AD3581B69002BDDD020469847002839
:10137000E4D1D8E73846BDE8F08100BFACBD00003D
:101380002DE9F04180460F46204BBFF35B8F53E8B9
:10139000005F6A1C43E800210029F8D1BFF35B8F8E
:1013A000002D2FD11A4C002607E06368042219682B
:1013B000204600F077FA01361034164B9C4213D2C7
:1013C000237B002BF7D02368DB680BB120469847BE
:1013D00023681B69002BE8D0204698470028E4D0FA
:1013E0000123B3401D43E6E7B8F1000F0BD055B120
:1013F0002846FFF793FF0546002FF8D00A2008F093
:1014000093F8F4E700252846BDE8F0817C0E002023
:10141000ACBD0000CCBD000008B5064B186018B18B
:10142000054B1B68092B00DC08BD044804F05EFB7B
:10143000FAE700BF700E0020780E0020C4060020DE
:1014400008B5024804F052FB08BD00BFC4060020E6
:1014500030B589B000220F490F480AF013F90F4D3B
:1014600000220023CDE90623002404940E230393D5
:101470000294019400940A4B4FF4407209492846A3
:1014800009F03BFF0849284604F0DEFB204609B07E
:1014900030BD00BF41140000900B0020D806002092
:1014A000FD1700004017002004C20000014B53F854
:1014B0002000704720C2000048B108B5054A1060FE
:1014C000054B1960084600F00FFD002008BD6FF0C5
:1014D00015007047D40400206C0E002008B5054BA1
:1014E0001B781BB1034B01221A7008BD024804F09F
:1014F000FDFAF7E737170020C406002008B5104BA7
:10150000BFF35B8F53E8001F013143E80012002A4C
:10151000F8D1BFF35B8F30B90A480AF0BFF80A4828
:1015200004F0E4FA08BD094BBFF35B8F53E8001FDA
:10153000013943E80012002AF8D1BFF35B8FEBE7D3
:10154000740E0020900B0020C4060020780E0020AE
:10155000064B00200146BFF35B8F53E8000F43E8C2
:101560000012002AF9D1BFF35B8F7047740E002080
:1015700038B5FFF7EDFF0546094C00E01034094B84
:101580009C420BD263685B79002BF7D023685B68C1
:10159000002BF3D0294620469847EFE738BD00BF1F
:1015A000ACBD0000CCBD0000034B18680028D4BFC0
:1015B00000200120704700BF740E002010B5044CBD
:1015C0000449204607F072FC034B1C6010BD00BFAD
:1015D0001C0600200CC20000680E002008B5002385
:1015E000064A1370064A1360064A13604FF400411E
:1015F0000548FFF761FFFFF7E1FF08BD381700203E
:10160000740E0020780E00202195000008B50146D8
:10161000014807F09FFF08BD1C06002008B50248DE
:1016200007F027FD08BD00BF1C06002008B50146D5
:10163000024B186807F094FF08BD00BF680E002039
:1016400008B5024807F090FF08BD00BF1C06002047
:1016500010B582B000220023CDE90023284B187872
:1016600008B902B010BD684607F096FF044688B17D
:10167000244BBFF35B8F53E8001F013943E800128E
:10168000002AF8D1BFF35B8F2046FFF711FE2046FA
:10169000FFF7CCFFFFF788FF58B91B4A1368516862
:1016A00013F57A7341F1000113605160FFF7C8FF31
:1016B000D7E709F0D8FF4A0142EAD06243011B1A7A
:1016C00062EB0102920042EA93729B001B1842EB0C
:1016D0000102D20042EA5372C3F3103343EA424399
:1016E000D20B0948016840685B1A62EB000240F2C5
:1016F000E9318B4272F10002CFD3FFF739FFCCE71B
:1017000037170020780E0020880B00200F4B1B7825
:1017100003B1704710B500210120FFF731FE0C4CDA
:1017200000E010340B4B9C4208D263685B79002BBD
:10173000F7D023689B6820469847F2E7FFF788FFB9
:101740000028FBD1014B01221A7010BD3817002070
:10175000ACBD0000CCBD000010B582B01A4BBFF389
:101760005B8F53E8002F511C43E800100028F8D18C
:10177000BFF35B8F154B1B7863B9154B1B68B3B177
:10178000BAB1092A13D1134809F088FF124804F0AE
:10179000ADF90CE0EFF31184202383F31288BFF33B
:1017A0006F8FFFF755FF84F31188BFF36F8F02B07F
:1017B00010BD00220023CDE900234FF40042002396
:1017C000044805F067F9F2E7780E0020381700208A
:1017D000700E0020900B0020C406002010B50446B7
:1017E000044B1B689847A0602146034807F0D8FEC9
:1017F00010BD00BFD40400201C0600202DE9F041DC
:1018000000210846FFF7BCFD804650B140F26766F4
:1018100000270AF04BF9154B1858FFF7FDFD00257E
:1018200015E04FF0FF364FF0FF37F2E74046FFF785
:1018300075FD804670B94FF0FF364FF0FF3709E075
:101840002C4632463B460A4804F094F92546B8F146
:10185000000FEBD1FFF7FCFE04460028F6D1002D67
:10186000EED000210846FFF741FDEAE7080000003E
:10187000C40600200248034BC01AC008704700BFCE
:10188000ACBD000064BD000010B50C46FFF7F2FFD0
:10189000A04203D9024B53F8340010BD0020FCE7EE
:1018A00064BD000008B5094BC31A1B110133D0F801
:1018B00004C08CF8043043689A7143681960436827
:1018C00001225A71FFF70AFE08BD00BFACBD00003F
:1018D00000B589B0059206930023079362B1074AC9
:1018E0000C9B02930B9B01930A9B009305ABFFF7A4
:1018F000A7F909B05DF804FB0022F1E7B1950000FB
:101900002DE9F04F8BB004AF05461E468846C1F363
:101910004A24002C00F0898091460022FA603A6146
:101920007A6104230293FB1801930A23009307F1C1
:101930000C0321464846FFF783F9B0F5006F58D3F2
:10194000D9F804106D4600233B7302237B738AB0E1
:1019500004AC14F1100217D012201AB1042801DDD2
:101960003B4B636100233B7002237B70CAB103468B
:10197000082800DDA1610C2B02DD40F2FF73E3615A
:1019800004F1200300210AE06FF00040E5E701F1D7
:1019900018063E4416F8186C03F8016B0131012952
:1019A000F5D9112822DD122342B104213973002117
:1019B0007973B9730121F973F868206100216FF31D
:1019C00000016FF341016FF382016FF3C501022043
:1019D00060F38811C3F30A0363F353210023C1F3B7
:1019E00013011C4807F057FEAD462DE06FF01B03B6
:1019F000DAE760F35328C0F30A0A0AEB18501730ED
:101A000020F007008008FFF701FE8346B0B10423F1
:101A10000293FB1801930A230093534600F110022E
:101A200021464846FFF754FF08E004EB11541734F1
:101A300024F00704A008FFF7E9FD83463346424639
:101A40002946584607F0CAFD1C37BD46BDE8F08F51
:101A500040C2000074BD00002DE9F04F85B0804603
:101A60000D4617461E46DDF838B0DDF84090B9F156
:101A7000000F41D0119B039300934B460F9A102106
:101A80000020FEF783FEB0F5006F2DD282460BEBEF
:101A90000003173323F0070300246FF300046FF3F0
:101AA00041046FF3820468F3C50467F3881460F39C
:101AB00053246BF31F549808FFF7A8FD074650B155
:101AC0001030B9F1000F06D0119B00934B460F9ACE
:101AD0005146FEF75BFE334622462946384607F05C
:101AE0007DFD05B0BDE8F08F40F2FF73034A02218F
:101AF000034807F0C5FDF4E70020C7E780C20000F7
:101B000074BD0000406820B1034BC01A40F3CF0001
:101B100070474FF0FF30704764BD00000EB400B551
:101B200082B0014603AB53F8042B0193034801F044
:101B3000A3FA02B05DF804EB03B07047CD96000045
:101B400010B584B011F0440F05D01A4B1B6833B99F
:101B5000002004B010BD1849FFF7E0FFF9E717496E
:101B60000968B2FBF1F2B2FBF3FC03FB1C224FF459
:101B70007A7E0EFB02F2B2FBF3F403FB14210EFBA0
:101B800001F1B1FBF3F10E4AA2FB0C32D20A4FF481
:101B9000616303FB12CC0B4BA3FB0CE35B090291CB
:101BA0000194C3EB0311ACEB810100910649FFF7EF
:101BB000B5FFCEE7840E0020B8C20000800E0020E2
:101BC000C5B3A29189888888C4C2000061B108B5F4
:101BD0002AB1064A52F8232012B9054A00E0044A05
:101BE0000449FFF79BFF08BD704700BF64C30000B6
:101BF000E0C20000E8C200002DE9F04105461746AA
:101C0000069EDDF81C8081B900242EB132461149B0
:101C10002846FFF783FF0444B8F1000F14D06FB1DA
:101C2000099B042B13D00C4909E00C4B099A53F87B
:101C300022200B49FFF772FF0446E6E706494246B9
:101C40002846FFF76BFF04442046BDE8F0810549B4
:101C5000F5E700BF00C30000F0C2000078C3000039
:101C6000F8C20000ECC200002DE9F04F87B0054635
:101C70000C46049205939DF84C7001F0020B01F0A4
:101C8000010AC1F3C00801F4807907F08FFC18B392
:101C9000024616492846FFF741FF0646BBF1000FF2
:101CA0001CD13A465146284607F03BFDB9F1000FDA
:101CB00001D0002311930397129B0293119B019370
:101CC000109B00930023049A41462846FFF794FF97
:101CD000304407B0BDE8F08F0026DFE7059A2146C3
:101CE0002846FFF72DFF0644DBE700BF04C30000D2
:101CF00011F0100F0BD108B511F0200F03D00449DB
:101D0000FFF70CFF08BD0349FFF708FFFAE770472C
:101D100080C400008CCC00002DE9F04105460F4640
:101D2000164698460699FFF7E3FF0024444505DA76
:101D300024492846FFF7F2FE0134F7E7002409E0C2
:101D400020492846FFF7EAFE0BE01F492846FFF727
:101D5000E5FE01340F2C0CDC002C02DD14F0070F23
:101D6000EED0B442F1D23A5D18492846FFF7D6FECC
:101D7000EFE717492846FFF7D1FE002409E0114993
:101D80002846FFF7CBFE0BE012492846FFF7C6FEB8
:101D900001340F2C13DC002C02DD14F0070FEED001
:101DA000B44207D23A5D0C4B9B5C13F0970FEBD11A
:101DB0002E22E9E703492846FFF7B0FEE8E7BDE831
:101DC000F08100BFFCC2000010C3000008C3000087
:101DD00014C3000018C3000059CD00002DE9F041E4
:101DE00084B004469DF82C500C9F0E9E95B9012B93
:101DF0001ED019484FF0000827B13B46224617492C
:101E000006F092FEC6B905BB204607F048FC04B0B8
:101E1000BDE8F08103950A980290019300920B4669
:101E200000220F992046FFF71FFF80460C48E3E78A
:101E30000B484FF00008DFE70F9B00934346324604
:101E40000D99204607F085FCDDE72A460F992046CC
:101E500007F073FCD8E700BF059700007930000059
:101E6000CD9600002DE9F04383B00646056842F2A6
:101E70000F738B4228BF0B46184A0521684605F0B0
:101E800071F804467368D3F804900B27DFF850808C
:101E900005E04A4639464046A8473F1A8044002F8D
:101EA000F7D17368D3F804806F4605E042462146B7
:101EB0003846A847241A0744002CF7D173685F6896
:101EC0001B24084E05E03A4621463046A847241A0E
:101ED0000644002CF7D103B0BDE8F083B8C500007C
:101EE00038C300001CC30000074B01221A6004E045
:101EF0004008054A13685B001360044B9842F7D80A
:101F0000034B1860704700BF800E002040420F0056
:101F1000840E0020034B01221A70034B034A1A60FF
:101F2000704700BF39170020B00E0020B40E00200B
:101F300008B5034B01221A70024807F058FC08BD8F
:101F40003A170020B8C30000014B19600020704709
:101F50009C0E002008B518B9074B00221A7008BD66
:101F6000064B1B7823B141F2883009F086F8F6E77A
:101F7000052007F053FCF2E7391700203A1700203C
:101F800038B504460A4B01221A700A4B1B782BB94C
:101F900038BD651E2046FFF7DDFF2C46002003F00C
:101FA000B7F90028F4D0024B1B78002BF1D1EFE7F2
:101FB000391700203A1700202DE9F04107460E4658
:101FC0004FF004080DE032463946002003F038F99E
:101FD000044616E04046FFF7D3FFF4B9134B1B78D5
:101FE000DBB1134B1B78002BEDD109F039F8054616
:101FF00032463946002003F023F90446284609F00A
:1020000037F8002CE6D1094B1B78002BE5D008F1FE
:10201000FF384046FFF79EFFDFE714B9034B1B78FC
:1020200003B934462046BDE8F08100BF39170020CF
:102030003A17002008B50248FFF714FF08BD00BF9B
:10204000B8C3000010B50C46044B1868FFF72EFA11
:1020500003460F2221460248984710BD9C0E0020DF
:10206000B8C3000070B506460D46002405E0315D9A
:10207000044883685B6898470134AC42F7D328462C
:1020800070BD00BF6CBB0000014B036000207047B7
:102090001CC4000008B5034806F0A3FD024806F082
:1020A000A0FD08BD1CC4000054C4000008B50248CF
:1020B00004F090FD08BD00BF84C40000B0F5680FB7
:1020C00017D00CD840F6BA63984214D0B0F5683FE8
:1020D00013D03A2801D00120704700207047094BE7
:1020E00098420CD0084B984201D001207047002044
:1020F0007047002070470020704700207047002084
:10210000704700BF3A00003A2C5F5CA9E8B108B5FF
:102110004268B2F5683F07D00F498A421AD000687A
:1021200003F08EFC002008BD03680022BFF35B8F24
:1021300053E8001F012903D143E800200028F7D10C
:10214000BFF35B8F04D11046EDE76FF4E0407047BA
:102150000248E8E70248E6E72C5F5CA9E98FFFFF49
:10216000EA8FFFFF30B308B54268B2F5683F0CD084
:1021700012498A421CD000684FF0FF324FF0FF3303
:1021800003F0DEFB88B10E480FE003680122BFF3C5
:102190005B8F53E8001F002903D143E8002000288B
:1021A000F7D1BFF35B8F01D1002008BD0448FCE7E5
:1021B0000448FAE76FF4E040704700BF2C5F5CA969
:1021C000E98FFFFFEA8FFFFF10B50446A8B16368EF
:1021D000B3F5683F10D0B3F5680F0DD00D4A9342A8
:1021E0000AD013F4686F0DD021680B4808F0B5FFD2
:1021F00000232360074B636010BD084B5B680848F1
:102200009847E4E7236800221A605A609A60DA600F
:102210001A61EFE72C5F5CA9F4130020B4050020DD
:102220008CC4000010B5044668B36068B0F5683F20
:1022300028D0B0F5680F25D0174B984228D0FFF76B
:102240003DFFC0B14FF0FF324FF0FF33214613483E
:1022500003F044FB08B923681BB9114B5B681148B4
:102260009847236800221A605A609A60DA601A61FF
:102270004FF468636360206808F0F0FF636843F020
:102280003A03636010BD064B5B6807489847CCE78C
:102290002368002BD3D1D5E72C5F5CA9F413002071
:1022A000B4050020B4C400008CC4000008B540236D
:1022B00014220449044808F041FF0449044804F08A
:1022C000FBFC08BDF40E0020F4130020E4C4000061
:1022D000F8C400002DE9F04182B000AF0446D0F808
:1022E00000E0D0F804C085686E468AB06B4613F1F2
:1022F000100200F0888014218AB10846042903DD09
:10230000DFF81C81C3F81480082801DDC3F818E049
:102310000C2801DDC3F81CC0102800DD1D62132944
:1023200074DD14253AB10521397100217971B97133
:10233000F9717868186100216FF300016FF34101B2
:102340006FF382016FF3C501012363F38811C5F3B5
:102350000A0565F353216FF31F5100233148FFF73E
:10236000CFFAB546D4F80CC026696569E8468AB04C
:102370006B4613F110024CD0142182B10846042997
:1023800003DDDFF8A4E0C3F814E0082801DDC3F89A
:1023900018C00C2800DDDE61102800DD1D62132945
:1023A0003ADD14253AB10521397100217971B971ED
:1023B000F9717868186100216FF300016FF3410132
:1023C0006FF382016FF3C501012666F38811C5F32F
:1023D0000A0565F353216FF31F51124D0023284660
:1023E000FFF78EFAC546E369104A3146284607F0E2
:1023F00047F9A3690E4A3146284607F041F90837E4
:10240000BD46BDE8F0816FF0004175E76FF01B0538
:1024100088E76FF00041B0E76FF01B05C2E700BF2F
:1024200008C5000094BD000038C5000068C5000064
:1024300078C5000038B504460D4611B10846FFF7CF
:1024400049FF012C04D02946204602F0BDFF38BDCB
:10245000EFF30583103B034A0121034807F010F90D
:10246000F1E700BFA8C5000094BD000030BFFFF732
:10247000FDBF00BF38B50446054D2A46054909F0A1
:1024800029F9054A0021601909F032F938BD00BF69
:102490000000000010BE00000800000070B50646F5
:1024A000064D074B1D444C1B2046FFF7E3FF083C3D
:1024B000C6F8A44005F1080070BD00BF0000000090
:1024C00008000000074B9B6893F90E20002A08DBE8
:1024D000044A5269934204D0034A536843F080533C
:1024E00053607047FC14002000ED00E081690D4B43
:1024F0005A6942F480725A61BFF34F8FBFF36F8FF6
:1025000031F8021C5A6922F480725A61BFF34F8F6E
:10251000BFF36F8F4DF60273994201D000207047D0
:102520000120704700ED00E04FF0000C83F800C080
:1025300002F07F4CBCF17F4F14D102F00C0CBCF1C7
:10254000080F04D012F0080F09D00846704708B5EC
:10255000054A0121054807F089F8002008BD01223D
:102560001A70704700207047BCC5000094BD000081
:1025700008B52B4A01212B4807F078F82A4B9B6AB3
:1025800013F0007F21D11D20274B9B6A13F0807F21
:1025900022D1254B9B6A13F4002F24D1224B9B6A36
:1025A00013F4802F26D1204B9B6A13F4003F28D1CF
:1025B0001D4B9B6A13F4803F2AD11B4A936A6FEA32
:1025C00003436FEA1343936208BD184A012115487B
:1025D00007F04CF81E20D7E7154A0121114807F0F3
:1025E00045F81F20D5E7134A01210E4807F03EF8B1
:1025F0002120D3E7104A01210A4807F037F82220AA
:10260000D1E70E4A0121074807F030F82320CFE731
:102610000B4A0121034807F029F82420CDE700BF29
:10262000E8C5000094BD000000ED00E000C6000019
:1026300014C6000030C6000050C6000078C6000076
:1026400094C6000008B500230B70034A012103481B
:1026500007F00CF808BD00BFC0C6000094BD000024
:1026600090B583B000AF0F2923DC2F4C1039002325
:102670003B7102237B718AB0EC461CF110021AD028
:10268000122022B1042802DD284BCCF8143000239C
:102690003B7002237B70E2B10346082801DDCCF8D1
:1026A00018400C2B01DDCCF81C100CF1200300218C
:1026B0000DE01F4CDAE76FF00040E2E701F108049B
:1026C00004EB070E1EF808EC03F801EB01310129B9
:1026D000F4D9112824DD12234AB1042139710021D3
:1026E0007971B9710121F9717868CCF81000002175
:1026F0006FF300016FF341016FF382016FF3C501C6
:10270000012060F38811C3F30A0363F353216FF3CD
:102710001F5100230748FFF7F3F80C37BD4690BD63
:102720006FF01B03D8E700BFE4C6000018C7000025
:10273000FCC6000094BD0000F8B505460F461446DF
:10274000374A0121374806F091FF374B9B6A13F453
:10275000805F25D11626344B9B6A13F4006F26D177
:10276000314B9B6A13F4007F28D12F4B9B6A13F4E3
:10277000806F3FD12C4B9B6A13F4807F41D12A4B51
:102780009B6A13F4005F43D1274A936A43F47F4363
:1027900093620121284607F0ADF820703046F8BD5D
:1027A000224A01211F4806F061FF1726D3E7204A7D
:1027B00001211C4806F05AFF1826D1E71D4A0121C5
:1027C000184806F053FF184A936B926A12F4004FB0
:1027D00001D11926C9E7184A0121124806F050FF15
:1027E00037B1114A936A23F4004393621926BCE778
:1027F0001926BAE7114A01210A4806F037FF1A26BE
:10280000B8E70F4A0121074806F030FF1B26BBE757
:102810000C4A0121034806F029FF1C26B4E700BF3B
:102820002CC7000094BD000000ED00E044C700008C
:1028300058C700006CC7000088C70000A0C7000090
:10284000BCC70000D4C700002DE9F04104460F4684
:102850001546464A0121464806F008FF454B9B6A4B
:1028600013F0100F3CD11026424B9B6A13F0080F57
:102870003DD1404B9B6A13F0020F3FD16FF015081A
:102880003C4B9B6A13F0010F58D13A4B9B6A13F0F3
:10289000200F5AD1374B9B6A13F0100F04D1354BE0
:1028A0009B6A13F0020F04D0324B5B6813F4006F85
:1028B00052D1304B9B6A13F0200F04D02D4A536A3B
:1028C00023F4005353622B4A936A43F0FF0393624D
:1028D0000121204607F00EF828703046BDE8F0814F
:1028E000254A0121224806F0C1FE1126BCE7234AF1
:1028F00001211F4806F0BAFE1226BAE7204A01213C
:102900001B4806F0B3FE1B4BD3F834809B6A13F0D0
:10291000800F03D16FF015081326B1E74346194A1B
:102920000121134806F0ACFE37B1124A936A23F036
:10293000800393621326A3E71326A1E7124A01211D
:102940000B4806F093FE14269FE7104A0121084821
:1029500006F08CFE15269DE72146404600F016FA4B
:102960000028A6D080F309880226A2E704C8000048
:1029700094BD000000ED00E01CC8000058C7000036
:1029800050C8000068C8000080C80000D4C700001C
:1029900070B506460D462B4A01212B4806F066FE0F
:1029A00000232B70294BDC6A14F002040AD1274B58
:1029B000DB6A002B0DDB254BDC6A14F080440ED162
:1029C000204670BD224A01211F4806F04FFE002418
:1029D000F6E7204A01211C4806F048FEF0E71E4AAF
:1029E0000121194806F042FE3046FFF77FFD98B9F5
:1029F000164B9B6A13F0FF0F16D1144B9C6A14F40C
:102A00007F4418D1114B9B6AB3F5803FD8D3304631
:102A1000FFF7AEFD0446D3E73368104A01210A48A8
:102A200006F02EFE3468CBE72A4601213046FFF738
:102A30000BFF0446C4E72A4601213046FFF77CFE1F
:102A40000446BDE7A0C8000094BD000000ED00E012
:102A5000B8C80000DCC80000ECC800000CC90000C9
:102A600030B58BB01F4B5D68C5F30805002383F3B9
:102A70001188BFF36F8F0DF12603FFF755FD044654
:102A80000DF12702294606F037FF9DF827300BB1DC
:102A90000BB030BD05460DF1040C20686168A268DA
:102AA000E368ACE80F0020696169A269E369ACE8FA
:102AB0000F009DF826304BB1089BC3F308025AB9AA
:102AC0006FEA53236FEA4323089305E0089B23F43E
:102AD000FF7323F00103089301A92846FFF7AAFC1E
:102AE000D6E700BF00ED00E0044B5A6942F0100247
:102AF0005A615A6922F008025A61704700ED00E0FD
:102B0000EFF30880EFF3098101B57246FFF7A8FFE4
:102B100001BD00BF002080F31488BFF36F8F114800
:102B200080F3088800201049087001F09BFB00200A
:102B30000E490860BFF34F8F00F030F8202080F37B
:102B400011880B484FF40461401880F30988EFF3B3
:102B500014800221084380F31488BFF36F8F00F0C4
:102B6000D7F80000403400203F17002094ED00E02B
:102B7000801A0020084BD3F89000C0F307200023F0
:102B800006E0054AC2F898300021C2F8A0100133CF
:102B90008342F6DB704700BF00ED00E010B572B66F
:102BA000002484F31388FFF7E5FF234608E003F1D0
:102BB00020010E4A4FF0FF3042F821000133DBB212
:102BC000072BF4D9002308E003F16001074A4FF016
:102BD000FF3042F821000133DBB2072BF4D962B693
:102BE000BFF34F8FBFF36F8F10BD00BF00E100E058
:102BF00008B50A4B9B68834202D003F02BFC08BD4A
:102C0000EFF30583002BF8D0054B5A6842F0805251
:102C10005A605A6A22F400425A62EEE7FC1400201D
:102C200000ED00E016498A684FF030001044EFF3E1
:102C3000098C80E8F01F202080F31288BFF36F8F8B
:102C4000104F4FF000664A698A603E604FF0A4045E
:102C5000141920680C4C2060D2F8A8000023C2F898
:102C6000A83080F3118804B5104600F011F9BDE8D2
:102C7000044002F1300090E8F01F8CF3098870479F
:102C8000FC14002004ED00E0141400201EF0040FDA
:102C90000CBFEFF30880EFF30980816911F8021C83
:102CA0000229FFD001B5724606F011FE01BD00BF3A
:102CB000002807DB00F01F02400901239340024A6D
:102CC00042F82030704700BF00E100E0002808DB38
:102CD0004901C9B200F1604000F5614080F800137D
:102CE000704700F00F004901C9B2014B19547047F9
:102CF00014ED00E04209054B53F8222000F01F00BC
:102D0000012303FA00F01040704700BF00E100E02B
:102D100008B50B4B0B4A22F07F029A60BFF34F8F2E
:102D2000BFF36F8FD3F8882022F47002C3F8882095
:102D300002F0FAFC03F0EEFC00F072F802F052FD33
:102D400000ED00E00000000010B4A2F120040E49E4
:102D500042F8081C21F0010142F8081C42F8203C0E
:102D6000019B42F81C3C029B42F8183C039B42F832
:102D7000143C4FF0807342F8043C04650023C0F813
:102D8000A83010BC704700BF11110000104B9B68A9
:102D9000BBB110F1160F0BD0D3F89420A2F1400C68
:102DA000844510D8824210D98A4207D80020704743
:102DB000D3F894208A4201D800207047D3F89400B9
:102DC000704700207047002070470020704700BF08
:102DD000FC14002008B50E4615460A4A9060D0F84B
:102DE000A420094B1A6000F053F82C4686F309889A
:102DF0000020064B98472046002100220023044C67
:102E0000204700BFFC140020141400206599000026
:102E100011110000014B10221A61704700ED00E013
:102E2000002206E003F00F030949194420230B7622
:102E300001322F2A0ADC53B2002BF3DB03F160438B
:102E400003F56143202183F80013F1E7704700BFC9
:102E5000FCEC00E008B5EFF30583103B044A02EBFD
:102E6000C301496852F833008847FFF72BFB08BDC0
:102E700080BB000008B5034B034A0121034806F05C
:102E80009CFE08BD000004200000002028C90000AE
:102E900008B5D0F89430403B0448036040234360B9
:102EA000034B8360012106F08CFE08BD181400203E
:102EB00000000B15084AC2F898000B6823F01F03A6
:102EC000034343F01003C2F89C308B6843F00103C6
:102ED000C2F8A030704700BF00ED00E010B5044616
:102EE0000A4BD3F89030C3F30723013B984203D831
:102EF000FFF7E0FF204610BD0346054A01210548C3
:102F000006F0BEFB6FF01500F5E700BF00ED00E036
:102F100038C900008CBD00002DE9F04780460F46FF
:102F20009A461646002409E02946F0B206F04EFD06
:102F3000064610F1160F1AD001360134BC4216DADB
:102F400004EB440508EB85056A68002AF5D0BAF160
:102F5000000FE9D0284606F028FD0028E4D12346DA
:102F6000044A0121044806F08BFB6FF01506304639
:102F7000BDE8F08760C900008CBD000010B5034CAF
:102F800001232278FFF7C8FF207010BD3B170020F7
:102F900008B500230B4A1278FFF7BEFF10F1160F99
:102FA0000FD0024606E0084BC3F898200021C3F872
:102FB000A0100132044BD3F89030C3F3072393429F
:102FC000F1DC08BD3B17002000ED00E0044B0522BA
:102FD000C3F89420BFF34F8FBFF36F8F704700BFCC
:102FE00000ED00E0BFF35F8F024B0022C3F8942096
:102FF000704700BF00ED00E038B51C4B1D681C4B4E
:10300000D3F89030C3F307239D422BD8FFF7EAFF94
:10301000002409E0154B5B6804EB440103EB8101DC
:103020002046FFF747FF0134A542F3D81148057049
:1030300006F0EBFC10F1160F13D00E4B1A780C4B68
:10304000D3F89030C3F307239A4207DA084BC3F84A
:1030500098200021C3F8A0100132F0E7FFF7B6FF77
:10306000002038BD4FF0FF30FBE700BF84C90000EF
:1030700000ED00E03B17002030B587B00D4611464B
:103080000024009401940294039404940594022271
:103090008DF80220044A0192049005951A4668466C
:1030A00004F028F807B030BDCB9B000008B5024BF8
:1030B0001B689847002008BD24140020034B1860AB
:1030C000034A937843F0020393707047241400205E
:1030D0000005002008B54FF0FF324FF0FF330248E3
:1030E00006F07EFD08BD00BF1005002008B50649AA
:1030F00021F00701C1F1005202F58022034805F0DA
:103100005CFC002008BD00BF87440020281400207C
:1031100038B50446FFF7DEFF22460821084805F0CF
:10312000C1FB054620B1074802F08AFC284638BD9D
:10313000002CF8D008F0BAFC034B0C221A50F2E72E
:1031400028140020100500200C00000008B5012301
:103150000A4AC2F840354FF08042C2F8783506F08E
:1031600043FD20B14FF080430122C3F838264FF0D1
:1031700080430122C3F88025002008BD00E0014003
:1031800030B108B5034B800143F00103984708BDF7
:10319000704700BF30BE0000004870479014002008
:1031A000014BC01A401170474814002038B505463D
:1031B0000C46FFF7F5FF01464022034806F0B2FD3A
:1031C00001462846A04738BD30BB000030B583B06B
:1031D00005460C46FFF7E4FF0146402300932346D3
:1031E000054A064806F0B8FD011E01DB03B030BDFC
:1031F0002846A047FAE700BFA19D000030BB0000B1
:1032000008B510B101280DD008BD0021084806F00E
:1032100017FD836813F0070FF6D10021044806F06C
:103220006FFDF1E70121024806F06AFDECE700BFFF
:1032300030BB000010B582B0EFF31184202383F37C
:103240001288BFF36F8F154A136843F002011160B3
:1032500013F0010F09D1002384F31188BFF36F8F9E
:10326000B3B906F0A5FD02B010BD0DF107020121B2
:103270004FF0804006F0C8FC9DF80730012B01D0CC
:103280000023E9E7FFF788FF06F028FD0123E3E7C5
:103290000021034806F034FDE5E700BFA01400203C
:1032A00030BB000010B5EFF31184202383F31288A4
:1032B000BFF36F8F074A136823F00201116013F008
:1032C000010F04D084F31188BFF36F8F10BD06F097
:1032D00079FDF7E7A014002070B582B005460128FB
:1032E00007D14FF08043D3F81C3403F00303012BC4
:1032F0004BD007F0EFFF044618B9284B1B78002B82
:1033000038D1EFF31186202383F31288BFF36F8F38
:10331000012424B94FF080430222C3F8082301AAF4
:1033200000214FF0804006F06FFC20B1019B012B83
:1033300026D0012D24D0FCB1304606F027FB4FF0FB
:103340008043D3F81835002BE9D14FF08043D3F8F0
:103350000431002BE3D04FF080430022C3F8042156
:10336000D3F804210122C3F818250D49C1F88021A2
:103370009A60D4E70026CCE7012006F02DFDDEE7B9
:103380002CB186F31188BFF36F8F02B070BD4FF080
:1033900080430222C3F80423F7E700BF3F17002051
:1033A00000E100E000B585B0CDF800D0CDF804D044
:1033B00000230293012303936B46074A06F0E8FCBF
:1033C000002805DB4FF480420023684602F0D2FB60
:1033D00005B05DF804FB00BF059E000070B5064611
:1033E00000220121104606F0B1FA114801F08EF8D2
:1033F000104B984219D101F09DF80024012C12D8ED
:103400002146304606F01CFC05462146304606F0B3
:1034100024FC094905F0D0FF002805DB0123AB603F
:103420001C44E4B2EAE7002070BD6FF00400FBE743
:10343000013200000000AD0BB8C9000010B5044611
:10344000104B0121BFF35B8F53E8002F43E80010BE
:103450000028F9D1BFF35B8F1AB1631E012B0DD980
:1034600010BD094806F0F9FB084900234B608B604A
:10347000CB6001238B6005F0BBFFEEE72046FFF732
:103480002BFFEDE74414002030BB00003414002073
:1034900010B504460A2806D0E1B2064883685B6886
:1034A0009847204610BD034883685B680D21984704
:1034B000F2E700BF6CBB000010B5044C2046FFF7DC
:1034C000FDFD2046FDF71EFE10BD00BF913400003B
:1034D00008B5054807F0D7FD18B1FFF7EDFF00204C
:1034E00008BD6FF01200FBE76CBB0000F0B51C4696
:1034F000059F069E00F01F0C400936D0012837D1E9
:10350000284D0CF5E07355F8233099B301209AB398
:103510004FF0020E40EA0E008CB34FF00C0E40EA62
:103520000E007FB34FF4E06E40EA0E006EB34FF42E
:10353000403E40EA0E0023EA000049B30B784AB34C
:103540001278520013433CB32278920013432FB3F6
:103550003A78120213431EB3327812041343034322
:103560000CF5E07C45F82C30F0BD4FF0A045C8E7E5
:103570000025C6E70020CAE74FF0000ECAE74FF06B
:10358000000ECCE74FF0000ECEE74FF0000ED0E774
:103590000023D4E70022D5E70022D7E70022D9E7AD
:1035A0000022DBE70003005000F01F03400909D0B0
:1035B00001280AD1064A03F5E07352F8230000F00F
:1035C000010070474FF0A042F5E70022F3E700BF8B
:1035D0000003005028B1012801D1034870470020A2
:1035E00070470248704700BF44BB000058BB000052
:1035F0002DE9F04786B0884615469946446801F0A3
:103600001F07237B47EA4317204606F062FC002889
:1036100053D0B5F5001F2AD00DF10C0A00260396F1
:1036200004964946284606F0C9FC8DF80C00009621
:1036300001960296CDF804A0A36823FA08F313F0CC
:10364000010F02D1B5F1A07F18D010346A46394677
:10365000204607F099FA1C4B984231D10122394695
:10366000204607F0B5FA002006B0BDE8F0873946DD
:1036700004F1100007F0B0FA0020F5E73846FFF734
:1036800093FF0028E1D104F110050DF1170239462E
:10369000284607F085FA0D4B984203D00DF1170329
:1036A0000493D2E70DF11701284607F08DFA064B77
:1036B0009842F3D06FF00B00D6E76FF08500D3E7A8
:1036C0006FF01500D0E700BF0000AD0B0400AD0B9C
:1036D0002DE9F04389B0074689461446456801F054
:1036E0001F082B7B48EA4318104606F0F7FB8DF8BD
:1036F0001E0040F206332340B3F5837F5ED016D818
:10370000062B57D006D9B3F5807F0DD101238DF854
:103710001D3024E003B3022B03D104238DF81D30A8
:103720001DE06FF015076FE06FF015076CE040F2D9
:103730000222934246D0B3F5407F03D103238DF894
:103740001D300CE0B3F5007F03D102238DF81D304E
:1037500005E06FF0150757E000238DF81D300126B6
:1037600006FA09F63146384606F0C6FB071E4BDB63
:1037700014F4002F2AD06B68C3F80865284606F0B9
:10378000A8FB50B310350DF11F024146284607F043
:1037900007FA064614F4403F3AD14146284607F05E
:1037A0000BFA3A4B9E422FD19DF81F10284607F086
:1037B00007FA29E006238DF81D30D0E707238DF89E
:1037C0001D30CCE705238DF81D30C8E714F4802F99
:1037D000D4D06B68C3F80C65D0E7C4F340438DF8D0
:1037E000083014F4803F0CBF012300238DF8103003
:1037F000002301930DF11D0300930DF11E0304AA94
:1038000002A94046FFF772FE384609B0BDE8F083D2
:1038100002AA00230293039304930593069305924F
:1038200004AA4146284607F0AFF9184B984202D047
:103830006FF01507E8E714F4003F1AD09DF81D302B
:103840008DF8103014F4803F0CBF012300238DF855
:1038500011309DF81E308DF81230002304AA414625
:10386000284607F095F9094B98429AD06FF0150752
:10387000CAE700230493059306930DF11E030493F6
:1038800004AA4146284607F07FF9ECE70000AD0B9B
:1038900010B54468204606F01CFB08B9002010BD96
:1038A0001034204607F084F908B10020F7E7002122
:1038B000204607F079F9094B98420BD100220849BC
:1038C000204607F069F900220521062006F03EF89F
:1038D0000020E4E76FF00400E1E700BF0000AD0B5B
:1038E000F59F000070B400F01F0C400919D00128AA
:1038F0001AD10E4D0CF5E07055F820600C4C344098
:1039000041EA420141EA83039DF80C2043EA022385
:103910009DF8102043EA0243234345F8203070BC51
:1039200070474FF0A045E5E70025E3E700030050AE
:10393000F0F8FCFF00F01F01400907D0012808D172
:10394000054A01238B40C2F8083570474FF0A0426A
:10395000F7E70022F5E700BF0003005000F01F0169
:10396000400907D0012808D1054A01238B40C2F83D
:103970000C3570474FF0A042F7E70022F5E700BF93
:10398000000300502DE9F04F85B080468B4603922E
:10399000002423E04FF0FF3638E0039BC3F80C65AA
:1039A000012702973946B6F1FF3F15D0B1F1FF3F2D
:1039B00040F0248158F80A3013F4004F40F022817F
:1039C000029D00220192CDF80090C3F341233A46B4
:1039D00029463046FFF786FF0134E4B25C4580F0AB
:1039E00013814FEA840A58F82430C3F3C725C3F380
:1039F000C322C3F3080615F0080540F00781874984
:103A000011F8029040F2FF129642C3D01B0E222BF7
:103A100000F2FF8001A252F823F000BF9B390000A2
:103A2000A93A0000B93A0000C73A0000D73A0000AE
:103A3000E73A0000F53A0000133C0000133C000098
:103A4000133C0000133C0000053B00001B3B000042
:103A5000133C0000133C0000133C0000133C00002A
:103A6000133C0000133C0000133C0000133C00001A
:103A7000133C0000313B0000453B0000593B000077
:103A80006D3B0000133C0000133C0000133C0000A1
:103A9000813B0000913B00009F3B0000AF3B0000DA
:103AA000BF3B0000CF3B0000039BC3F814652F46CB
:103AB00002954FF0FF3176E7039BC3F808650127B5
:103AC000029739466FE7039BC3F810652F460295AE
:103AD0004FF0FF3167E7039BC3F808652F460123CA
:103AE000029300215FE7039BC3F80C65012702974F
:103AF000002158E7039BC3F810652F4602954FF04D
:103B0000FF3150E7039BC3F80865B9F1000F65D09A
:103B10002F4602954FF0FF3145E7039BC3F80C6534
:103B2000B9F1000F62D02F4602954FF0FF313AE70E
:103B3000039BC3F8606558F80A10C1F300410127E0
:103B4000029730E7039BC3F8646558F80A10C1F385
:103B500000410127029726E7039BC3F8686558F8E0
:103B60000A10C1F30041012702971CE7039BC3F829
:103B70006C6558F80A10C1F300410127029712E75B
:103B8000039BC3F82465029501274FF0FF310AE734
:103B9000039BC3F8286501270297394603E7039B77
:103BA000C3F83065029501274FF0FF31FBE6039B18
:103BB000C3F83465029501274FF0FF31F3E6039B0C
:103BC000C3F83865029501274FF0FF31EBE6039B00
:103BD000C3F83C65012702973946E4E64F46CDF825
:103BE00008904FF0FF314FF00609DCE64F46CDF864
:103BF00008904FF0FF314FF00609D4E6304606F04A
:103C000021FAD7E60127DCE6002004E06FF015007A
:103C100001E06FF0850005B0BDE8F08F5CCA0000E0
:103C2000F8B505460E46476807F054FB20B9154B1A
:103C30001B7843B1002300E0012353B9284606F066
:103C4000ADFA044611E00123F7E784F31188BFF3CE
:103C50006F8FEFF31184202383F31288BFF36F8FEC
:103C6000284606F039FA0028EFD0BB691E70012201
:103C7000B969284606F057FA84F31188BFF36F8FAD
:103C8000F8BD00BF3F17002038B505460C4601F1CE
:103C9000080006F050FC0C4B98420DD105F10C02C7
:103CA00005F59071207A00F0E5FB237A0120984019
:103CB00000F0DAFB002038BD044A0121044805F079
:103CC000D5FC6FF00400F6E70000AD0B64CA0000FD
:103CD000A4BD000010B50446436819681A69C1F80C
:103CE00024255A7D93F816C01B7D42EA0C0213432B
:103CF000C1F86C3506F09CFA00B110BD02492046AF
:103D000006F0A8F9F9E700BF1DA2000021F07F41ED
:103D100000F5A870014B43F82010704700100140D7
:103D20004FF480338340024AC2F84433704700BFE7
:103D3000001001404FF480338340024AC2F84833F8
:103D4000704700BF00100140014BD3F804057047D5
:103D5000001001402DE9F843054689469046FFF7DB
:103D6000E9FF284606F00AFB4E46032710E0FFF75E
:103D7000EBFF0446494606F0F0FAB0F5000F26D9ED
:103D8000284606F0FBFAB8F1000F22D13E190137A0
:103D900031462846FFF7BAFF2846FFF7C1FFFFF775
:103DA000D3FF0446C11C304606F0D7FA0A4B9842AE
:103DB0000AD9284606F0D5FA0028D8D1B8F1000F64
:103DC000E4D06FF0150000E00020BDE8F88300208B
:103DD000FBE76FF01500F8E7FDFF7F00034B044A97
:103DE000C3F80823C3F84823704700BF0010014000
:103DF00003000F0010B5012383406FEA030C0E4A45
:103E0000BFF35B8F52E8001F01EA0C0E42E800E4AA
:103E1000002CF7D1BFF35B8F4FF48032824007480C
:103E2000C0F80823BFF35F8FBFF36F8F0B4214BF3F
:103E30000120002010BD00BFCC1400200010014064
:103E40004FF480338340144AD2F80423134201D143
:103E50000020704710B5044601238340DB430F491F
:103E6000BFF35B8F51E8002F02EA030041E8000C2A
:103E7000BCF1000FF6D1BFF35B8F22FA04F313F00D
:103E8000010F03D1204606F06CFA18B1204606F067
:103E900075FA012010BD00BF00100140C8140020B9
:103EA00001B9704701238340114ABFF35B8F52E889
:103EB00000CF4CEA030C42E800C10029F7D1BFF360
:103EC0005B8F4FF4803383400A4AC2F80433BFF358
:103ED0005B8F094B1B68BFF35B8FC34013F0010F6F
:103EE000DFD0064B4FF40032C3F80021D9E700BF02
:103EF000CC14002000100140C814002000E100E0B4
:103F000038B514461046194606F044FA02460D49E3
:103F10000B68E01A1B184C6844F100040B604C60FD
:103F2000A2F50013B3F5400F09D2074B1B68190A1D
:103F30001B06D41841F10005044BC3E9004502F00B
:103F4000ABFC38BDD80B0020D0140020E00B0020C3
:103F500038B50D4B1C68250A2406BFF35F8FFFF7A9
:103F6000F3FE0346001945F10001B3F5801F0AD2A4
:103F7000064BD3E90023904271EB030303D210F107
:103F8000807041F1000138BDD0140020E00B00200A
:103F90002DE9F041064614461D469DF82080104646
:103FA000194606F0F7F90746FFF7D2FFA04271EB7A
:103FB000050319D2201A65EB01011D4B984271F1DE
:103FC00000012FD21B4B03EB0613D3E90223AB42B4
:103FD00008BFA24201D1002018E0424639463046CF
:103FE000FFF7B8FE90B11BE0B8F1000F1DD101231F
:103FF000B340114ABFF35B8F52E8000F184342E809
:1040000000010029F8D1BFF35B8F0020094B32017A
:1040100003EB0616C6E9024506999950079B7360A3
:10402000BDE8F0816FF01500FAE76FF01500F7E7D3
:1040300001008000C80B0020C814002030B585B0F6
:10404000FFF7CCFE00231E4AC2F80835002B25DD01
:104050001B4C0225C4F804531A4B4FF40032C3F82A
:10406000802100220121112005F070FC112005F0B3
:1040700068FC0123A3602360134A136000240294A8
:104080000194124B0093124A0023204606F092F945
:104090002846FFF7D3F9204605B030BD0D4A02EBA4
:1040A00003124FF0FF304FF0FF31C2E902014FF42D
:1040B00080329A400249C1F804230133C6E700BFA9
:1040C0000010014000E100E0CC140020013F00009E
:1040D000FFFF7F00C80B00202DE9F04782B00446A7
:1040E000FFF7AEFE10B902B0BDE8F087FFF730FF72
:1040F00082460D4606F051F90646154B03EB0413B4
:10410000D3E90289C24575EB09050BD2002530467B
:1041100006F04BF9002DE6D0009742464B4620466C
:10412000A847E0E70A4A230102EB0411D5584F687B
:104130000020D0504FF0FF324FF0FF33C1E902238F
:104140002046FFF7F7FD204606F018F9DFE700BF2D
:10415000C80B002010B50D4BD3F8043313F0020F39
:1041600003D10024002C0BDD10BD0221074806F00E
:10417000BEF80028F5D0064A136801331360F0E753
:104180002046FFF7A9FF0134ECE700BF0010014013
:10419000D014002010B584B0B0F1FF3F18D0012832
:1041A0001BDD154B9842A8BF18460446134B01224D
:1041B0001A70FFF7CDFE124B1A685B68801AB0F5D3
:1041C000000F0CD20444B4F5000F09D30A4C07E0E9
:1041D0000A4B00221A70084CEBE70124E6E7064C74
:1041E00000201219029001900649009143F100034A
:1041F00006F0E0F804B010BDFFFF7F003E1700207E
:10420000D80B0020013F000008B5FFF7A1FE024BCC
:104210001B68C01A08BD00BFD80B0020BFF34F8F2A
:104220000549CA6802F4E062044B1343CB60BFF354
:104230004F8F00BFFDE700BF00ED00E00400FA056E
:10424000024BD3F80034002BFAD0704700E0014055
:1042500008B5034BC3F80405FFF7F2FF08BD00BF24
:1042600000E0014038B506F0D1F840B14FF080438E
:104270000022C3F80C21C3F81021C3F8382506F03A
:10428000CFF8002846D04FF08052D2F804144E4B9D
:10429000C3F82015D2F80814C3F82415D2F80C146A
:1042A000C3F82815D2F81014C3F82C15D2F814143A
:1042B000C3F83015D2F81814C3F83415D2F81C140A
:1042C000C3F84015D2F82014C3F84415D2F82414CA
:1042D000C3F84815D2F82814C3F84C15D2F82C149A
:1042E000C3F85015D2F83014C3F85415D2F834146A
:1042F000C3F86015D2F83814C3F86415D2F83C142A
:10430000C3F86815D2F84014C3F86C15D2F84424E9
:10431000C3F8702506F08EF818B12C4B2C4AC3F860
:104320008C2606F09AF818B12A4BFB22C3F8182500
:1043300006F0A6F870B14FF08041D1F8E43E23F0CA
:104340000F034FF08052D2F8582202F00F021343AD
:10435000C1F8E43E06F0A7F820B11F4B4FF40072FD
:10436000C3F8402606F0B2F860B14FF08043D3F8AE
:10437000003413F0010F05D04FF080436FF00102BD
:10438000C3F8002406F0BCF84FF01023D3F8003235
:10439000002B06DB4FF01023D3F80432002B00DB98
:1043A00038BD0120FFF754FF4FF010241225C4F848
:1043B0000052FFF745FFC4F80452FFF741FF002009
:1043C000FFF746FFFFF72AFF00C000400050004003
:1043D0004881030000F000400090024010B50468DE
:1043E000CCB1B4FA84F3C3F11F03DBB201229A40CB
:1043F00024EA0202BFF35B8F50E800CFA44504D14A
:1044000040E8002EBEF1000FF6D1BFF35B8FE6D17E
:104410000B70024810BD0248FCE700BF0000AD0B66
:104420000200AD0B0368CB4013F0010F15D100B5AE
:10443000026801238B401343BFF35B8F50E800CF2A
:10444000944504D140E8003EBEF1000FF6D1BFF321
:104450005B8FEDD102485DF804FB0248704700BF56
:104460000000AD0B0400AD0B014BC3F80405704711
:1044700000F00140034BA23043F8301003EBC003BF
:104480005A60704700F0014070B582B00646C0B176
:10449000012832D104224FF4807301214FF0804073
:1044A000C0F80813024401211160034400221A607D
:1044B0001B688DF807108E4208D0002542F2107458
:1044C0000CE00C224FF482730221E7E70DF107059F
:1044D000F4E7012006F024F8013C0CD02A463146CE
:1044E0004FF0804006F02BF828B1002DF1D09DF858
:1044F0000730012BEDD0012E01D002B070BD024B70
:1045000000225A71F9E700BFD4140020064B1B7932
:104510003BB9054B186001221A7100225A710348F9
:1045200070470348704700BFD41400200000AD0B53
:104530000C00AD0B08B5064B1B680BB106F01DF85F
:1045400006F019F84FF08043C3F8180508BD00BF06
:10455000D414002000B583B020B1012849D003B0A5
:104560005DF804FB4FF08043D3F81824D3F81834D7
:1045700003F00303019312F4803F13D14FF0804303
:10458000D3F8143413F0010F10D105F0F4FF0190AB
:10459000019A4FF08043C3F8182508224FF4827324
:1045A00002202AE001A805F0F1FFF1E74FF0804377
:1045B000D3F81C3403F00303019301A805F0E6FFD0
:1045C0000028E5D0194B1B682BB14FF08043022225
:1045D000C3F80423C3E74FF08043D3F80431002B22
:1045E000F9D04FF080430022C3F80421D3F80431FE
:1045F000B5E700224FF48073012003F180430021CE
:104600001960196802F1804201211160074A12689D
:1046100022B14FF08043C3F80403A0E71A68002AD0
:10462000FCD000221A601B6899E700BFD414002058
:1046300010B54FF08043D3F8044308E01D4B5B797D
:104640002BB91C4B01225A711A4B1B68984784B333
:10465000B4FA84F0C0F11F000122824083009BB2B3
:1046600003F580739BB2C0B292B224EA020403F154
:10467000804319680029EAD0002119601B684FF0B7
:104680008043C3F80823012AD8D0022ADCD14FF096
:104690008043D3F81814D3F8183413F0030FD3D190
:1046A0004FF080430121C3F81815C3F80423996023
:1046B000CDE710BDD414002070B400F01F0C4009E9
:1046C00019D001281AD10E4D0CF5E07055F8206074
:1046D0000C4C344041EA420141EA83039DF80C202E
:1046E00043EA02239DF8102043EA0243234345F89E
:1046F000203070BC70474FF0A045E5E70025E3E7A8
:1047000000030050F0F8FCFFF0B51C46059F069E24
:1047100000F01F0C400936D0012837D1284D0CF588
:10472000E07355F8233099B301209AB34FF0020E8D
:1047300040EA0E008CB34FF00C0E40EA0E007FB33F
:104740004FF4E06E40EA0E006EB34FF4403E40EA94
:104750000E0023EA000049B30B784AB312785200E6
:1047600013433CB32278920013432FB33A781202DA
:1047700013431EB332781204134303430CF5E07C59
:1047800045F82C30F0BD4FF0A045C8E70025C6E73E
:104790000020CAE74FF0000ECAE74FF0000ECCE74A
:1047A0004FF0000ECEE74FF0000ED0E70023D4E725
:1047B0000022D5E70022D7E70022D9E70022DBE775
:1047C0000003005000F01F02400908D0012809D161
:1047D000054BD3F81005D04000F0010070474FF0B2
:1047E000A043F6E70023F4E70003005000F01F03A6
:1047F000400909D001280AD1064A03F5E07352F8AE
:104800002300C0F3014070474FF0A042F5E70022BB
:10481000F3E700BF0003005000B583B084468E4626
:104820000D4B93E8030002AB03E9030063460BE082
:1048300002A901EB830151F8081CD1F8200542F8C8
:10484000040BC1F8200501330CEB0E009842EFD8A1
:1048500003B05DF804FB00BF20BE000000F01F01A4
:10486000400907D0012808D1054A01238B40C2F82E
:10487000203570474FF0A042F7E70022F5E700BF70
:10488000000300504309034AD35C00F01F001844A2
:10489000C0B27047E8CA00000048704724050020F5
:1048A0002DE9F04184B005460C4616461F460846E1
:1048B000FFF7E8FF804656B32146284605F05EFF25
:1048C00028B12146284605F019FF002841D121468C
:1048D000284605F022FF10B17378012B39D001234F
:1048E0008DF80F30002301930096B31C721C0DF15C
:1048F0000F012046FFF708FF2879FFF7CDFF08F1E9
:10490000080230F8123043F0030320F81230002F71
:1049100039D02146284605F031FF002835D13E78B0
:104920002B6806F5A272002143F822102879FFF7C0
:10493000B3FF08F1080230F8123023F02003DB0443
:10494000DB0C20F812307B782BB9114804B0BDE89D
:10495000F0811048FAE7BA7800922246314628687A
:1049600005F047FE2879FFF797FF024608F1080097
:1049700032F810307603B6B2334343F0200322F806
:1049800010300348E2E70248E0E70248DEE700BFF4
:104990000000AD0B0400AD0B70B506460D46144685
:1049A00005F0ACFE68B13079FFF776FF0646284681
:1049B000FFF768FF083036F810305B0B23700248B1
:1049C00070BD0248FCE700BF0000AD0B0400AD0B5A
:1049D00030B583B005460191002400E00134012C7C
:1049E00018D80E4B1B5D03F0070202A901EBD3039D
:1049F00013F8043CD34013F0010FEFD005EB840211
:104A000001212046FFF708FF55F82430002BE5D0A0
:104A1000012000E0002003B030BD00BFF8CA000054
:104A20002DE9F04182B00546884616461F4605F03E
:104A3000F1FFAEB33A463146284605F0FBFE041EB0
:104A400020DB2879FFF728FF40F834602879FFF74A
:104A500023FF00EBC40047602879FFF71DFF0546E0
:104A60004046FFF70FFF083035F81030E4B264021B
:104A7000A4B2234343F4807325F81030094802B0F0
:104A8000BDE8F0812879FFF707FF0DF107017830C5
:104A9000FFF7A4FC034B9842F1D19DF80740D0E703
:104AA0000048ECE70000AD0B2DE9F04385B004466B
:104AB0000D4617460846FFF7E5FE0646D7F8008084
:104AC000B8F1000F28D02946204605F046FE002800
:104AD0004FD100238DF80E308DF80F3001930093E5
:104AE00043460DF10F020DF10E012846FFF70CFEB3
:104AF0002079FFF7D1FE06F1080830F8183023F0CE
:104B0000020320F818302079FFF7C6FE30F818307D
:104B100043F0010320F818307B68F3B193F800806C
:104B2000D3F804902946204605F008FE18B3B9F1E1
:104B3000000F65D12079FFF7AFFE083630F8163048
:104B400023F01C0320F816302079FFF7A5FE30F87B
:104B5000163043EA880320F81630BA68002A53D08A
:104B60005368126829462046FFF75AFF05B0BDE892
:104B7000F0832648FAE72079FFF78EFE06F1080257
:104B800030F8123023F02003DB04DB0C20F8123065
:104B9000B9F1000FCED0B8F1030F33D87B685B6852
:104BA00093F80090B8F1000F06D1236809F5A279B7
:104BB000002243F82920BDE7404605F0E7FD034603
:104BC000216809F5A27C51F82C2022F0030241F85B
:104BD0002C202A464946206805F0F2FC2079FFF790
:104BE0005BFE06F1080230F812304FEA49391FFA2D
:104BF00089F943EA090343F0200320F8123099E7CA
:104C00000248B3E70148B1E70148AFE70400AD0B44
:104C10000000AD0B38B505460C4605F060FD08B93F
:104C2000074838BD2146284605F0E1FD21462846C3
:104C300005F01BFF204605F036FD0248F1E700BFF6
:104C40000400AD0B0000AD0B70B582B005460E46FA
:104C50000079FFF721FE90F8803013B10B4802B0C5
:104C600070BD044660220021103006F041FD236F24
:104C70000093002332464FF00041286805F01FFFE3
:104C8000012384F88030A3670148E8E70C00AD0BEE
:104C90000000AD0B2DE9F04383B080460F460023A2
:104CA00000930193C96F6846FFF792FE4BE094FAB8
:104CB000A4F4B4FA84F404F01F05254B9B5D45EA87
:104CC00043152846FFF7DEFD083037F81090C9F38A
:104CD00082090DEB8603E00804F007041A5C012149
:104CE000A14022EA01021A542846FFF77FFD03463D
:104CF0004A462946384605F04DFE2846FFF7AEFDE8
:104D000002AB03EB860353F8084C002CCFD10136DD
:104D1000012E0DD80F4B9B5D07F17C02D90803F0E3
:104D20000703525C22FA03F313F0010FEFD0E7E719
:104D30003A6F4FF00041404605F097FCF96F684626
:104D4000FFF746FE08B10026E2E703B0BDE8F083B6
:104D5000FCCA0000F8CA000008B50249024805F084
:104D6000F9FE08BD240500200060004008B501469A
:104D70000148FFF733FB08BDA8050020C9B170B595
:104D8000044615460E46B2B105F02AFF08B90C4894
:104D900070BD21460B4B186805F0C6FB68B10A4B85
:104DA00004F1A20043F8306003EBC0035D600748E4
:104DB000EEE7074870470648EAE70648E8E700BF1D
:104DC0000400AD0BA805002000F001400000AD0B71
:104DD0000900AD0B0500AD0B10B5044605F00BFF47
:104DE00098B1204605F0FCFE30B90123A340084AE3
:104DF000C2F80435074809E02146074B186805F05A
:104E000093FB0028F1D1054800E0054810BD00BF24
:104E100000F001400000AD0BA80500200500AD0B1F
:104E20000400AD0B10B5044605F0E5FE98B1204630
:104E300005F0D6FE30B90123A340084AC2F8083570
:104E4000074809E02146074B186805F06DFB00286C
:104E5000F1D1054800E0054810BD00BF00F0014059
:104E60000000AD0BA80500200500AD0B0400AD0B44
:104E700070B400F01F0C400919D001281AD10E4D52
:104E80000CF5E07055F820600C4C344041EA4201CA
:104E900041EA83039DF80C2043EA02239DF8102089
:104EA00043EA0243234345F8203070BC70474FF07B
:104EB000A045E5E70025E3E700030050F0F8FCFF1C
:104EC00000F01F01400907D0012808D1054A01233D
:104ED0008B40C2F8083570474FF0A042F7E7002238
:104EE000F5E700BF0003005000F01F01400907D0A4
:104EF000012808D1054A01238B40C2F80C357047C0
:104F00004FF0A042F7E70022F5E700BF0003005092
:104F100010B5047904EB84020E4B53F8223053B1E0
:104F200004EB84040B4B03EB8403187AC0B2023801
:104F300018BF012010BD0221006805F082FE002884
:104F4000EED004EB8402034B03EB820301221A72BE
:104F5000E6E700BFDC14002038B5047904EB840CCC
:104F60000F4D05EB8C0C9CF80850BDB90C4D04EBB3
:104F7000840C05EB8C0E45F82C20CEF8043021B1C2
:104F80000D7F8EF8105005F064FF04EB8404044B91
:104F900003EB840301221A72024838BD0248FCE781
:104FA000DC1400200000AD0B0C00AD0B70B58C467E
:104FB00096461A46017901EB8101224B03EB8101F0
:104FC0000368DCF80040C3F82045BCF80440C3F88F
:104FD0002445DCF80840C3F82845DCF80C40C3F849
:104FE0002C450368DCF80040C3F84045BCF8044099
:104FF000C3F84445DCF80840C3F84845DCF80C40E9
:10500000C3F84C451EF001052B4606684FEA5E0EBC
:105010000CD001247444C6F8144512F0010F07D1D6
:1050200012F0020405D055B1082402E02C46F1E745
:1050300010240568C5F8004205F094FE70BD0424F4
:10504000F7E700BFDC14002038B504460579036893
:105050000022C3F80022036801225A6079B1204679
:10506000FFF756FF0028FAD023680022C3F8002576
:1050700005EB8505044B03EB850301221A722046DC
:10508000FFF746FF38BD00BFDC1400200F4BB3FB19
:10509000F1F201FB12336BB90C4B99420DD8531E40
:1050A0001A420DD1B2F5007F0DD892FAA2F0B0FAF3
:1050B00080F070474FF0FF3070474FF0FF3070477F
:1050C0004FF0FF3070474FF0FF3070470024F4007E
:1050D00030B583B005460C460968FFF7D7FFB0F13D
:1050E000FF3F14D0009023798DF8043063798DF858
:1050F00005306946286805F0DDFE0023A2794FF4EB
:105100007C11286805F04BFF024803B030BD02480F
:10511000FBE700BF0000AD0B0400AD0B38B5047910
:1051200004EB440C0F4B03EB8C031B7AC3B90D4DFE
:1051300045F82C2091B18D680A4B03EB8C035D6020
:10514000FFF7C6FF084A904214BF0022012204EB79
:105150004404044B03EB84031A7238BD0248F1E7A0
:105160000248FAE7F01400200000AD0B0C00AD0B74
:10517000036801221A60037903EB4303024A02EB3E
:10518000830302221A727047F014002008B504222B
:105190000249034805F0D9FE08BD00BFF014002005
:1051A0000090004010B5134CA8220021204606F0C4
:1051B0009FFA0323236163610F4AA2610F4BE361EE
:1051C0004FF4806323620023A3626362E36222667A
:1051D0000B4A62661022A2662367E366636706E0F5
:1051E000C3F10F020749895C024AD15401330F2BE6
:1051F000F6D910BD1004002000CB000010000020E4
:10520000000000200CCB000008B500230F2B0AD8AB
:10521000094AD25CD2B2C3F10F010848415C8A420C
:1052200004D10133F2E7002313B908BD0123FBE7E2
:10523000FFF7B8FFF9E700BF100400200CCB000017
:105240002DE9F84304460E461546304B00EB40006E
:1052500003EBC000826A476A601C00EB400003EB6E
:10526000C00358683844BA423CD804EB4401274B89
:1052700003EBC103D3F82080A8EB070909F1FF3342
:105280009D4204D913449D420ED900202FE02A46A6
:10529000314606F01FFA2F4404EB44041B4B03EB8A
:1052A000C4035F62012022E04A46314606F012FA4A
:1052B000A7EB080818EB050507D104EB4404134BD2
:1052C00003EBC4035D62012011E0631C03EB4303A5
:1052D0000E4A02EBC3032A4606EB0901586806F0A2
:1052E000F9F9EAE7D21B013AAA4202D20020BDE84E
:1052F000F8832A4606F0EEF92F4404EB4404034BEE
:1053000003EBC4035F620120F1E700BF100400203B
:10531000064B00EB400203EBC202926A00EB400036
:1053200003EBC003586A801A704700BF10040020C6
:10533000034B00E01433034A9342FBD3704700BF92
:1053400030BB000080BB000004280CD8DFE800F070
:10535000030D0507090006487047064870470648D0
:10536000704706487047064870470648704700BFB8
:1053700020CB000044CB000054CB000060CB0000E9
:1053800070CB000030CB000030B108B505F0A8FFAD
:1053900020B1037823B108BD024870470148FAE7FD
:1053A0000048F8E780CB000010B50446FCF7AEF9E2
:1053B000034A0121034804F059F9204605F073FE21
:1053C00088CB000094BD00002DE9F04782B000AF0B
:1053D00005460C46EFF31188202383F31288BFF3B0
:1053E0006F8FDFF8C491D9F80860FFF7ADFF99F827
:1053F0001010E94601233B7103237B718AB0EC4610
:105400001CF1100221D04FF0160E5AB17346BEF1B6
:10541000040F03DDDFF894A1CCF814A0082B01DD04
:10542000CCF8185001233B7003237B70D2B1734634
:10543000BEF10C0F01DDCCF81C00102B01DDCCF807
:1054400020100CF1240300210AE06FF0004EDCE78D
:1054500001F10800384410F8080C03F8010B013181
:105460000129F5D9BEF1150F50DD16234AB10521EA
:10547000397100217971B9710121F9717868CCF81D
:10548000100000216FF300016FF341016FF38201FF
:105490006FF3C501012060F38811C3F30A0363F3BE
:1054A00053216FF31F5100234148FCF729FACD46E1
:1054B0001CB1E369C3F308035BBB3046FFF764FF2D
:1054C000E94601233B7103237B718AB0EC461CF152
:1054D000100224D04FF0120E52B17346BEF1040FE9
:1054E00002DD3449CCF81410082B01DDCCF818602B
:1054F00001233B7003237B70F2B1BEF10C0F01DD81
:10550000CCF81C000CF12003002113E06FF01B030A
:10551000ACE7294A0121264804F0A8F8CDE76FF04E
:10552000004ED9E701F10800384410F8080C03F8E0
:10553000010B01310129F5D9BEF1110F31DD122323
:105540004AB10421397100217971B9710121F971D0
:105550007868CCF8100000216FF300016FF341016F
:105560006FF382016FF3C501012060F38811C3F36B
:105570000A0363F353216FF31F5100230C48FCF718
:10558000BFF9CD4621462846FFF70EFF88F3118864
:10559000BFF36F8F3046FDF72BFB0837BD46BDE8E4
:1055A000F0876FF01B03CBE7FC14002098CB0000C2
:1055B00094BD0000E4CB0000C0CB000038B5054628
:1055C0000A4B53F8204002E02368984708346B1CCC
:1055D000064A52F82330A34206D96368002BF3D061
:1055E000204605F068FDF1E738BD00BF0CCC000097
:1055F00010B586B0B023114C03FB004400EB400C07
:1056000000EB80000E4B03EB80030E4A0592012253
:1056100004920F22039200220292019200930A4BFD
:105620004FF4A072094901EBCC11204600F01EFB9B
:10563000637B23F00403637306B010BDE80B002006
:10564000FC140020FCCB000017B20000C022002098
:1056500008B553EA020102D100F0CCFE08BD0249B0
:10566000183001F093F8F9E7DFB4000010B586B008
:10567000184C14E0636A0593236A0493E369039367
:10568000A36902936369019323690093E368A268A5
:105690006168206800F0EAFA23685C6530340E4BDC
:1056A0009C42E7D300F0B6FD0A4C00E030340A4BD0
:1056B0009C420BD2A26AE36AB3F1FF3F08BFB2F18A
:1056C000FF3FF3D02068FFF7C3FFEFE700F0BAFD1C
:1056D00006B010BD00BD000000BD000008B50B4BBA
:1056E00001221A700320FFF769FFFCF7D3FC05F0D5
:1056F00002FD0420FFF762FFFFF7B8FFFAF78CFE08
:10570000034A137B23F00103137308BD3F170020E6
:10571000980C002008B50146014A0248FDF75AFBE3
:10572000DD560000980C002008B50348034A121A01
:10573000002105F0D8FC08BDD80600204017002045
:1057400010B50446FFF754FFB0230B4903FB0411C7
:105750000A4A04EB840302EB8303D9601C7404EB54
:105760004411074B03EB811303F5046304EB84043A
:1057700002EB8402536010BDE80B0020FC140020F3
:10578000801A002070B586B000F094FD104D114BCA
:105790005D61114B0593012304930024039402944B
:1057A000019400940D4B4FF480520D49284600F0AF
:1057B0005DFA06466B7B23F004036B73284605F005
:1057C00026FE2046FFF7BCFF304606B070BD00BF86
:1057D000980C0020FC14002004CC0000DD560000D2
:1057E0004024002008B50020FFF7E8FE1F4B83F39C
:1057F00008881F4C636943F400736361E02384F8F5
:1058000022300025E57725766576A57684F8205048
:10581000636A43F4E023636284F82350FDF764F97C
:10582000FDF7F8FA4FF0FF33A362E362FDF7E4FB04
:10583000FDF720FBFBF7D2FE0E4C012666732673A4
:10584000C4F89450C4F89850204601F063F90A4B0C
:105850009C60FFF76DFD3046FFF7B0FE0220FFF7BA
:10586000ADFEFFF78FFFFFF755FF00BFC0220020FE
:1058700000ED00E0480D0020FC140020064B1B68E2
:105880004BB110B55C1E044A52F8233098472346AA
:10589000002CF7D110BD70474CBD000010B5044C72
:1058A00002E054F8043B9847024B9C42F9D310BDE8
:1058B00058BD000064BD000010B5064C002000E09B
:1058C0002034054B9C4204D2204605F01AFC0028E7
:1058D000F6DA10BD5C0600205C06002030B583B00F
:1058E0000D46EFF31181202484F31288BFF36F8FEC
:1058F000046964B12C6023680361C3690133C36127
:10590000002081F31188BFF36F8F03B030BD00F129
:10591000080C53EA020404D100232B606FF00B0043
:10592000EFE7009201930246604600F0BDFB0028BD
:10593000EBD1024B9B685B692B60E6E7FC1400200F
:105940002DE9F04182B00446EFF31187202181F365
:105950001288BFF36F8FC16899B9002950D1364BB7
:105960009B6893F90E3023610131E160324B9B68F3
:10597000A36087F31188BFF36F8F002002B0BDE8EA
:10598000F08116461D4682682B4B9B689A42E4D0F4
:1059900055EA060136D092F90E80414693F90E0081
:1059A00005F046FC804534DC4FF000080096019578
:1059B00022463946214800F077FB0028DED0EFF37D
:1059C0001185202383F31288BFF36F8FA36843B33D
:1059D00023689C4223D013B3216993F90E0005F08C
:1059E00027FC0146204605F02EFCE8B9B8F1000F6F
:1059F0001AD185F31188BFF36F8F6FF00A00BDE7EE
:105A00002369B0E787F31188BFF36F8F6FF00F0042
:105A1000B4E70146204605F016FC8046C6E721693A
:105A2000E0E7B8F1000FE4D02946044800F0C6FBD7
:105A30006FF00A00A2E700BFFC1400202015002030
:105A4000F8B58368002B47D00446264A92689342F3
:105A500045D1C368012B04D9013BC360002528460A
:105A6000F8BDEFF31186202383F31288BFF36F8F05
:105A7000016905F0E8FB2768A7420CD03D1E18BF5E
:105A8000012557B9A760CDB90023E36086F31188DB
:105A9000BFF36F8FE3E70027F0E77A683B68136096
:105AA0005A6000233B607B607A7B22F002027A73AB
:105AB000BB6007F1180005F0AAFDE3E797F90E3087
:105AC00023610025C7F8AC50384605F0A0FC3146EC
:105AD000054800F073FBC2E76FF01505BFE74FF014
