:10000000803400200D2C0000CD990000F92B000059
:10001000F92B0000F92B0000F92B00000000000074
:10002000000000000000000000000000852D00001E
:10003000F92B0000000000001D2D0000F92B00002E
:100040004D2F00004D2F00004D2F00004D2F0000C0
:100050004D2F00004D2F00004D2F00004D2F0000B0
:100060004D2F00004D2F00004D2F00004D2F0000A0
:100070004D2F00004D2F00004D2F00004D2F000090
:100080004D2F00004D2F00004D2F00004D2F000080
:100090004D2F00004D2F00004D2F00004D2F000070
:1000A0004D2F00004D2F00004D2F00004D2F000060
:1000B0004D2F00004D2F00004D2F00004D2F000050
:1000C0004D2F00004D2F00004D2F00004D2F000040
:1000D0004D2F00004D2F00004D2F00004D2F000030
:1000E0004D2F00004D2F00004D2F00004D2F000020
:1000F0004D2F00004D2F00004D2F00004D2F000010
:1001000053B94AB9002908BF00281CBF4FF0FF317E
:100110004FF0FF3000F00CB8ADF1080C6DE904CEE3
:1001200000F010F8DDF804E0DDE9022304B07047C8
:10013000704700BF034613F8012B002AFBD1181AA1
:10014000013870472DE9F04786468C460846089EE0
:10015000154674461946002B40F0C2808542B2FA1B
:1001600082F245D94AB1C2F1200300FA02FC2EFA0C
:1001700003F3954043EA0C0C94404FEA154EA8B2A5
:10018000BCFBFEF8230C0EFB18CC08FB00F943EA7D
:100190000C43994528D9EB1808F1FF3704D299454B
:1001A00002D9A8F102072B44A3EB0903A4B2B3FBC5
:1001B000FEFC0EFB1C330CFB00F044EA0344A0429F
:1001C00014D92C190CF1FF3304D2A04202D9ACF19E
:1001D00002032C44241A43EA07401EB1D4400023F2
:1001E00034607360BDE8F0874746DDE76346F1E7BA
:1001F00092BB431B01214FEA154EAFB2B3FBFEFC8D
:10020000200C0EFB1C330CFB07F840EA0343984517
:1002100062D9EB180CF1FF3004D2984502D9ACF149
:1002200002002B44A3EB0803A4B2B3FBFEFC0EFBBD
:100230001C330CFB07F744EA0344A7424ED92C19A0
:100240000CF1FF3304D2A74202D9ACF102032C44D3
:10025000E41B43EA0040C0E7C2F1200320FA03F1A7
:10026000954090402EFA03F303434FEA154EAFB288
:10027000B1FBFEFC0EFB1C10190C0CFB07F841EA4D
:100280000041884504FA02F422D969180CF1FF30C4
:1002900004D2884502D9ACF102002944A1EB08013F
:1002A0009BB2B1FBFEFC0EFB1C110CFB07F743EAF3
:1002B00001439F420ED9EB180CF1FF3104D29F424B
:1002C00002D9ACF102012B44DB1B41EA004192E769
:1002D0006046E3E76146F7E76046A3E76346B7E7B2
:1002E000834206D916B9002108467BE7C6E900E03B
:1002F000F9E7B3FA83F78FB9834201D3724508D87F
:10030000BEEB020460EB030301209C461EB90021F2
:1003100068E73846FAE7C6E9004CF8E7C7F1200C71
:10032000BB4022FA0CF41C432EFA0CF120FA0CF319
:10033000B84001434FEA14490EFA07F5B3FBF9F848
:100340001FFA84FE09FB18300B0C08FB0EFA43EA77
:1003500000439A4502FA07F240D9E31808F1FF304A
:1003600004D29A4502D9A8F102002344A3EB0A0360
:1003700089B2B3FBF9F809FB183308FB0EFE41EA1A
:1003800003418E452CD9611808F1FF3304D28E4504
:1003900002D9A8F10203214443EA0040A0FB0298DD
:1003A000A1EB0E014145CE46434602D306D14D4551
:1003B00004D2B9EB020E68EB04030138002EA6D07C
:1003C000B5EB0E0261EB030101FA0CFC22FA07F314
:1003D0004CEA0303F940C6E9003198E74046C5E717
:1003E0004346D9E7012800D0704708B54FF6FF73A0
:1003F000994200D008BD012300220421044807F0DF
:10040000D0FF012300220421024807F057FFF1E743
:10041000480E0020180E002010B5154808F05AFCB0
:10042000144C204607F053FF134808F053FC2046B5
:1004300007F07CFF0321204607F07DFF01221A21EF
:10044000204600F091F80721204607F099FF0F2180
:10045000204600F0AFF8094808F03CFC00210548B0
:1004600007F051FF4FF4203000210BF0D9F8F2E7EC
:10047000B8C10000180E0020DCC10000F0C100006F
:100480002DE9F04F8FB00C93072A46D982468B4650
:1004900000250D923EE04FF03209CDF8289000265D
:1004A0000996089648F65C78CDF81C8008230693D8
:1004B000CDF814B042F2107304934FF4D87403943F
:1004C000029401944FF4A267009723464FF4D86238
:1004D0004FF45861504607F0F7FFCDF82890099681
:1004E0000896CDF81C800D9B083B9BB206930BF140
:1004F000080305930A4B0493039402940194009714
:1005000023464FF4D8624FF45861504607F0DCFFA1
:100510000135ADB20C9B9D42BDD90FB0BDE8F08F47
:10052000A086010010B484460E4C0FCCCCF810000D
:10053000CCF81410CCF81820CCF81C3003CCCCF834
:100540002000CCF824102288A378ACF828208CF85E
:100550002A3019238CF82C3006238CF82B3010BC51
:10056000704700BFE0BE000000B585B08DF80710F1
:10057000CBB20F2B16D90DF107031B788DF80F3076
:100580001E2B11D80DF10F031B788DF80F300AB117
:1005900080F82C30052201211E3008F00AF805B041
:1005A0005DF804FB014BE8E7014BEDE74BCE0000A3
:1005B0004ACE000000B583B08DF807100F290CD08B
:1005C000A9B10DF107031B788DF80730052B10D862
:1005D0000DF107031B788DF807309DF807300422D2
:1005E0000021203007F0E5FF03B05DF804FB024B6B
:1005F000E9E7024BEEE700BF49CE000048CE00001D
:1006000070B400F01F0C400919D001281AD10E4D0A
:100610000CF5E07055F820600C4C344041EA420182
:1006200041EA83039DF80C2043EA02239DF8102041
:1006300043EA0243234345F8203070BC70474FF033
:10064000A045E5E70025E3E700030050F0F8FCFFD4
:1006500010B588B02022002168460BF0B0F82B239B
:1006600000934FF0FF3301930293039307238DF818
:10067000143004238DF815304FF47A73ADF8183028
:1006800040F2B313ADF8183000228DF815200E4853
:100690000346694604F0DCFC0C4B984205D0014649
:1006A0000B4808F017FB08B010BD0A4BD9221A807E
:1006B000094C0A4B0FCB84E80F000223012221468C
:1006C000014804F0EFFCEEE7C80400200000AD0B89
:1006D0000CC2000048170020680E0020FCBE00007D
:1006E00008B54FF0A042D2F80435D94301F40051C7
:1006F000C2F8081503F40053C2F80C35B0F5A07F1A
:1007000000D008BD03480AF0EBFC034805F06AFA84
:10071000F7E700BFC0040020580E002010B5074CBA
:10072000204604F09FFB064B1968064B1A680432FA
:1007300001F5A071207804F09DFB10BD4A17002040
:10074000C0040020C804002000B585B000220621A6
:10075000092009F074F9124B019300238DF8083039
:100760008DF8093007228DF80A20039303238DF8B2
:1007700009300C4803900C4A01A904F04BFD0B4BC7
:10078000984206D001460A4808F0A4FA05B05DF880
:1007900004FB044804F068FD07F03AFFF6E700BFE9
:1007A0000024F400C0040020E10600000000AD0BAE
:1007B00024C2000008B50122002105480AF0BCFD52
:1007C000FFF746FFFFF7C0FFFFF7A8FF08BD00BF18
:1007D000580E002070B50546124E304605F06EFAF0
:1007E000114C20460AF07CFC01232A4600212046B9
:1007F0000AF07AFC0D4D287804F06AFB02230122EE
:100800000B490C4804F04EFC20460AF065FC4FF002
:10081000FF324FF0FF33304605F028FA287804F015
:100820007DFB70BD580E0020C00400204A17002038
:10083000680E0020C804002070B505460E4E3046F4
:1008400005F03CFA00210D4804F07AFC0C4C2046DF
:100850000AF046FC01232A46002120460AF044FC07
:1008600020460AF039FC4FF0FF324FF0FF3330469C
:1008700005F0FCF970BD00BF580E0020C804002030
:10088000C00400202DE9F04F91B005920293134669
:1008900002F004020092C3F3C20210F003030193BA
:1008A00040F02B8280468A460132041D00284FD03A
:1008B000B8F1000F05D0A4EB08030433534500F250
:1008C0001F82029B5D1E019B0493069303930026E7
:1008D0004FF0FF3B0427B946B8F1000F01D0029B4F
:1008E0002360531E0793002A40F35D81059B13F09C
:1008F000020228D00120A4EB08018B081AB1B1F53F
:10090000007F80F0038203990F2900F20282B8F180
:10091000000F00F06081DBB201F140026A4402F88E
:10092000103C02F820BC002800F0518163F07F03E6
:1009300001F140026A4402F8103C049B0133049325
:10094000039B0133039304340022CC4640463DE030
:1009500001F0070A5444CAF1080AA9E7002634E066
:10096000002632E0002630E00827BC462DE025298D
:100970002BD10BF1010B01260427BC4625E04729AA
:10098000EED82A2914D32A39C9B24FF0010E0EFA33
:1009900001F14FF6DA7E11EA0E0F16D111F0625F07
:1009A00040F0C08011F0010F40F08C8000260CE078
:1009B000252903D10BF1FF3B002606E001D90026D3
:1009C00003E0202901D02329CCD11D466B1C697876
:1009D000002900F01981002EC9D07A29BED84C29EF
:1009E000CDD34C392E2961D80FF2040E5EF821F0D8
:1009F000CB090000AD0A0000AD0A0000AD0A0000FE
:100A0000AD0A0000AD0A0000AD0A0000AD0A00000A
:100A1000AD0A0000AD0A0000AD0A0000AD0A0000FA
:100A2000BD0A0000AD0A0000AD0A0000AD0A0000DA
:100A3000AD0A0000AD0A0000AD0A0000AD0A0000DA
:100A4000AD0A0000250B0000AD0A0000BD0A000041
:100A5000BD0A0000250B0000250B0000250B00003F
:100A6000CB090000BD0A000069090000AD0A0000C2
:100A7000CB090000AD0A0000810B0000BD0A000098
:100A8000810B0000AD0A0000AD0A0000890B0000D8
:100A9000B70A0000BD0A0000AD0A0000AD0A000060
:100AA000BD0A0000AD0A0000B10A000000268CE774
:100AB0000427BC4689E70427BC4686E729786C29C9
:100AC00024D000263C44013CB4FBF7F407FB04F4BB
:100AD00020B1211A6144514500F21581002A58D1F4
:100AE000BCF1040F00F08880BCF1080F40F01481C5
:100AF0001A99073121F0070101F108051A95D1E98A
:100B0000008908B1C4E9008908345EE713F8021CC3
:100B10006C2903D000260427BC46D3E7002608270B
:100B2000BC46CFE729784C291AD01A99073121F011
:100B3000070101F108061A96D1E90067073424F08D
:100B4000070440B1211A0831514513D829784C299E
:100B500013D0C4E90067083400260827BC4634E7F0
:100B60001A99073121F0070101F108061A96D1E917
:100B70000067E3E76FF01B00BCE0C4E90067EAE749
:100B800000260427BC469DE7324600260427BC46C3
:100B900098E7E14680461A9A111D1A91126802924E
:100BA000079A1D4698E6624B029A9A4204D3614B1B
:100BB0009A420AD3002300E00023002B7FF496AE74
:100BC000059B03F00202002095E60123F5E7069B52
:100BD00001330693B4E610B10AF1010AB0E6009BB6
:100BE00013B10AF1020AABE60298FFF7A3FA0AEB87
:100BF000000303F1020AA3E61A990D1D1A9509686C
:100C000000B121600434E0E68046231AB3F5806F1A
:100C100080F0858090B1002202609B080370009BE9
:100C200083B1069BC370049B88F802301BBB019DF7
:100C3000DDF80C90DDF810B0029F3DE05344A3F1C5
:100C4000080057E0069B4370EDE701339842EED968
:100C500003F140026A4412F8101C12F9102C002A09
:100C6000F3DA01F07F01A4EB08020132524559D8B2
:100C700004F8011BE9E7019B0398E7E7009B43B3F6
:100C800005F140036B4413F8203C04F8013B019E3E
:100C9000A4EB080333440133534546D805F1400320
:100CA0006B4413F8103C04F8013B324639462046A9
:100CB0000AF077FD34440135A94519D9BBF1000F7D
:100CC000DCD005F140036B4413F9103C002BD5DA5E
:100CD000F1E705F140036B4413F8103C58F823701A
:100CE000002248F823203846FFF724FA461CCFE7B5
:100CF000A4EB080011B0BDE8F08F6FF00D00F9E72C
:100D00006FF01B00F6E76FF01B00F3E76FF01500C4
:100D1000F0E76FF01500EDE76FF01500EAE76FF010
:100D20001500E7E76FF01B00E4E76FF01B00E1E759
:100D30008CBB00005CCF00002DE9F04F97B000AFF6
:100D40008346BA613B61D7F88030C3F3C0033B628E
:100D5000F96011B907F036FFF8609BF80260B14600
:100D600036B1D7F8803013F0010F0DD1002300E029
:100D700000239BF803207A6242B1D7F8802012F05A
:100D8000020F22D1002202E00123F2E7002202B981
:100D9000EBB19BF80050AA00BA60DBF804207A613E
:100DA0000BEB8505BA69F2B1002B40F00481B9F173
:100DB000000F00F00F81D7F8803013F0040F40F0DF
:100DC0000D810020F8610646F9E00122DFE7BB69EA
:100DD0001BB13A69F96858469847FC6820465C3769
:100DE000BD46BDE8F08FFC68E3B94D4400233B618C
:100DF00023E00444013501364E451AD22A780023F7
:100E00005BF822201946B86907F0F1FEBAF1000F2D
:100E1000EFD0D7F888309845EBD22AF8180008F1BF
:100E20000108E6E70026C7F81C80B046D7F884A082
:100E3000E2E7C7F81080D7F81C80D7F8803003F0BD
:100E40000503FB604FF0000AA146C7F81CB09CE008
:100E500000253B6A7BB9002D79D0D7F8803013F09C
:100E6000010F79D1FB68002B6FD10223A9EB030995
:100E700088E00125EDE75946786907F0FEFE002875
:100E8000E9D06C46002387F82C30022387F82D30F8
:100E90008AB0694611F1100237D012251AB1042D1B
:100EA00001DDB34B4B61002387F82830022387F81C
:100EB00029306ABB112D45DD122362B1042087F869
:100EC0002C00002087F82D0087F82E00012087F8DD
:100ED0002F00F86A08616FF300086FF341086FF3A1
:100EE00082086FF3C508022161F38818C3F30A036F
:100EF00063F353286FF31F58002341469D4800F0C9
:100F00007BFDA546A9F102093CE06FF00045C5E76D
:100F10002B46082D01DD786988610C2B01DDC1F8B5
:100F20001CB001F12003002009E000F1300C07F1B2
:100F3000280EF4441CF830CC03F801CB0130012812
:100F4000F3D9B7E76FF01B03B7E701238EE7D7F8B4
:100F5000803013F0020F15D0002322461946B869DD
:100F600007F045FED7F8843053B13B69D7F88820A5
:100F7000934205D2D7F8842022F8130001333B6155
:100F8000013881440AF1010A35467B6A9A4510D23C
:100F90002E4616F802BB6B78FA6952F82340764B5E
:100FA0009C42FFF455AF754B9C42FFF462AF0025A5
:100FB0004FE74C4612E707F144000023FB6118B1EC
:100FC0004A4629460AF0EDFB4D444FF00008C7F8A9
:100FD00004901EE00020F8610646F0E7FE6107F18C
:100FE00034000026EBE700253B6A33BB002D3BD0E5
:100FF000D7F8803013F0010F26D0731C06F13002B1
:1010000007F12801561806F8149CDEB208F1010811
:1010100025467B6A98454AD22C4614F802AB95F8CF
:1010200001905BF82930544A9342DCD3534A9342EF
:1010300001D30025D8E70125D6E75146786907F0A6
:101040001CFE0028D2D0E1E7D7F8803013F0040F5F
:10105000DCD0FA69531C303207F128010A4402F847
:10106000249CDBB2FB61D1E7D7F8803013F0020F8C
:1010700009D0731C06F1300207F12801561806F852
:10108000149CDEB2C2E7F869431C00F1300107F19D
:1010900028028A1802F824AC02460232D2B2FA615F
:1010A00007F1580252FA83F303F8249CAEE7D7F80D
:1010B00004909BF8003087F854309BF8013033449B
:1010C00087F85530D7F8803013F0020F0ED1FB6946
:1010D000C3F3470387F85730D7F8803013F0010F78
:1010E00006D113F0040F3ED1002302E00023F1E704
:1010F000002387F85630DBF800003863786DCBF8B2
:101100000000D7F810804246B9685846D7F818A0B2
:10111000D047041EFFF662AE386BCBF80000C7F86C
:1011200010804246F96907F13400D04700285EDBA1
:1011300004EB0008B96849447B6A01EB4301D7F826
:1011400010904A46FB68591A2846D047041EFFF6FD
:1011500045AE08EB04054FF00008C7F824B0B346CD
:101160005446CA4621E0FB69C3E74FF0000909E095
:101170003CC2000030BE00008CBB00005CCF000011
:101180004FF000095246012107F12C00A04700282A
:101190002FDB05444B4632465146204607F027FDDB
:1011A000002828DB054408F10108D84518D208F1C9
:1011B000300307F12802134413F8143C87F82C304D
:1011C0007A6A52F82360D7F88430002BCDD0D7F854
:1011D00088309845D4D2D7F8843033F81890D1E7C6
:1011E0003A6900210846BB6998472C46F6E5044653
:1011F000F4E50446F2E50446F0E500BF014B186053
:10120000704700BFD004002080B505460E46174643
:10121000984605F095F903460AF0AEFC0446DFF85F
:10122000189049F80030424639463046A84754F8ED
:10123000090001F059FD00BF080000002DE9F0434E
:1012400083B0044608461546A38B13F0080F05D15A
:1012500003F0070600230093019354E0012909D00D
:1012600043F02003A38385F31188BFF36F8F03B08E
:10127000BDE8F08343F01003A383F4E7204608F0B1
:101280005DF842E0D4F818904A466946204608F0D6
:101290006EF84FF00008A38B03F00707B74269D040
:1012A000A268002A66D0012243F00803A38385F3D5
:1012B0001188BFF36F8F002A64D1009B2BB14B467E
:1012C0003A466946204608F0CBF8B8F1000F02D044
:1012D00034492046C047EFF31185202383F3128859
:1012E000BFF36F8FA38B23F00803A383A38B13F0AB
:1012F000100F4DD023F01003A3830120A68B06F01E
:1013000007060028AFD00228B8D00028ABD001389B
:1013100004282BD801A353F820F000BF8512000049
:101320006D13000031130000451300005913000035
:101330002369D3F800800621204607F0D5FF4FF03F
:101340000009A8E72369D3F804800421204607F0A8
:10135000CBFF4FF000099EE72369D3F808800521F1
:10136000204607F0C1FF4FF0000994E74FF0000856
:10137000C14690E7009A0AB1002295E7B8F1000F44
:1013800092D1B3E74A463946204607F0B5FF94E7C5
:1013900013F0200F04D023F02003A3830220ADE735
:1013A0000020ABE78F94000038B505460B4C00E0F9
:1013B00010340B4B9C420FD263685B79002BF7D043
:1013C0002946204608F023F90028F1D023681B683D
:1013D000294620469847EBE738BD00BF78BE00009D
:1013E00098BE000070B506460D46084C04E02A463B
:1013F0003146204698471034054B9C4204D223685E
:101400009B69002BF3D1F6E770BD00BF78BE0000EA
:1014100098BE00002DE9F041074605460AE007EABC
:101420000807144B03EB06135B6804221968204677
:1014300000F0B4FAD5B195FAA5F6B6FA86F60D4CD9
:1014400004EB06140123B3406FEA030825EA030501
:10145000237B002BEED03301064AD3581B69002BA7
:10146000DDD0204698470028E4D1D8E73846BDE8CB
:10147000F08100BF78BE00002DE9F04180460F46A4
:10148000204BBFF35B8F53E8005F6A1C43E80021E9
:101490000029F8D1BFF35B8F002D2FD11A4C002605
:1014A00007E0636804221968204600F077FA0136E5
:1014B0001034164B9C4213D2237B002BF7D02368A9
:1014C000DB680BB12046984723681B69002BE8D0E6
:1014D000204698470028E4D00123B3401D43E6E7A7
:1014E000B8F1000F0BD055B12846FFF793FF054622
:1014F000002FF8D00A2008F090F8F4E700252846DD
:10150000BDE8F081900E002078BE000098BE00007B
:1015100008B5064B186018B1054B1B68092B00DC99
:1015200008BD044804F05EFBFAE700BF840E00200B
:101530008C0E0020C406002008B5024804F052FBBF
:1015400008BD00BFC406002030B589B000220F4995
:101550000F480AF0FEF80F4D00220023CDE90623C4
:10156000002404940E2303930294019400940A4BE4
:101570004FF440720949284609F026FF08492846D9
:1015800004F0DEFB204609B030BD00BF3915000075
:10159000900B0020D8060020F518000080170020CE
:1015A000F4C20000014B53F82000704710C3000044
:1015B00048B108B5054A1060054B1960084600F0AF
:1015C0000FFD002008BD6FF015007047D404002007
:1015D000800E002008B5054B1B781BB1034B012280
:1015E0001A7008BD024804F0FDFAF7E74B17002017
:1015F000C406002008B5104BBFF35B8F53E8001FF3
:10160000013143E80012002AF8D1BFF35B8F30B9F3
:101610000A480AF0AAF80A4804F0E4FA08BD094B9F
:10162000BFF35B8F53E8001F013943E80012002A23
:10163000F8D1BFF35B8FEBE7880E0020900B002002
:10164000C40600208C0E0020064B00200146BFF38C
:101650005B8F53E8000F43E80012002AF9D1BFF373
:101660005B8F7047880E002038B5FFF7EDFF054609
:10167000094C00E01034094B9C420BD263685B7943
:10168000002BF7D023685B68002BF3D02946204657
:101690009847EFE738BD00BF78BE000098BE000055
:1016A000034B18680028D4BF00200120704700BFFA
:1016B000880E002010B5044C0449204607F06FFC4A
:1016C000034B1C6010BD00BF1C060020FCC20000C4
:1016D0007C0E002008B50023064A1370064A1360EA
:1016E000064A13604FF400410548FFF761FFFFF71A
:1016F000E1FF08BD4C170020880E00208C0E002052
:101700001396000008B50146014807F09CFF08BD8C
:101710001C06002008B5024807F024FD08BD00BFE4
:101720001C06002008B50146024B186807F091FF1F
:1017300008BD00BF7C0E002008B5024807F08DFFF1
:1017400008BD00BF1C06002010B582B00022002397
:10175000CDE90023284B187808B902B010BD6846BF
:1017600007F093FF044688B1244BBFF35B8F53E827
:10177000001F013943E80012002AF8D1BFF35B8F44
:101780002046FFF711FE2046FFF7CCFFFFF788FF4A
:1017900058B91B4A1368516813F57A7341F1000177
:1017A00013605160FFF7C8FFD7E709F0C3FF4A0194
:1017B00042EAD06243011B1A62EB0102920042EA44
:1017C00093729B001B1842EB0102D20042EA537253
:1017D000C3F3103343EA4243D20B0948016840681F
:1017E0005B1A62EB000240F2E9318B4272F10002B7
:1017F000CFD3FFF739FFCCE74B1700208C0E00202A
:10180000880B00200F4B1B7803B1704710B50021E7
:101810000120FFF731FE0C4C00E010340B4B9C42D2
:1018200008D263685B79002BF7D023689B68204659
:101830009847F2E7FFF788FF0028FBD1014B012210
:101840001A7010BD4C17002078BE000098BE000032
:1018500010B582B01A4BBFF35B8F53E8002F511CB9
:1018600043E800100028F8D1BFF35B8F154B1B78BD
:1018700063B9154B1B68B3B1BAB1092A13D1134828
:1018800009F073FF124804F0ADF90CE0EFF3118496
:10189000202383F31288BFF36F8FFFF755FF84F384
:1018A0001188BFF36F8F02B010BD00220023CDE975
:1018B00000234FF400420023044805F067F9F2E7E3
:1018C0008C0E00204C170020840E0020900B00206E
:1018D000C406002010B50446044B1B689847A0605E
:1018E0002146034807F0D5FE10BD00BFD4040020F8
:1018F0001C0600202DE9F04100210846FFF7BCFD41
:10190000804650B140F2676600270AF035F9154B62
:101910001858FFF7FDFD002515E04FF0FF364FF09A
:10192000FF37F2E74046FFF775FD804670B94FF08C
:10193000FF364FF0FF3709E02C4632463B460A4857
:1019400004F094F92546B8F1000FEBD1FFF7FCFE47
:1019500004460028F6D1002DEED000210846FFF7FE
:1019600041FDEAE708000000C40600200248034BDE
:10197000C01AC008704700BF78BE000030BE00002B
:1019800010B50C46FFF7F2FFA04203D9024B53F803
:10199000340010BD0020FCE730BE000008B5094B44
:1019A000C31A1B110133D0F804C08CF8043043680B
:1019B0009A7143681960436801225A71FFF70AFE61
:1019C00008BD00BF78BE000000B589B0059206933F
:1019D0000023079362B1074A0C9B02930B9B019370
:1019E0000A9B009305ABFFF7A7F909B05DF804FB6C
:1019F0000022F1E7A39600002DE9F04F8BB004AF71
:101A000005461E468846C1F34A24002C00F0898012
:101A100091460022FA603A617A6104230293FB182E
:101A200001930A23009307F10C0321464846FFF770
:101A300083F9B0F5006F58D3D9F804106D46002330
:101A40003B7302237B738AB004AC14F1100217D0ED
:101A500012201AB1042801DD3B4B636100233B7067
:101A600002237B70CAB10346082800DDA1610C2B5C
:101A700002DD40F2FF73E36104F1200300210AE07C
:101A80006FF00040E5E701F118063E4416F8186CC7
:101A900003F8016B01310129F5D9112822DD122348
:101AA00042B10421397300217973B9730121F973AB
:101AB000F868206100216FF300016FF341016FF3BB
:101AC00082016FF3C501022060F38811C3F30A039A
:101AD00063F353210023C1F313011C4807F054FEA4
:101AE000AD462DE06FF01B03DAE760F35328C0F337
:101AF0000A0A0AEB1850173020F007008008FFF799
:101B000001FE8346B0B104230293FB1801930A231C
:101B10000093534600F1100221464846FFF754FF58
:101B200008E004EB1154173424F00704A008FFF771
:101B3000E9FD8346334642462946584607F0C7FD2D
:101B40001C37BD46BDE8F08F30C3000040BE00002A
:101B50002DE9F04F85B080460D4617461E46DDF84C
:101B600038B0DDF84090B9F1000F41D0119B0393DC
:101B700000934B460F9A10210020FEF783FEB0F52C
:101B8000006F2DD282460BEB0003173323F00703BF
:101B900000246FF300046FF341046FF3820468F3D1
:101BA000C50467F3881460F353246BF31F5498083B
:101BB000FFF7A8FD074650B11030B9F1000F06D06D
:101BC000119B00934B460F9A5146FEF75BFE33463E
:101BD00022462946384607F07AFD05B0BDE8F08F69
:101BE00040F2FF73034A0221034807F0C2FDF4E705
:101BF0000020C7E770C3000040BE0000406820B16D
:101C0000034BC01A40F3CF0070474FF0FF307047CE
:101C100030BE00000EB400B582B0014603AB53F8ED
:101C2000042B0193034801F0A3FA02B05DF804EB22
:101C300003B07047BF97000010B584B011F0440F97
:101C400005D01A4B1B6833B9002004B010BD1849E9
:101C5000FFF7E0FFF9E717490968B2FBF1F2B2FBC1
:101C6000F3FC03FB1C224FF47A7E0EFB02F2B2FB64
:101C7000F3F403FB14210EFB01F1B1FBF3F10E4A67
:101C8000A2FB0C32D20A4FF4616303FB12CC0B4B64
:101C9000A3FB0CE35B0902910194C3EB0311ACEBD2
:101CA000810100910649FFF7B5FFCEE7980E0020AD
:101CB000A8C30000940E0020C5B3A291898888882B
:101CC000B4C3000061B108B52AB1064A52F8232016
:101CD00012B9054A00E0044A0449FFF79BFF08BD1A
:101CE000704700BF54C40000D0C30000D8C3000038
:101CF0002DE9F04105461746069EDDF81C8081B9A6
:101D000000242EB1324611492846FFF783FF0444D0
:101D1000B8F1000F14D06FB1099B042B13D00C49FC
:101D200009E00C4B099A53F822200B49FFF772FF88
:101D30000446E6E7064942462846FFF76BFF04449F
:101D40002046BDE8F0810549F5E700BFF0C300007B
:101D5000E0C3000068C40000E8C30000DCC300006A
:101D60002DE9F04F87B005460C46049205939DF887
:101D70004C7001F0020B01F0010AC1F3C00801F43C
:101D8000807907F08CFC18B3024616492846FFF705
:101D900041FF0646BBF1000F1CD13A46514628468A
:101DA00007F038FDB9F1000F01D00023119303971C
:101DB000129B0293119B0193109B00930023049AA2
:101DC00041462846FFF794FF304407B0BDE8F08F46
:101DD0000026DFE7059A21462846FFF72DFF064437
:101DE000DBE700BFF4C3000011F0100F0BD108B502
:101DF00011F0200F03D00449FFF70CFF08BD034981
:101E0000FFF708FFFAE7704770C500007CCD0000BF
:101E10002DE9F04105460F46164698460699FFF70C
:101E2000E3FF0024444505DA24492846FFF7F2FE83
:101E30000134F7E7002409E020492846FFF7EAFECD
:101E40000BE01F492846FFF7E5FE01340F2C0CDCA0
:101E5000002C02DD14F0070FEED0B442F1D23A5D4F
:101E600018492846FFF7D6FEEFE717492846FFF73F
:101E7000D1FE002409E011492846FFF7CBFE0BE014
:101E800012492846FFF7C6FE01340F2C13DC002C44
:101E900002DD14F0070FEED0B44207D23A5D0C4BCE
:101EA0009B5C13F0970FEBD12E22E9E703492846FC
:101EB000FFF7B0FEE8E7BDE8F08100BFECC300002B
:101EC00000C40000F8C3000004C4000008C40000FF
:101ED0004DCE00002DE9F04184B004469DF82C5011
:101EE0000C9F0E9E95B9012B1ED019484FF000088B
:101EF00027B13B462246174906F08FFEC6B905BBFF
:101F0000204607F045FC04B0BDE8F08103950A982F
:101F10000290019300920B4600220F992046FFF792
:101F20001FFF80460C48E3E70B484FF00008DFE74F
:101F30000F9B0093434632460D99204607F082FCE2
:101F4000DDE72A460F99204607F070FCD8E700BF6E
:101F5000F797000071310000BF9700002DE9F043B2
:101F600083B00646056842F20F738B4228BF0B46CA
:101F7000184A0521684605F071F804467368D3F8DD
:101F800004900B27DFF8508005E04A46394640466A
:101F9000A8473F1A8044002FF7D17368D3F8048014
:101FA0006F4605E0424621463846A847241A0744B2
:101FB000002CF7D173685F681B24084E05E03A4691
:101FC00021463046A847241A0644002CF7D103B016
:101FD000BDE8F083A8C6000028C400000CC40000BF
:101FE000074B01221A6004E04008054A13685B00B1
:101FF0001360044B9842F7D8034B1860704700BF3A
:10200000940E002040420F00980E0020034B012246
:102010001A70034B034A1A60704700BF4D17002027
:10202000C40E0020C80E002008B5034B01221A7010
:10203000024807F055FC08BD4E170020A8C4000058
:10204000014B196000207047B00E002008B518B988
:10205000074B00221A7008BD064B1B7823B141F2D2
:10206000883009F071F8F6E7052007F050FCF2E738
:102070004D1700204E17002038B504460A4B0122A8
:102080001A700A4B1B782BB938BD651E2046FFF726
:10209000DDFF2C46002003F0B7F90028F4D0024BF6
:1020A0001B78002BF1D1EFE74D1700204E170020D1
:1020B0002DE9F04107460E464FF004080DE0324688
:1020C0003946002003F038F9044616E04046FFF791
:1020D000D3FFF4B9134B1B78DBB1134B1B78002BE8
:1020E000EDD109F024F8054632463946002003F0C8
:1020F00023F90446284609F022F8002CE6D1094BC2
:102100001B78002BE5D008F1FF384046FFF79EFF13
:10211000DFE714B9034B1B7803B934462046BDE80A
:10212000F08100BF4D1700204E17002008B502486F
:10213000FFF714FF08BD00BFA8C4000010B50C468F
:10214000044B1868FFF72EFA03460F222146024877
:10215000984710BDB00E0020A8C4000070B5064618
:102160000D46002405E0315D044883685B689847AC
:102170000134AC42F7D3284670BD00BF38BC000024
:10218000014B0360002070470CC5000008B50348F0
:1021900006F0A0FD024806F09DFD08BD0CC500003C
:1021A00044C5000008B5024804F090FD08BD00BF1A
:1021B00074C50000B0F5680F17D00CD840F6BA63AC
:1021C000984214D0B0F5683F13D03A2801D00120CE
:1021D000704700207047094B98420CD0084B98423A
:1021E00001D0012070470020704700207047002078
:1021F0007047002070470020704700BF3A00003A47
:102200002C5F5CA9E8B108B54268B2F5683F07D019
:102210000F498A421AD0006803F08EFC002008BDE6
:1022200003680022BFF35B8F53E8001F012903D12D
:1022300043E800200028F7D1BFF35B8F04D110469C
:10224000EDE76FF4E04070470248E8E70248E6E750
:102250002C5F5CA9E98FFFFFEA8FFFFF30B308B561
:102260004268B2F5683F0CD012498A421CD000681F
:102270004FF0FF324FF0FF3303F0DEFB88B10E4822
:102280000FE003680122BFF35B8F53E8001F0029B2
:1022900003D143E800200028F7D1BFF35B8F01D1C1
:1022A000002008BD0448FCE70448FAE76FF4E0406A
:1022B000704700BF2C5F5CA9E98FFFFFEA8FFFFF2B
:1022C00010B50446A8B16368B3F5683F10D0B3F504
:1022D000680F0DD00D4A93420AD013F4686F0DD0E9
:1022E00021680B4808F0A0FF00232360074B6360C0
:1022F00010BD084B5B6808489847E4E72368002254
:102300001A605A609A60DA601A61EFE72C5F5CA984
:1023100008140020B40500207CC5000010B5044658
:1023200068B36068B0F5683F28D0B0F5680F25D075
:10233000174B984228D0FFF73DFFC0B14FF0FF3256
:102340004FF0FF332146134803F044FB08B92368DC
:102350001BB9114B5B6811489847236800221A602B
:102360005A609A60DA601A614FF4686363602068AB
:1023700008F0DBFF636843F03A03636010BD064B6F
:102380005B6807489847CCE72368002BD3D1D5E793
:102390002C5F5CA908140020B4050020A4C500002F
:1023A0007CC5000008B5402314220449044808F005
:1023B0002CFF0449044804F0FBFC08BD080F002072
:1023C00008140020D4C50000E8C500002DE9F04144
:1023D00082B000AF0446D0F800E0D0F804C08568B1
:1023E0006E468AB06B4613F1100200F0888014210B
:1023F0008AB10846042903DDDFF81C81C3F8148084
:10240000082801DDC3F818E00C2801DDC3F81CC062
:10241000102800DD1D62132974DD14253AB1052151
:10242000397100217971B971F971786818610021E9
:102430006FF300016FF341016FF382016FF3C50188
:10244000012363F38811C5F30A0565F353216FF384
:102450001F5100233148FFF7CFFAB546D4F80CC01E
:1024600026696569E8468AB06B4613F110024CD0C4
:10247000142182B10846042903DDDFF8A4E0C3F883
:1024800014E0082801DDC3F818C00C2800DDDE6167
:10249000102800DD1D6213293ADD14253AB105210B
:1024A000397100217971B971F97178681861002169
:1024B0006FF300016FF341016FF382016FF3C50108
:1024C000012666F38811C5F30A0565F353216FF3FE
:1024D0001F51124D00232846FFF78EFAC546E369C7
:1024E000104A3146284607F044F9A3690E4A31469E
:1024F000284607F03EF90837BD46BDE8F0816FF089
:10250000004175E76FF01B0588E76FF00041B0E709
:102510006FF01B05C2E700BFF8C5000060BE0000F9
:1025200028C6000058C6000068C6000038B504463A
:102530000D4611B10846FFF749FF012C04D029468A
:10254000204602F0BDFF38BDEFF30583103B034A80
:102550000121034807F00DF9F1E700BF98C600001C
:1025600060BE000030BFFFF7FDBF00BF38B50446B6
:10257000054D2A46054909F014F9054A002160195C
:1025800009F01DF938BD00BF00000000DCBE0000EE
:102590000800000070B50646064D074B1D444C1B55
:1025A0002046FFF7E3FF083CC6F8A44005F1080009
:1025B00070BD00BF0000000008000000074B9B68D2
:1025C00093F90E20002A08DB044A5269934204D092
:1025D000034A536843F0805353607047101500203E
:1025E00000ED00E081690D4B5A6942F480725A6136
:1025F000BFF34F8FBFF36F8F31F8021C5A6922F47B
:1026000080725A61BFF34F8FBFF36F8F4DF6027325
:10261000994201D0002070470120704700ED00E092
:102620004FF0000C83F800C002F07F4CBCF17F4FEC
:1026300014D102F00C0CBCF1080F04D012F0080FFA
:1026400009D00846704708B5054A0121054807F03A
:1026500086F8002008BD01221A70704700207047DC
:10266000ACC6000060BE000008B52B4A01212B4813
:1026700007F075F82A4B9B6A13F0007F21D11D20CB
:10268000274B9B6A13F0807F22D1254B9B6A13F462
:10269000002F24D1224B9B6A13F4802F26D1204B8C
:1026A0009B6A13F4003F28D11D4B9B6A13F4803FB3
:1026B0002AD11B4A936A6FEA03436FEA134393627A
:1026C00008BD184A0121154807F049F81E20D7E730
:1026D000154A0121114807F042F81F20D5E7134A97
:1026E00001210E4807F03BF82120D3E7104A0121D1
:1026F0000A4807F034F82220D1E70E4A01210748A2
:1027000007F02DF82320CFE70B4A0121034807F0FB
:1027100026F82420CDE700BFD8C6000060BE000028
:1027200000ED00E0F0C6000004C7000020C7000074
:1027300040C7000068C7000084C7000008B5002338
:102740000B70034A0121034807F009F808BD00BFD8
:10275000B0C7000060BE000090B583B000AF0F2985
:1027600023DC2F4C103900233B7102237B718AB08C
:10277000EC461CF110021AD0122022B1042802DD0E
:10278000284BCCF8143000233B7002237B70E2B15D
:102790000346082801DDCCF818400C2B01DDCCF8ED
:1027A0001C100CF1200300210DE01F4CDAE76FF044
:1027B0000040E2E701F1080404EB070E1EF808EC04
:1027C00003F801EB01310129F4D9112824DD12238A
:1027D0004AB10421397100217971B9710121F9716E
:1027E0007868CCF8100000216FF300016FF341010D
:1027F0006FF382016FF3C501012060F38811C3F309
:102800000A0363F353216FF31F5100230748FFF7B7
:10281000F3F80C37BD4690BD6FF01B03D8E700BF3F
:10282000D4C7000008C80000ECC7000060BE00006C
:10283000F8B505460F461446374A0121374806F0D9
:102840008EFF374B9B6A13F4805F25D11626344BDD
:102850009B6A13F4006F26D1314B9B6A13F4007FFF
:1028600028D12F4B9B6A13F4806F3FD12C4B9B6A6E
:1028700013F4807F41D12A4B9B6A13F4005F43D14C
:10288000274A936A43F47F4393620121284607F065
:10289000AAF820703046F8BD224A01211F4806F0F0
:1028A0005EFF1726D3E7204A01211C4806F057FF98
:1028B0001826D1E71D4A0121184806F050FF184A92
:1028C000936B926A12F4004F01D11926C9E7184A96
:1028D0000121124806F04DFF37B1114A936A23F4E3
:1028E000004393621926BCE71926BAE7114A012171
:1028F0000A4806F034FF1A26B8E70F4A01210748B4
:1029000006F02DFF1B26BBE70C4A0121034806F009
:1029100026FF1C26B4E700BF1CC8000060BE0000F4
:1029200000ED00E034C8000048C800005CC80000AA
:1029300078C8000090C80000ACC80000C4C80000FF
:102940002DE9F04104460F461546464A0121464806
:1029500006F005FF454B9B6A13F0100F3CD1102683
:10296000424B9B6A13F0080F3DD1404B9B6A13F01A
:10297000020F3FD16FF015083C4B9B6A13F0010F1B
:1029800058D13A4B9B6A13F0200F5AD1374B9B6AB0
:1029900013F0100F04D1354B9B6A13F0020F04D0D3
:1029A000324B5B6813F4006F52D1304B9B6A13F0CB
:1029B000200F04D02D4A536A23F4005353622B4A4C
:1029C000936A43F0FF0393620121204607F00BF85E
:1029D00028703046BDE8F081254A0121224806F0E2
:1029E000BEFE1126BCE7234A01211F4806F0B7FEB0
:1029F0001226BAE7204A01211B4806F0B0FE1B4B05
:102A0000D3F834809B6A13F0800F03D16FF0150860
:102A10001326B1E74346194A0121134806F0A9FEDF
:102A200037B1124A936A23F0800393621326A3E717
:102A30001326A1E7124A01210B4806F090FE142646
:102A40009FE7104A0121084806F089FE15269DE7F8
:102A50002146404600F016FA0028A6D080F30988E7
:102A60000226A2E7F4C8000060BE000000ED00E00E
:102A70000CC9000048C8000040C9000058C9000047
:102A800070C90000C4C8000070B506460D462B4A48
:102A900001212B4806F063FE00232B70294BDC6AD2
:102AA00014F002040AD1274BDB6A002B0DDB254B07
:102AB000DC6A14F080440ED1204670BD224A012108
:102AC0001F4806F04CFE0024F6E7204A01211C486E
:102AD00006F045FEF0E71E4A0121194806F03FFEC8
:102AE0003046FFF77FFD98B9164B9B6A13F0FF0F36
:102AF00016D1144B9C6A14F47F4418D1114B9B6A75
:102B0000B3F5803FD8D33046FFF7AEFD0446D3E798
:102B10003368104A01210A4806F02BFE3468CBE7DF
:102B20002A4601213046FFF70BFF0446C4E72A4638
:102B300001213046FFF77CFE0446BDE790C9000046
:102B400060BE000000ED00E0A8C90000CCC9000094
:102B5000DCC90000FCC9000030B58BB01F4B5D68BC
:102B6000C5F30805002383F31188BFF36F8F0DF1C0
:102B70002603FFF755FD04460DF12702294606F00E
:102B800034FF9DF827300BB10BB030BD05460DF179
:102B9000040C20686168A268E368ACE80F00206953
:102BA0006169A269E369ACE80F009DF826304BB17A
:102BB000089BC3F308025AB96FEA53236FEA432311
:102BC000089305E0089B23F4FF7323F001030893A7
:102BD00001A92846FFF7AAFCD6E700BF00ED00E0F8
:102BE000044B5A6942F010025A615A6922F00802F5
:102BF0005A61704700ED00E0EFF30880EFF30981C0
:102C000001B57246FFF7A8FF01BD00BF002080F3A9
:102C10001488BFF36F8F114880F308880020104993
:102C2000087001F09BFB00200E490860BFF34F8F36
:102C300000F030F8202080F311880B484FF4046135
:102C4000401880F30988EFF314800221084380F3D1
:102C50001488BFF36F8F00F0D7F800008034002095
:102C60005317002094ED00E0C01A0020084BD3F861
:102C70009000C0F30720002306E0054AC2F8983010
:102C80000021C2F8A01001338342F6DB704700BF79
:102C900000ED00E010B572B6002484F31388FFF74E
:102CA000E5FF234608E003F120010E4A4FF0FF3014
:102CB00042F821000133DBB2072BF4D9002308E0EE
:102CC00003F16001074A4FF0FF3042F82100013361
:102CD000DBB2072BF4D962B6BFF34F8FBFF36F8F10
:102CE00010BD00BF00E100E008B50A4B9B688342BD
:102CF00002D003F02BFC08BDEFF30583002BF8D0C6
:102D0000054B5A6842F080525A605A6A22F40042D7
:102D10005A62EEE71015002000ED00E016498A68BF
:102D20004FF030001044EFF3098C80E8F01F2020B2
:102D300080F31288BFF36F8F104F4FF000664A691F
:102D40008A603E604FF0A404141920680C4C206087
:102D5000D2F8A8000023C2F8A83080F3118804B587
:102D6000104600F011F9BDE8044002F1300090E88F
:102D7000F01F8CF3098870471015002004ED00E067
:102D8000281400201EF0040F0CBFEFF30880EFF3AF
:102D90000980816911F8021C0229FFD001B5724631
:102DA00006F00EFE01BD00BF002807DB00F01F0289
:102DB000400901239340024A42F82030704700BF87
:102DC00000E100E0002808DB4901C9B200F16040E1
:102DD00000F5614080F80013704700F00F004901D2
:102DE000C9B2014B1954704714ED00E04209054B7C
:102DF00053F8222000F01F00012303FA00F01040D6
:102E0000704700BF00E100E008B50B4B0B4A22F011
:102E10007F029A60BFF34F8FBFF36F8FD3F8882084
:102E200022F47002C3F8882002F0FAFC03F0EEFCF2
:102E300000F072F802F052FD00ED00E0000000002A
:102E400010B4A2F120040E4942F8081C21F001013F
:102E500042F8081C42F8203C019B42F81C3C029BB3
:102E600042F8183C039B42F8143C4FF0807342F840
:102E7000043C04650023C0F8A83010BC704700BFB4
:102E800009120000104B9B68BBB110F1160F0BD05C
:102E9000D3F89420A2F1400C844510D8824210D976
:102EA0008A4207D800207047D3F894208A4201D87C
:102EB00000207047D3F8940070470020704700202E
:102EC00070470020704700BF1015002008B50E465F
:102ED00015460A4A9060D0F8A420094B1A6000F009
:102EE00053F82C4686F309880020064B9847204665
:102EF000002100220023044C204700BF10150020B1
:102F000028140020579A000009120000014B1022DB
:102F10001A61704700ED00E0002206E003F00F03A5
:102F20000949194420230B7601322F2A0ADC53B2B7
:102F3000002BF3DB03F1604303F56143202183F8A9
:102F40000013F1E7704700BFFCEC00E008B5EFF3B9
:102F50000583103B044A02EBC301496852F8330071
:102F60008847FFF72BFB08BD4CBC000008B5034B9E
:102F7000034A0121034806F099FE08BD0000042021
:102F80000000002018CA000008B5D0F89430403B7B
:102F90000448036040234360034B8360012106F033
:102FA00089FE08BD2C14002000000B15084AC2F849
:102FB00098000B6823F01F03034343F01003C2F88B
:102FC0009C308B6843F00103C2F8A030704700BF0B
:102FD00000ED00E010B504460A4BD3F89030C3F37F
:102FE0000723013B984203D8FFF7E0FF204610BDBE
:102FF0000346054A0121054806F0BBFB6FF01500AA
:10300000F5E700BF00ED00E028CA000058BE000050
:103010002DE9F04780460F469A461646002409E0FF
:103020002946F0B206F04BFD064610F1160F1AD0F5
:1030300001360134BC4216DA04EB440508EB850581
:103040006A68002AF5D0BAF1000FE9D0284606F0E8
:1030500025FD0028E4D12346044A0121044806F056
:1030600088FB6FF015063046BDE8F08750CA0000B7
:1030700058BE000010B5034C01232278FFF7C8FFAB
:10308000207010BD4F17002008B500230B4A12789E
:10309000FFF7BEFF10F1160F0FD0024606E0084BF7
:1030A000C3F898200021C3F8A0100132044BD3F8D4
:1030B0009030C3F307239342F1DC08BD4F17002083
:1030C00000ED00E0044B0522C3F89420BFF34F8FBE
:1030D000BFF36F8F704700BF00ED00E0BFF35F8F5D
:1030E000024B0022C3F89420704700BF00ED00E0BF
:1030F00038B51C4B1D681C4BD3F89030C3F3072325
:103100009D422BD8FFF7EAFF002409E0154B5B68CE
:1031100004EB440103EB81012046FFF747FF013434
:10312000A542F3D81148057006F0E8FC10F1160F1F
:1031300013D00E4B1A780C4BD3F89030C3F30723FF
:103140009A4207DA084BC3F898200021C3F8A01070
:103150000132F0E7FFF7B6FF002038BD4FF0FF3037
:10316000FBE700BF74CA000000ED00E04F1700202D
:1031700030B587B00D4611460024009401940294A6
:1031800003940494059402228DF80220044A0192CB
:10319000049005951A46684604F028F807B030BD3B
:1031A000BD9C000008B5024B1B689847002008BD75
:1031B00038140020034B1860034A937843F002034D
:1031C00093707047381400200005002008B54FF0B8
:1031D000FF324FF0FF33024806F07BFD08BD00BF11
:1031E0001005002008B5064921F00701C1F1005281
:1031F00002F58022034805F059FC002008BD00BFFD
:10320000C74400203C14002038B50446FFF7DEFF19
:1032100022460821084805F0BEFB054620B10748B4
:1032200002F08AFC284638BD002CF8D008F0A4FC37
:10323000034B0C221A50F2E73C140020100500202A
:103240000C00000008B501230A4AC2F840354FF0CF
:103250008042C2F8783506F040FD20B14FF080433F
:103260000122C3F838264FF080430122C3F880259D
:10327000002008BD00E0014030B108B5034B8001DB
:1032800043F00103984708BD704700BF20BF00000E
:1032900000487047A4140020014BC01A4011704729
:1032A0005C14002038B505460C46FFF7F5FF0146D3
:1032B0004022034806F0AFFD01462846A04738BD2E
:1032C000FCBB000030B583B005460C46FFF7E4FFB9
:1032D0000146402300932346054A064806F0B5FD03
:1032E000011E01DB03B030BD2846A047FAE700BF4E
:1032F000939E0000FCBB000008B510B101280DD062
:1033000008BD0021084806F014FD836813F0070F7C
:10331000F6D10021044806F06CFDF1E701210248D6
:1033200006F067FDECE700BFFCBB000010B582B003
:10333000EFF31184202383F31288BFF36F8F154AB4
:10334000136843F00201116013F0010F09D100234B
:1033500084F31188BFF36F8FB3B906F0A2FD02B0FA
:1033600010BD0DF1070201214FF0804006F0C5FCB1
:103370009DF80730012B01D00023E9E7FFF788FF14
:1033800006F025FD0123E3E70021034806F031FDA7
:10339000E5E700BFB4140020FCBB000010B5EFF35C
:1033A0001184202383F31288BFF36F8F074A1368B9
:1033B00023F00201116013F0010F04D084F311888F
:1033C000BFF36F8F10BD06F076FDF7E7B414002051
:1033D00070B582B00546012807D14FF08043D3F87D
:1033E0001C3403F00303012B4BD007F0DAFF044633
:1033F00018B9284B1B78002B38D1EFF31186202306
:1034000083F31288BFF36F8F012424B94FF08043F8
:103410000222C3F8082301AA00214FF0804006F0E1
:103420006CFC20B1019B012B26D0012D24D0FCB1D6
:10343000304606F024FB4FF08043D3F81835002BBC
:10344000E9D14FF08043D3F80431002BE3D04FF0A3
:1034500080430022C3F80421D3F804210122C3F8D9
:1034600018250D49C1F880219A60D4E70026CCE7E1
:10347000012006F02AFDDEE72CB186F31188BFF3A8
:103480006F8F02B070BD4FF080430222C3F8042357
:10349000F7E700BF5317002000E100E000B585B05A
:1034A000CDF800D0CDF804D000230293012303937C
:1034B0006B46074A06F0E5FC002805DB4FF4804226
:1034C0000023684602F0D2FB05B05DF804FB00BFA4
:1034D000F79E000070B5064600220121104606F056
:1034E000AEFA114801F08EF8104B984219D101F054
:1034F0009DF80024012C12D82146304606F019FC14
:1035000005462146304606F021FC094905F0CDFF6D
:10351000002805DB0123AB601C44E4B2EAE700208D
:1035200070BD6FF00400FBE7F93200000000AD0B46
:10353000A8CA000010B50446104B0121BFF35B8FF1
:1035400053E8002F43E800100028F9D1BFF35B8F48
:103550001AB1631E012B0DD910BD094806F0F6FB08
:10356000084900234B608B60CB6001238B6005F022
:10357000B8FFEEE72046FFF72BFFEDE758140020D9
:10358000FCBB00004814002010B504460A2806D0F1
:10359000E1B2064883685B689847204610BD03483F
:1035A00083685B680D219847F2E700BF38BC0000D4
:1035B00010B5044C2046FFF7FDFD2046FDF71EFE2A
:1035C00010BD00BF8935000008B5054807F0C2FDF1
:1035D00018B1FFF7EDFF002008BD6FF01200FBE708
:1035E00038BC0000F0B51C46059F069E00F01F0C7D
:1035F000400936D0012837D1284D0CF5E07355F835
:10360000233099B301209AB34FF0020E40EA0E0026
:103610008CB34FF00C0E40EA0E007FB34FF4E06E17
:1036200040EA0E006EB34FF4403E40EA0E0023EA3B
:10363000000049B30B784AB31278520013433CB3ED
:103640002278920013432FB33A78120213431EB329
:1036500032781204134303430CF5E07C45F82C3018
:10366000F0BD4FF0A045C8E70025C6E70020CAE737
:103670004FF0000ECAE74FF0000ECCE74FF0000EFF
:10368000CEE74FF0000ED0E70023D4E70022D5E7C5
:103690000022D7E70022D9E70022DBE70003005031
:1036A00000F01F03400909D001280AD1064A03F59A
:1036B000E07352F8230000F0010070474FF0A04281
:1036C000F5E70022F3E700BF0003005028B101280E
:1036D00001D103487047002070470248704700BF7F
:1036E00010BC000024BC00002DE9F04786B08846DD
:1036F00015469946446801F01F07237B47EA4317A4
:10370000204606F05FFC002853D0B5F5001F2AD0F4
:103710000DF10C0A0026039604964946284606F049
:10372000C6FC8DF80C00009601960296CDF804A018
:10373000A36823FA08F313F0010F02D1B5F1A07FBB
:1037400018D010346A463946204607F096FA1C4BCA
:10375000984231D101223946204607F0B2FA0020C2
:1037600006B0BDE8F087394604F1100007F0ADFA65
:103770000020F5E73846FFF793FF0028E1D104F178
:1037800010050DF117023946284607F082FA0D4B55
:10379000984203D00DF117030493D2E70DF11701FE
:1037A000284607F08AFA064B9842F3D06FF00B00D8
:1037B000D6E76FF08500D3E76FF01500D0E700BFC4
:1037C0000000AD0B0400AD0B2DE9F04389B00746B6
:1037D00089461446456801F01F082B7B48EA4318C8
:1037E000104606F0F4FB8DF81E0040F2063323402D
:1037F000B3F5837F5ED016D8062B57D006D9B3F524
:10380000807F0DD101238DF81D3024E003B3022BFE
:1038100003D104238DF81D301DE06FF015076FE014
:103820006FF015076CE040F20222934246D0B3F5E8
:10383000407F03D103238DF81D300CE0B3F5007FEA
:1038400003D102238DF81D3005E06FF0150757E016
:1038500000238DF81D30012606FA09F63146384658
:1038600006F0C3FB071E4BDB14F4002F2AD06B6855
:10387000C3F80865284606F0A5FB50B310350DF1D6
:103880001F024146284607F004FA064614F4403F5A
:103890003AD14146284607F008FA3A4B9E422FD1CA
:1038A0009DF81F10284607F004FA29E006238DF83A
:1038B0001D30D0E707238DF81D30CCE705238DF8A8
:1038C0001D30C8E714F4802FD4D06B68C3F80C65A2
:1038D000D0E7C4F340438DF8083014F4803F0CBFA8
:1038E000012300238DF81030002301930DF11D03F7
:1038F00000930DF11E0304AA02A94046FFF772FED1
:10390000384609B0BDE8F08302AA0023029303936E
:10391000049305930693059204AA4146284607F0AE
:10392000ACF9184B984202D06FF01507E8E714F491
:10393000003F1AD09DF81D308DF8103014F4803FF0
:103940000CBF012300238DF811309DF81E308DF837
:103950001230002304AA4146284607F092F9094B89
:1039600098429AD06FF01507CAE700230493059395
:1039700006930DF11E03049304AA4146284607F05E
:103980007CF9ECE70000AD0B10B54468204606F06A
:1039900019FB08B9002010BD1034204607F081F94A
:1039A00008B10020F7E70021204607F076F9094B1F
:1039B00098420BD100220849204607F066F9002200
:1039C0000521062006F03BF80020E4E76FF0040034
:1039D000E1E700BF0000AD0BE7A0000070B400F00D
:1039E0001F0C400919D001281AD10E4D0CF5E070BA
:1039F00055F820600C4C344041EA420141EA83030F
:103A00009DF80C2043EA02239DF8102043EA02436C
:103A1000234345F8203070BC70474FF0A045E5E7E0
:103A20000025E3E700030050F0F8FCFF00F01F0161
:103A3000400907D0012808D1054A01238B40C2F86C
:103A4000083570474FF0A042F7E70022F5E700BFC6
:103A50000003005000F01F01400907D0012808D1E1
:103A6000054A01238B40C2F80C3570474FF0A04245
:103A7000F7E70022F5E700BF000300502DE9F04F03
:103A800085B080468B460392002423E04FF0FF363A
:103A900038E0039BC3F80C65012702973946B6F15D
:103AA000FF3F15D0B1F1FF3F40F0248158F80A30B4
:103AB00013F4004F40F02281029D00220192CDF8C4
:103AC0000090C3F341233A4629463046FFF786FF6C
:103AD0000134E4B25C4580F013814FEA840A58F85F
:103AE0002430C3F3C725C3F3C322C3F3080615F07C
:103AF000080540F00781874911F8029040F2FF1253
:103B00009642C3D01B0E222B00F2FF8001A252F876
:103B100023F000BF933A0000A13B0000B13B00003E
:103B2000BF3B0000CF3B0000DF3B0000ED3B00004F
:103B30000B3D00000B3D00000B3D00000B3D000065
:103B4000FD3B0000133C00000B3D00000B3D00005E
:103B50000B3D00000B3D00000B3D00000B3D000045
:103B60000B3D00000B3D00000B3D0000293C000018
:103B70003D3C0000513C0000653C00000B3D000056
:103B80000B3D00000B3D0000793C0000893C00002B
:103B9000973C0000A73C0000B73C0000C73C000079
:103BA000039BC3F814652F4602954FF0FF3176E76B
:103BB000039BC3F808650127029739466FE7039B0B
:103BC000C3F810652F4602954FF0FF3167E7039B5E
:103BD000C3F808652F460123029300215FE7039B8A
:103BE000C3F80C6501270297002158E7039BC3F82F
:103BF00010652F4602954FF0FF3150E7039BC3F845
:103C00000865B9F1000F65D02F4602954FF0FF31DE
:103C100045E7039BC3F80C65B9F1000F62D02F464E
:103C200002954FF0FF313AE7039BC3F8606558F8FF
:103C30000A10C1F300410127029730E7039BC3F844
:103C4000646558F80A10C1F300410127029726E77E
:103C5000039BC3F8686558F80A10C1F300410127B7
:103C600002971CE7039BC3F86C6558F80A10C1F370
:103C700000410127029712E7039BC3F824650295D0
:103C800001274FF0FF310AE7039BC3F8286501279E
:103C90000297394603E7039BC3F830650295012775
:103CA0004FF0FF31FBE6039BC3F834650295012713
:103CB0004FF0FF31F3E6039BC3F838650295012707
:103CC0004FF0FF31EBE6039BC3F83C6501270297F9
:103CD0003946E4E64F46CDF808904FF0FF314FF0FB
:103CE0000609DCE64F46CDF808904FF0FF314FF063
:103CF0000609D4E6304606F01EFAD7E60127DCE6D0
:103D0000002004E06FF0150001E06FF0850005B0C1
:103D1000BDE8F08F4CCB0000F8B505460E4647686D
:103D200007F03FFB20B9154B1B7843B1002300E09F
:103D3000012353B9284606F0AAFA044611E00123EC
:103D4000F7E784F31188BFF36F8FEFF3118420231B
:103D500083F31288BFF36F8F284606F036FA0028E7
:103D6000EFD0BB691E700122B969284606F054FAEB
:103D700084F31188BFF36F8FF8BD00BF5317002085
:103D800038B505460C4601F1080006F04DFC0C4B19
:103D900098420DD105F10C0205F59071207A00F0E2
:103DA000E5FB237A0120984000F0DAFB002038BDC3
:103DB000044A0121044805F0D2FC6FF00400F6E744
:103DC0000000AD0B54CB000070BE000010B50446DF
:103DD000436819681A69C1F824255A7D93F816C0FA
:103DE0001B7D42EA0C021343C1F86C3506F099FAC8
:103DF00000B110BD0249204606F0A5F9F9E700BF61
:103E00000FA3000021F07F4100F5A870014B43F89B
:103E100020107047001001404FF480338340024A65
:103E2000C2F84433704700BF001001404FF48033A4
:103E30008340024AC2F84833704700BF0010014077
:103E4000014BD3F804057047001001402DE9F843F9
:103E5000054689469046FFF7E9FF284606F007FB2E
:103E60004E46032710E0FFF7EBFF0446494606F0F5
:103E7000EDFAB0F5000F26D9284606F0F8FAB8F1A9
:103E8000000F22D13E19013731462846FFF7BAFF0D
:103E90002846FFF7C1FFFFF7D3FF0446C11C304699
:103EA00006F0D4FA0A4B98420AD9284606F0D2FA0C
:103EB0000028D8D1B8F1000FE4D06FF0150000E071
:103EC0000020BDE8F8830020FBE76FF01500F8E75D
:103ED000FDFF7F00034B044AC3F80823C3F84823BF
:103EE000704700BF0010014003000F0010B5012310
:103EF00083406FEA030C0E4ABFF35B8F52E8001F4A
:103F000001EA0C0E42E800E4002CF7D1BFF35B8F0E
:103F10004FF4803282400748C0F80823BFF35F8F18
:103F2000BFF36F8F0B4214BF0120002010BD00BFF4
:103F3000E0140020001001404FF480338340144A05
:103F4000D2F80423134201D10020704710B5044673
:103F500001238340DB430F49BFF35B8F51E8002F00
:103F600002EA030041E8000CBCF1000FF6D1BFF3F8
:103F70005B8F22FA04F313F0010F03D1204606F001
:103F800069FA18B1204606F072FA012010BD00BF90
:103F900000100140DC14002001B970470123834068
:103FA000114ABFF35B8F52E800CF4CEA030C42E8A2
:103FB00000C10029F7D1BFF35B8F4FF480338340FA
:103FC0000A4AC2F80433BFF35B8F094B1B68BFF387
:103FD0005B8FC34013F0010FDFD0064B4FF400326C
:103FE000C3F80021D9E700BFE01400200010014011
:103FF000DC14002000E100E038B5144610461946F4
:1040000006F041FA02460D490B68E01A1B184C688D
:1040100044F100040B604C60A2F50013B3F5400FAF
:1040200009D2074B1B68190A1B06D41841F1000579
:10403000044BC3E9004502F0ABFC38BDD80B0020AF
:10404000E4140020E00B002038B50D4B1C68250A55
:104050002406BFF35F8FFFF7F3FE0346001945F117
:104060000001B3F5801F0AD2064BD3E9002390422A
:1040700071EB030303D210F1807041F1000138BDF0
:10408000E4140020E00B00202DE9F0410646144620
:104090001D469DF820801046194606F0F4F90746A3
:1040A000FFF7D2FFA04271EB050319D2201A65EB8E
:1040B00001011D4B984271F100012FD21B4B03EB04
:1040C0000613D3E90223AB4208BFA24201D100206C
:1040D00018E0424639463046FFF7B8FE90B11BE083
:1040E000B8F1000F1DD10123B340114ABFF35B8F1C
:1040F00052E8000F184342E800010029F8D1BFF34D
:104100005B8F0020094B320103EB0616C6E902451E
:1041100006999950079B7360BDE8F0816FF0150018
:10412000FAE76FF01500F7E701008000C80B0020E8
:10413000DC14002030B585B0FFF7CCFE00231E4A0A
:10414000C2F80835002B25DD1B4C0225C4F80453AA
:104150001A4B4FF40032C3F88021002201211120B4
:1041600005F06DFC112005F065FC0123A3602360C0
:10417000134A1360002402940194124B0093124AD4
:104180000023204606F08FF92846FFF7D3F9204692
:1041900005B030BD0D4A02EB03124FF0FF304FF077
:1041A000FF31C2E902014FF480329A400249C1F85E
:1041B00004230133C6E700BF0010014000E100E026
:1041C000E0140020F93F0000FFFF7F00C80B002033
:1041D0002DE9F04782B00446FFF7AEFE10B902B0F9
:1041E000BDE8F087FFF730FF82460D4606F04EF936
:1041F0000646154B03EB0413D3E90289C24575EB60
:1042000009050BD20025304606F048F9002DE6D00E
:10421000009742464B462046A847E0E70A4A23015A
:1042200002EB0411D5584F680020D0504FF0FF32F8
:104230004FF0FF33C1E902232046FFF7F7FD204688
:1042400006F015F9DFE700BFC80B002010B50D4BD5
:10425000D3F8043313F0020F03D10024002C0BDD3C
:1042600010BD0221074806F0BBF80028F5D0064A29
:10427000136801331360F0E72046FFF7A9FF01340C
:10428000ECE700BF00100140E414002010B584B03A
:10429000B0F1FF3F18D001281BDD154B9842A8BF95
:1042A00018460446134B01221A70FFF7CDFE124B3D
:1042B0001A685B68801AB0F5000F0CD20444B4F59C
:1042C000000F09D30A4C07E00A4B00221A70084C71
:1042D000EBE70124E6E7064C00201219029001905A
:1042E0000649009143F1000306F0DDF804B010BD6B
:1042F000FFFF7F0052170020D80B0020F93F00007D
:1043000008B5FFF7A1FE024B1B68C01A08BD00BF2D
:10431000D80B0020BFF34F8F0549CA6802F4E06252
:10432000044B1343CB60BFF34F8F00BFFDE700BFCB
:1043300000ED00E00400FA05024BD3F80034002B36
:10434000FAD0704700E0014008B5034BC3F80405FC
:10435000FFF7F2FF08BD00BF00E0014038B506F0EE
:10436000CEF840B14FF080430022C3F80C21C3F8CF
:104370001021C3F8382506F0CCF8002846D04FF0BD
:104380008052D2F804144E4BC3F82015D2F808140A
:10439000C3F82415D2F80C14C3F82815D2F8101459
:1043A000C3F82C15D2F81414C3F83015D2F8181429
:1043B000C3F83415D2F81C14C3F84015D2F82014F1
:1043C000C3F84415D2F82414C3F84815D2F82814B9
:1043D000C3F84C15D2F82C14C3F85015D2F8301489
:1043E000C3F85415D2F83414C3F86015D2F8381451
:1043F000C3F86415D2F83C14C3F86815D2F8401419
:10440000C3F86C15D2F84424C3F8702506F08BF875
:1044100018B12C4B2C4AC3F88C2606F097F818B12B
:104420002A4BFB22C3F8182506F0A3F870B14FF011
:104430008041D1F8E43E23F00F034FF08052D2F8D0
:10444000582202F00F021343C1F8E43E06F0A4F82C
:1044500020B11F4B4FF40072C3F8402606F0AFF8AE
:1044600060B14FF08043D3F8003413F0010F05D052
:104470004FF080436FF00102C3F8002406F0B9F852
:104480004FF01023D3F80032002B06DB4FF010233F
:10449000D3F80432002B00DB38BD0120FFF754FFB6
:1044A0004FF010241225C4F80052FFF745FFC4F85E
:1044B0000452FFF741FF0020FFF746FFFFF72AFFF6
:1044C00000C00040005000404881030000F0004060
:1044D0000090024010B50468CCB1B4FA84F3C3F183
:1044E0001F03DBB201229A4024EA0202BFF35B8F72
:1044F00050E800CFA44504D140E8002EBEF1000FE3
:10450000F6D1BFF35B8FE6D10B70024810BD0248B5
:10451000FCE700BF0000AD0B0200AD0B0368CB4011
:1045200013F0010F15D100B5026801238B4013432E
:10453000BFF35B8F50E800CF944504D140E8003EC4
:10454000BEF1000FF6D1BFF35B8FEDD102485DF8ED
:1045500004FB0248704700BF0000AD0B0400AD0B28
:10456000014BC3F80405704700F00140034BA23033
:1045700043F8301003EBC0035A60704700F001406D
:1045800070B582B00646C0B1012832D104224FF482
:10459000807301214FF08040C0F8081302440121CC
:1045A0001160034400221A601B688DF807108E42C8
:1045B00008D0002542F210740CE00C224FF48273F4
:1045C0000221E7E70DF10705F4E7012006F021F8E5
:1045D000013C0CD02A4631464FF0804006F028F8C6
:1045E00028B1002DF1D09DF80730012BEDD0012E20
:1045F00001D002B070BD024B00225A71F9E700BF32
:10460000E8140020064B1B793BB9054B18600122CA
:104610001A7100225A71034870470348704700BF5F
:10462000E81400200000AD0B0C00AD0B08B5064BE4
:104630001B680BB106F01AF806F016F84FF080432D
:10464000C3F8180508BD00BFE814002000B583B00A
:1046500020B1012849D003B05DF804FB4FF080433E
:10466000D3F81824D3F8183403F00303019312F499
:10467000803F13D14FF08043D3F8143413F0010F6F
:1046800010D105F0F1FF0190019A4FF08043C3F87B
:10469000182508224FF4827302202AE001A805F0B1
:1046A000EEFFF1E74FF08043D3F81C3403F003032F
:1046B000019301A805F0E3FF0028E5D0194B1B6822
:1046C0002BB14FF080430222C3F80423C3E74FF01D
:1046D0008043D3F80431002BF9D04FF080430022FF
:1046E000C3F80421D3F80431B5E700224FF48073F6
:1046F000012003F1804300211960196802F1804212
:1047000001211160074A126822B14FF08043C3F8BB
:104710000403A0E71A68002AFCD000221A601B6874
:1047200099E700BFE814002010B54FF08043D3F89C
:10473000044308E01D4B5B792BB91C4B01225A71D5
:104740001A4B1B68984784B3B4FA84F0C0F11F0079
:104750000122824083009BB203F580739BB2C0B2FA
:1047600092B224EA020403F1804319680029EAD0D6
:10477000002119601B684FF08043C3F80823012A09
:10478000D8D0022ADCD14FF08043D3F81814D3F8E4
:10479000183413F0030FD3D14FF080430121C3F835
:1047A0001815C3F804239960CDE710BDE814002064
:1047B00070B400F01F0C400919D001281AD10E4D19
:1047C0000CF5E07055F820600C4C344041EA420191
:1047D00041EA83039DF80C2043EA02239DF8102050
:1047E00043EA0243234345F8203070BC70474FF042
:1047F000A045E5E70025E3E700030050F0F8FCFFE3
:10480000F0B51C46059F069E00F01F0C400936D0EF
:10481000012837D1284D0CF5E07355F8233099B3B2
:1048200001209AB34FF0020E40EA0E008CB34FF015
:104830000C0E40EA0E007FB34FF4E06E40EA0E002B
:104840006EB34FF4403E40EA0E0023EA000049B345
:104850000B784AB31278520013433CB3227892008B
:1048600013432FB33A78120213431EB33278120463
:10487000134303430CF5E07C45F82C30F0BD4FF0BA
:10488000A045C8E70025C6E70020CAE74FF0000EA4
:10489000CAE74FF0000ECCE74FF0000ECEE74FF026
:1048A000000ED0E70023D4E70022D5E70022D7E7A7
:1048B0000022D9E70022DBE70003005000F01F02CE
:1048C000400908D0012809D1054BD3F81005D04084
:1048D00000F0010070474FF0A043F6E70023F4E733
:1048E0000003005000F01F03400909D001280AD13D
:1048F000064A03F5E07352F82300C0F30140704705
:104900004FF0A042F5E70022F3E700BF000300509C
:1049100000B583B084468E460D4B93E8030002AB8E
:1049200003E9030063460BE002A901EB830151F8A0
:10493000081CD1F8200542F8040BC1F8200501330A
:104940000CEB0E009842EFD803B05DF804FB00BFFB
:104950000CBF000000F01F01400907D0012808D15A
:10496000054A01238B40C2F8203570474FF0A04222
:10497000F7E70022F5E700BF000300504309034AB0
:10498000D35C00F01F001844C0B27047D8CB0000C1
:1049900000487047240500202DE9F04184B0054609
:1049A0000C4616461F460846FFF7E8FF804656B3FA
:1049B0002146284605F05BFF28B12146284605F030
:1049C00016FF002841D12146284605F01FFF10B1EF
:1049D0007378012B39D001238DF80F300023019318
:1049E0000096B31C721C0DF10F012046FFF708FF63
:1049F0002879FFF7CDFF08F1080230F8123043F0B4
:104A0000030320F81230002F39D02146284605F044
:104A10002EFF002835D13E782B6806F5A2720021C2
:104A200043F822102879FFF7B3FF08F1080230F8A5
:104A3000123023F02003DB04DB0C20F812307B78EB
:104A40002BB9114804B0BDE8F0811048FAE7BA78F4
:104A5000009222463146286805F044FE2879FFF787
:104A600097FF024608F1080032F810307603B6B21C
:104A7000334343F0200322F810300348E2E70248B2
:104A8000E0E70248DEE700BF0000AD0B0400AD0B1D
:104A900070B506460D46144605F0A9FE68B130799A
:104AA000FFF776FF06462846FFF768FF083036F81E
:104AB00010305B0B2370024870BD0248FCE700BF5A
:104AC0000000AD0B0400AD0B30B583B0054601917D
:104AD000002400E00134012C18D80E4B1B5D03F0BC
:104AE000070202A901EBD30313F8043CD34013F0EF
:104AF000010FEFD005EB840201212046FFF708FFEC
:104B000055F82430002BE5D0012000E0002003B050
:104B100030BD00BFE8CB00002DE9F04182B0054672
:104B2000884616461F4605F0EEFFAEB33A463146BC
:104B3000284605F0F8FE041E20DB2879FFF728FF41
:104B400040F834602879FFF723FF00EBC40047608A
:104B50002879FFF71DFF05464046FFF70FFF083095
:104B600035F81030E4B26402A4B2234343F48073F6
:104B700025F81030094802B0BDE8F0812879FFF728
:104B800007FF0DF107017830FFF7A4FC034B9842B3
:104B9000F1D19DF80740D0E70048ECE70000AD0BED
:104BA0002DE9F04385B004460D4617460846FFF749
:104BB000E5FE0646D7F80080B8F1000F28D0294658
:104BC000204605F043FE00284FD100238DF80E301B
:104BD0008DF80F300193009343460DF10F020DF154
:104BE0000E012846FFF70CFE2079FFF7D1FE06F1F3
:104BF000080830F8183023F0020320F81830207924
:104C0000FFF7C6FE30F8183043F0010320F81830E3
:104C10007B68F3B193F80080D3F8049029462046CE
:104C200005F005FE18B3B9F1000F65D12079FFF743
:104C3000AFFE083630F8163023F01C0320F816308B
:104C40002079FFF7A5FE30F8163043EA880320F8F4
:104C50001630BA68002A53D0536812682946204695
:104C6000FFF75AFF05B0BDE8F0832648FAE7207940
:104C7000FFF78EFE06F1080230F8123023F0200311
:104C8000DB04DB0C20F81230B9F1000FCED0B8F104
:104C9000030F33D87B685B6893F80090B8F1000F7E
:104CA00006D1236809F5A279002243F82920BDE73F
:104CB000404605F0E4FD0346216809F5A27C51F861
:104CC0002C2022F0030241F82C202A464946206875
:104CD00005F0EFFC2079FFF75BFE06F1080230F8E3
:104CE00012304FEA49391FFA89F943EA090343F0C0
:104CF000200320F8123099E70248B3E70148B1E7F2
:104D00000148AFE70400AD0B0000AD0B38B5054618
:104D10000C4605F05DFD08B9074838BD2146284618
:104D200005F0DEFD2146284605F018FF204605F077
:104D300033FD0248F1E700BF0400AD0B0000AD0BEE
:104D400070B582B005460E460079FFF721FE90F857
:104D5000803013B10B4802B070BD044660220021C0
:104D6000103006F02CFD236F0093002332464FF0E5
:104D70000041286805F01CFF012384F88030A367F8
:104D80000148E8E70C00AD0B0000AD0B2DE9F04346
:104D900083B080460F46002300930193C96F684695
:104DA000FFF792FE4BE094FAA4F4B4FA84F404F012
:104DB0001F05254B9B5D45EA43152846FFF7DEFDA1
:104DC000083037F81090C9F382090DEB8603E0082C
:104DD00004F007041A5C0121A14022EA01021A54DE
:104DE0002846FFF77FFD03464A462946384605F028
:104DF0004AFE2846FFF7AEFD02AB03EB860353F8ED
:104E0000084C002CCFD10136012E0DD80F4B9B5DE5
:104E100007F17C02D90803F00703525C22FA03F37E
:104E200013F0010FEFD0E7E73A6F4FF00041404633
:104E300005F094FCF96F6846FFF746FE08B10026BE
:104E4000E2E703B0BDE8F083ECCB0000E8CB000064
:104E500008B50249024805F0F6FE08BD2405002009
:104E60000060004008B501460148FFF733FB08BD6C
:104E7000A8050020C9B170B5044615460E46B2B16A
:104E800005F027FF08B90C4870BD21460B4B186888
:104E900005F0C3FB68B10A4B04F1A20043F830608F
:104EA00003EBC0035D600748EEE70748704706481C
:104EB000EAE70648E8E700BF0400AD0BA8050020BC
:104EC00000F001400000AD0B0900AD0B0500AD0B7B
:104ED00010B5044605F008FF98B1204605F0F9FE2C
:104EE00030B90123A340084AC2F80435074809E055
:104EF0002146074B186805F090FB0028F1D10548C2
:104F000000E0054810BD00BF00F001400000AD0BFF
:104F1000A80500200500AD0B0400AD0B10B504463C
:104F200005F0E2FE98B1204605F0D3FE30B901232A
:104F3000A340084AC2F80835074809E02146074B54
:104F4000186805F06AFB0028F1D1054800E0054823
:104F500010BD00BF00F001400000AD0BA80500200F
:104F60000500AD0B0400AD0B70B400F01F0C400940
:104F700019D001281AD10E4D0CF5E07055F82060BB
:104F80000C4C344041EA420141EA83039DF80C2075
:104F900043EA02239DF8102043EA0243234345F8E5
:104FA000203070BC70474FF0A045E5E70025E3E7EF
:104FB00000030050F0F8FCFF00F01F01400907D08B
:104FC000012808D1054A01238B40C2F808357047F3
:104FD0004FF0A042F7E70022F5E700BF00030050C2
:104FE00000F01F01400907D0012808D1054A01231C
:104FF0008B40C2F80C3570474FF0A042F7E7002213
:10500000F5E700BF0003005010B5047904EB8402FB
:105010000E4B53F8223053B104EB84040B4B03EBDB
:105020008403187AC0B2023818BF012010BD0221D3
:10503000006805F07FFE0028EED004EB8402034BED
:1050400003EB820301221A72E6E700BFF01400208E
:1050500038B5047904EB840C0F4D05EB8C0C9CF8EF
:105060000850BDB90C4D04EB840C05EB8C0E45F8D3
:105070002C20CEF8043021B10D7F8EF8105005F0B1
:1050800061FF04EB8404044B03EB840301221A72D6
:10509000024838BD0248FCE7F01400200000AD0BC8
:1050A0000C00AD0B70B58C4696461A46017901EBA3
:1050B0008101224B03EB81010368DCF80040C3F857
:1050C0002045BCF80440C3F82445DCF80840C3F888
:1050D0002845DCF80C40C3F82C450368DCF8004098
:1050E000C3F84045BCF80440C3F84445DCF8084028
:1050F000C3F84845DCF80C40C3F84C451EF00105E8
:105100002B4606684FEA5E0E0CD001247444C6F8A4
:10511000144512F0010F07D112F0020405D055B169
:10512000082402E02C46F1E710240568C5F8004287
:1051300005F091FE70BD0424F7E700BFF0140020D5
:1051400038B50446057903680022C3F800220368D5
:1051500001225A6079B12046FFF756FF0028FAD0A5
:1051600023680022C3F8002505EB8505044B03EBFB
:10517000850301221A722046FFF746FF38BD00BFA3
:10518000F01400200F4BB3FBF1F201FB12336BB9AB
:105190000C4B99420DD8531E1A420DD1B2F5007F27
:1051A0000DD892FAA2F0B0FA80F070474FF0FF30BD
:1051B00070474FF0FF3070474FF0FF3070474FF0AF
:1051C000FF3070470024F40030B583B005460C462C
:1051D0000968FFF7D7FFB0F1FF3F14D000902379A3
:1051E0008DF8043063798DF805306946286805F03C
:1051F000DAFE0023A2794FF47C11286805F048FFFD
:10520000024803B030BD0248FBE700BF0000AD0B11
:105210000400AD0B38B5047904EB440C0F4B03EBE1
:105220008C031B7AC3B90D4D45F82C2091B18D68C4
:105230000A4B03EB8C035D60FFF7C6FF084A904200
:1052400014BF0022012204EB4404044B03EB84034B
:105250001A7238BD0248F1E70248FAE70415002047
:105260000000AD0B0C00AD0B036801221A6003793E
:1052700003EB4303024A02EB830302221A727047D4
:105280000415002008B504220249034805F0D6FEA3
:1052900008BD00BF041500200090004010B5134C5D
:1052A000A8220021204606F08AFA032323616361C5
:1052B0000F4AA2610F4BE3614FF480632362002326
:1052C000A3626362E36222660B4A62661022A266F0
:1052D0002367E366636706E0C3F10F020749895C51
:1052E000024AD15401330F2BF6D910BD100400200F
:1052F000F0CB00001000002000000020FCCB0000DC
:1053000008B500230F2B0AD8094AD25CD2B2C3F1E8
:105310000F010848415C8A4204D10133F2E70023BF
:1053200013B908BD0123FBE7FFF7B8FFF9E700BF9A
:1053300010040020FCCB00002DE9F84304460E4683
:105340001546304B00EB400003EBC000826A476A11
:10535000601C00EB400003EBC00358683844BA42BD
:105360003CD804EB4401274B03EBC103D3F8208066
:10537000A8EB070909F1FF339D4204D913449D426C
:105380000ED900202FE02A46314606F00AFA2F44B3
:1053900004EB44041B4B03EBC4035F62012022E0D7
:1053A0004A46314606F0FDF9A7EB080818EB05055B
:1053B00007D104EB4404134B03EBC4035D620120EB
:1053C00011E0631C03EB43030E4A02EBC3032A46BE
:1053D00006EB0901586806F0E4F9EAE7D21B013A46
:1053E000AA4202D20020BDE8F8832A4606F0D9F985
:1053F0002F4404EB4404034B03EBC4035F6201201E
:10540000F1E700BF10040020064B00EB400203EB65
:10541000C202926A00EB400003EBC003586A801A94
:10542000704700BF10040020034B00E01433034A10
:105430009342FBD3704700BFFCBB00004CBC000094
:1054400004280CD8DFE800F0030D05070900064822
:105450007047064870470648704706487047064838
:1054600070470648704700BF10CC000034CC0000E5
:1054700044CC000050CC000060CC000020CC0000E8
:1054800030B108B505F093FF20B1037823B108BD12
:10549000024870470148FAE70048F8E770CC00007E
:1054A00010B50446FCF7AEF9034A0121034804F0A5
:1054B00056F9204605F05EFE78CC000060BE000084
:1054C0002DE9F04782B000AF05460C46EFF3118896
:1054D000202383F31288BFF36F8FDFF8C491D9F8CC
:1054E0000860FFF7ADFF99F81010E94601233B7102
:1054F00003237B718AB0EC461CF1100221D04FF0DF
:10550000160E5AB17346BEF1040F03DDDFF894A105
:10551000CCF814A0082B01DDCCF8185001233B7007
:1055200003237B70D2B17346BEF10C0F01DDCCF8C2
:105530001C00102B01DDCCF820100CF124030021FD
:105540000AE06FF0004EDCE701F10800384410F883
:10555000080C03F8010B01310129F5D9BEF1150F33
:1055600050DD16234AB10521397100217971B971D5
:105570000121F9717868CCF8100000216FF3000167
:105580006FF341016FF382016FF3C501012060F3F6
:105590008811C3F30A0363F353216FF31F510023F0
:1055A0004148FCF729FACD461CB1E369C3F308036F
:1055B0005BBB3046FFF764FFE94601233B710323E1
:1055C0007B718AB0EC461CF1100224D04FF0120E11
:1055D00052B17346BEF1040F02DD3449CCF8141009
:1055E000082B01DDCCF8186001233B7003237B708E
:1055F000F2B1BEF10C0F01DDCCF81C000CF1200360
:10560000002113E06FF01B03ACE7294A0121264873
:1056100004F0A5F8CDE76FF0004ED9E701F10800DE
:10562000384410F8080C03F8010B01310129F5D9B1
:10563000BEF1110F31DD12234AB10421397100216D
:105640007971B9710121F9717868CCF810000021E5
:105650006FF300016FF341016FF382016FF3C50136
:10566000012060F38811C3F30A0363F353216FF33E
:105670001F5100230C48FCF7BFF9CD4621462846B0
:10568000FFF70EFF88F31188BFF36F8F3046FDF7E9
:105690002BFB0837BD46BDE8F0876FF01B03CBE757
:1056A0001015002088CC000060BE0000D4CC0000A3
:1056B000B0CC000038B505460A4B53F8204002E054
:1056C0002368984708346B1C064A52F82330A342DB
:1056D00006D96368002BF3D0204605F053FDF1E7AF
:1056E00038BD00BFFCCC000010B586B0B023114C13
:1056F00003FB004400EB400C00EB80000E4B03EB7F
:1057000080030E4A0592012204920F220392002286
:105710000292019200930A4B4FF4A072094901EBE7
:10572000CC11204600F01EFB637B23F0040363735F
:1057300006B010BDE80B002010150020ECCC0000D6
:10574000E5B200000023002008B553EA020102D1AF
:1057500000F0CCFE08BD0249183001F093F8F9E7DB
:10576000ADB5000010B586B0184C14E0636A05931F
:10577000236A0493E3690393A36902936369019322
:1057800023690093E368A2686168206800F0EAFA80
:1057900023685C6530340E4B9C42E7D300F0B6FDC5
:1057A0000A4C00E030340A4B9C420BD2A26AE36AF6
:1057B000B3F1FF3F08BFB2F1FF3FF3D02068FFF71E
:1057C000C3FFEFE700F0BAFD06B010BDCCBD00008E
:1057D000CCBD000008B50B4B01221A700320FFF767
:1057E00069FFFCF7D3FC05F0EDFC0420FFF762FF36
:1057F000FFF7B8FFFAF710FE034A137B23F001030B
:10580000137308BD53170020980C002008B50146FB
:10581000014A0248FDF75AFBD5570000980C0020BA
:1058200008B50348034A121A002105F0C3FC08BD5D
:10583000D80600205417002010B50446FFF754FF87
:10584000B0230B4903FB04110A4A04EB840302EB67
:105850008303D9601C7404EB4411074B03EB8113E1
:1058600003F5046304EB840402EB8402536010BD6F
:10587000E80B002010150020C01A002070B586B07B
:1058800000F094FD104D114B5D61114B0593012308
:105890000493002403940294019400940D4B4FF45C
:1058A00080520D49284600F05DFA06466B7B23F0D6
:1058B00004036B73284605F011FE2046FFF7BCFF7A
:1058C000304606B070BD00BF980C002010150020B7
:1058D000F4CC0000D55700008024002008B500203B
:1058E000FFF7E8FE1F4B83F308881F4C636943F4FE
:1058F00000736361E02384F822300025E577257684
:105900006576A57684F82050636A43F4E0236362E9
:1059100084F82350FDF764F9FDF7F8FA4FF0FF33F0
:10592000A362E362FDF7E4FBFDF720FBFBF7D2FE89
:105930000E4C012666732673C4F89450C4F8985030
:10594000204601F063F90A4B9C60FFF76DFD30467D
:10595000FFF7B0FE0220FFF7ADFEFFF78FFFFFF766
:1059600055FF00BF0023002000ED00E0480D00209F
:1059700010150020064B1B684BB110B55C1E044A85
:1059800052F8233098472346002CF7D110BD7047BA
:1059900018BE000010B5044C02E054F8043B9847D0
:1059A000024B9C42F9D310BD24BE000030BE000063
:1059B00010B5064C002000E02034054B9C4204D278
:1059C000204605F005FC0028F6DA10BD5C06002034
:1059D0005C06002030B583B00D46EFF31181202422
:1059E00084F31288BFF36F8F046964B12C6023685D
:1059F0000361C3690133C361002081F31188BFF3E0
:105A00006F8F03B030BD00F1080C53EA020404D1DB
:105A100000232B606FF00B00EFE70092019302462A
:105A2000604600F0BDFB0028EBD1024B9B685B6930
:105A30002B60E6E7101500202DE9F04182B0044606
:105A4000EFF31187202181F31288BFF36F8FC168B4
:105A500099B9002950D1364B9B6893F90E302361D8
:105A60000131E160324B9B68A36087F31188BFF37B
:105A70006F8F002002B0BDE8F08116461D46826897
:105A80002B4B9B689A42E4D055EA060136D092F936
:105A90000E80414693F90E0005F031FC804534DC60
:105AA0004FF000080096019522463946214800F043
:105AB00077FB0028DED0EFF31185202383F31288D3
:105AC000BFF36F8FA36843B323689C4223D013B303
:105AD000216993F90E0005F012FC0146204605F0FD
